:100000000C942A000C94FA160C942A170C945A1784
:100010000C9447000C9447000C9447000C94470044
:100020000C9447000C9447000C9447000C94470034
:100030000C94D1130C9447000C9447000C94470087
:100040000C9447000C9447000C9447000C94470014
:100050000C94470011241FBECFE5D8E0DEBFCDBF12
:1000600013E0A0E6B0E0EEEFFAE502C005900D92D5
:10007000A638B107D9F713E0A6E8B3E001C01D9296
:10008000A939B107E1F70E94442B0C947D2D0C9403
:100090000000EF92FF920F931F937B018C0120E0F1
:1000A00030E040E05FE40E94F50388238CF0C80153
:1000B000B70120E030E040E05FE40E94C1010E940F
:1000C00055049B01AC01205030404040504806C0D0
:1000D000C801B7010E9455049B01AC01B901CA01D6
:1000E0001F910F91FF90EF900895A0E0B0E0EBE733
:1000F000F0E00C94462DDC012B01FA019C9192302A
:1001000008F439C1EB018881823008F433C194309E
:1001100069F4843009F02FC111969C91119789815F
:10012000981709F428C1A4E5B3E025C1843009F487
:1001300021C18230A9F4923009F01DC19A01AD01AC
:1001400088E0EA010990AE01E90109929E0181501F
:10015000C1F7E201898111969C918923818308C1AD
:10016000923009F407C112962D903C901397EB0141
:100170008A819B811496AD90BD90CD90DC901797AD
:10018000EC80FD800E811F819101281B390BB90184
:1001900037FF04C066277727621B730B6032710537
:1001A0000CF061C0121613066CF537014801062EDB
:1001B00004C096948794779467940A94D2F721E0C8
:1001C00030E040E050E004C0220F331F441F551FB1
:1001D0006A95D2F721503040404050402E213F21B7
:1001E00040235123211531054105510521F021E01E
:1001F00030E040E050E079018A01E628F72808293C
:1002000019293CC0232BD1F1260E371E350146019A
:10021000062E04C096948794779467940A94D2F734
:1002200021E030E040E050E004C0220F331F441FC3
:10023000551F6A95D2F721503040404050402A2146
:100240003B214C215D21211531054105510521F04E
:1002500021E030E040E050E059016A01A628B728CB
:10026000C828D9280BC0821593052CF01C01AA249C
:10027000BB24650103C0EE24FF24870111969C91E5
:10028000D20111968C91981709F445C0992339F041
:10029000A80197012A193B094C095D0906C0A6016E
:1002A00095012E193F09400B510B57FD08C01182D3
:1002B0003382228224833583468357831DC081E0A5
:1002C00081833382228288279927DC01821B930B4A
:1002D000A40BB50B84839583A683B7830DC0220F2F
:1002E000331F441F551F24833583468357838281E0
:1002F000938101979383828324813581468157813D
:10030000DA01C9010197A109B1098F5F9F4FAF4F72
:10031000BF4328F30BC0918333822282EA0CFB1C7B
:100320000C1D1D1DE482F5820683178383E0808304
:10033000248135814681578157FF1AC0C901AA27F8
:1003400097FDA095BA2F81709070A070B0705695EF
:10035000479537952795822B932BA42BB52B848318
:100360009583A683B7838281938101969383828349
:10037000DF0101C0D201CD01CDB7DEB7E2E10C94BF
:10038000622DA0E2B0E0E7ECF1E00C94522D69831D
:100390007A838B839C832D833E834F835887E9E048
:1003A000EE2EF12CEC0EFD1ECE010196B7010E943F
:1003B0007E058E010F5E1F4FCE010596B8010E948B
:1003C0007E058A8991E089278A8BC701B801AE0131
:1003D000475E5F4F0E9475000E94A904A096E6E068
:1003E0000C946E2DA0E2B0E0E8EFF1E00C94522DF9
:1003F00069837A838B839C832D833E834F835887C5
:10040000F9E0EF2EF12CEC0EFD1ECE010196B701A6
:100410000E947E058E010F5E1F4FCE010596B8012A
:100420000E947E05C701B801AE01475E5F4F0E9482
:1004300075000E94A904A096E6E00C946E2DA0E23F
:10044000B0E0E5E2F2E00C94462D69837A838B8379
:100450009C832D833E834F835887CE010196BE0136
:10046000675F7F4F0E947E05CE010596BE016F5EDD
:100470007F4F0E947E059985923088F0898982306D
:10048000C8F0943019F4823051F404C0843029F457
:10049000923081F484E593E0C6C0923049F420E0C4
:1004A0009A858A89981321E02A87CE010996BBC0D4
:1004B000823049F420E09A858A89981321E02A8BBA
:1004C000CE014196B0C02D843E844F8458886D88FB
:1004D0007E888F88988CEE24FF248701AA24BB2471
:1004E000650140E050E060E070E0E0E0F0E0C10174
:1004F00081709070892BE9F0E60CF71C081D191D1E
:100500009A01AB012A0D3B1D4C1D5D1D80E090E062
:10051000A0E0B0E0E614F7040805190520F481E036
:1005200090E0A0E0B0E0BA01A901480F591F6A1F8E
:100530007B1FAA0CBB1CCC1CDD1C97FE08C081E0F5
:1005400090E0A0E0B0E0A82AB92ACA2ADB2A3196B6
:10055000E032F10549F0660C771C881C991C569412
:10056000479437942794C3CFFA85EA892B893C892D
:100570008B859C85280F391F2E5F3F4F17C0CA01FE
:1005800081709070892B61F016950795F794E79428
:1005900080E090E0A0E0B0E8E82AF92A0A2B1B2BC3
:1005A00076956795579547952F5F3F4F77FDE7CF36
:1005B0000CC0440F551F661F771F17FD4160EE0CDE
:1005C000FF1C001F111F21503040403090E05907A0
:1005D00090E0690790E4790760F32B8F3C8FDB0193
:1005E000CA018F779070A070B07080349105A1051A
:1005F000B10561F447FD0AC0E114F10401051105DC
:1006000029F0405C5F4F6F4F7F4F40781A8EFE1786
:1006100011F081E08A8F4D8F5E8F6F8F78A383E01A
:10062000898FCE0149960E94A904A096E2E10C941C
:10063000622DA8E1B0E0EFE1F3E00C944E2D698368
:100640007A838B839C832D833E834F835887B9E0C5
:10065000EB2EF12CEC0EFD1ECE010196B7010E948F
:100660007E058E010F5E1F4FCE010596B8010E94D8
:100670007E052985223008F47EC03989323010F495
:10068000B8017CC08A859A8989278A87243011F02D
:10069000223031F4231709F06EC064E573E06EC0B8
:1006A000343039F41D861E861F86188A1C861B86E8
:1006B00004C0323021F484E08987B7015FC02B8504
:1006C0003C858B899C89281B390B3C872B87ED84C3
:1006D000FE840F851889AD88BE88CF88D88CEA142F
:1006E000FB040C051D0540F4EE0CFF1C001F111F40
:1006F000215030403C872B8720E030E040E050E044
:1007000080E090E0A0E0B0E460E070E0EA14FB0478
:100710000C051D0540F0282B392B4A2B5B2BEA18C2
:10072000FB080C091D09B695A79597958795EE0CC2
:10073000FF1C001F111F6F5F7F4F6F31710531F775
:10074000DA01C9018F779070A070B0708034910584
:10075000A105B10561F427FD0AC0E114F10401050A
:10076000110529F0205C3F4F4F4F5F4F20782D87B8
:100770003E874F87588BBE01675F7F4FCB010E943A
:10078000A9046896EAE00C946A2DA8E1B0E0EBECCD
:10079000F3E00C94522D69837A838B839C832D83A1
:1007A0003E834F83588789E0E82EF12CEC0EFD1E26
:1007B000CE010196B7010E947E058E010F5E1F4F8C
:1007C000CE010596B8010E947E058985823040F0F1
:1007D0008989823028F0C701B8010E94F60501C05E
:1007E0008FEF6896E6E00C946E2DA8E1B0E0EBEF99
:1007F000F3E00C94522D69837A838B839C832D8341
:100800003E834F83588789E0E82EF12CEC0EFD1EC5
:10081000CE010196B7010E947E058E010F5E1F4F2B
:10082000CE010596B8010E947E058985823040F090
:100830008989823028F0C701B8010E94F60501C0FD
:100840008FEF6896E6E00C946E2DA8E1B0E0EBE245
:10085000F4E00C94522D69837A838B839C832D83DF
:100860003E834F83588789E0E82EF12CEC0EFD1E65
:10087000CE010196B7010E947E058E010F5E1F4FCB
:10088000CE010596B8010E947E058985823040F030
:100890008989823028F0C701B8010E94F60501C09D
:1008A00081E06896E6E00C946E2DACE0B0E0EBE5FC
:1008B000F4E00C94562D69837A838B839C83CE015C
:1008C0000196BE016B5F7F4F0E947E058D81823055
:1008D00061F1823050F1843021F48E81882351F10E
:1008E0002EC02F81388537FD20C06E812F31310514
:1008F0001CF06623F9F023C08EE190E0821B930B7D
:1009000029853A854B855C8504C056954795379572
:1009100027958A95D2F76623B1F05095409530958A
:1009200021953F4F4F4F5F4F0EC020E030E040E039
:1009300050E009C02FEF3FEF4FEF5FE704C020E02A
:1009400030E040E050E8B901CA012C96E2E00C9496
:10095000722DDF92EF92FF920F931F93FC01E480C0
:10096000F58006811781D1808081823048F480E053
:1009700090E0A0E1B0E0E82AF92A0A2B1B2BA5C0E1
:10098000843009F49FC0823021F4EE24FF248701D3
:1009900005C0E114F1040105110519F4E0E0F0E0EF
:1009A00096C0628173819FEF623879070CF05BC05B
:1009B00022E83FEF261B370B2A3131052CF020E0CF
:1009C00030E040E050E02AC0B801A701022E04C088
:1009D00076956795579547950A94D2F781E090E010
:1009E000A0E0B0E004C0880F991FAA1FBB1F2A9582
:1009F000D2F70197A109B1098E219F21A023B1232C
:100A00000097A105B10521F081E090E0A0E0B0E001
:100A10009A01AB01282B392B4A2B5B2BDA01C90138
:100A20008F779070A070B07080349105A105B105EA
:100A300039F427FF09C0205C3F4F4F4F5F4F04C080
:100A4000215C3F4F4F4F5F4FE0E0F0E02030A0E0EF
:100A50003A07A0E04A07A0E45A0710F0E1E0F0E00E
:100A600079018A0127C06038710564F5FB01E158FE
:100A7000FF4FD801C7018F779070A070B07080349D
:100A80009105A105B10539F4E7FE0DC080E490E0C1
:100A9000A0E0B0E004C08FE390E0A0E0B0E0E80E9A
:100AA000F91E0A1F1B1F17FF05C016950795F7941F
:100AB000E794319687E016950795F794E7948A9521
:100AC000D1F705C0EE24FF248701EFEFF0E06E2F91
:100AD000679566276795902F9F77D794DD24D794E5
:100AE0008E2F8695492F462B582F5D29B701CA01B5
:100AF0001F910F91FF90EF90DF900895FC01DB01B3
:100B0000408151812281622F6F7770E0221F22275E
:100B1000221F9381892F880F822B282F30E0991F65
:100B20009927991F11969C93119721153105A9F5C5
:100B3000411551056105710511F482E037C082E865
:100B40009FEF13969C938E9312979A01AB0167E0E7
:100B5000220F331F441F551F6A95D1F783E08C93F2
:100B60000DC0220F331F441F551F12968D919C916B
:100B70001397019713969C938E931297203080E0E1
:100B8000380780E0480780E4580758F314962D93FF
:100B90003D934D935C93179708952F3F310579F45A
:100BA000411551056105710519F484E08C93089590
:100BB00064FF03C081E08C9312C01C9210C02F57B9
:100BC000304013963C932E93129783E08C9387E0EA
:100BD000440F551F661F771F8A95D1F770641496CE
:100BE0004D935D936D937C93179708951F93DC014C
:100BF000FB019C91923008F447C08081823008F458
:100C000043C0943051F411961C91843099F5818140
:100C1000682F70E0611B71093FC0843021F0923071
:100C200031F48230B9F18181882389F12DC0119688
:100C30001C9111978230F1F081811817D9F4129626
:100C40002D913C911397828193818217930794F0A1
:100C500028173907BCF014968D919D910D90BC9189
:100C6000A02D2481358146815781281739074A07ED
:100C70005B0718F4112341F00AC082179307A407F9
:100C8000B50740F4112319F061E070E005C06FEF83
:100C90007FEF02C060E070E0CB011F910895DF9309
:100CA000CF93CDB7DEB781E065E041E00E948A17BF
:100CB00081E066E040E00E948A1781E067E041E061
:100CC0000E948A1781E064E041E00E948A170E9436
:100CD00083120E94A71181E00E945E1D81E063E003
:100CE00041E00E948A170E94851460915C03709114
:100CF0005D0380915E030E94D72A0E94711F0E94AB
:100D0000CE2780E00E949E1E81E060E00E941429B0
:100D100083E062E00E94211E83E062E040E00E94E6
:100D20008A1780E061E00E94111580E00E94101691
:100D300082E091E160E00E94B5160E94F514CF9127
:100D4000DF9108950F931F93DF93CF93CDB7DEB755
:100D5000C855D0400FB6F894DEBF0FBECDBFCE0150
:100D6000875B9F4F61969FAF8EAF619782E793E05D
:100D700063969FAF8EAF639793E064969FAF64973F
:100D80006396EEADFFAD6397008063968EAD9FAD29
:100D90006397019663969FAF8EAF63976196EEADB2
:100DA000FFAD6197008261968EAD9FAD6197019610
:100DB00061969FAF8EAF619764969FAD6497915097
:100DC00064969FAF64976496EFAD6497EE23C1F687
:100DD000CE01845B9F4F66969FAF8EAF66978FE67E
:100DE00093E068969FAF8EAF689793E069969FAF48
:100DF00069976896EEADFFAD6897008068968EADF6
:100E00009FAD6897019668969FAF8EAF689766967C
:100E1000EEADFFAD6697008266968EAD9FAD66978C
:100E2000019666969FAF8EAF669769969FAD69975C
:100E3000915069969FAF69976996EFAD6997EE23D8
:100E4000C1F6FE01E85BFF4F10820E94A72280E6F8
:100E500090E00E942F2382E061E00E949D258BE6B6
:100E600090E00E942F23FE01ED5BFF4F80E090E0B9
:100E7000AAE7B4E480839183A283B3838E01015CEB
:100E80001F4FFE01ED5BFF4F608171818281938175
:100E900020E030E04AE755E40E941F02DC01CB016C
:100EA000F80180839183A283B383FE01FF96608162
:100EB00071818281938120E030E040E85FE30E940D
:100EC000250488232CF481E090E09EAF8DAF46C0CE
:100ED000FE01FF96608171818281938120E03FEF66
:100EE0004FE757E40E94C503181664F5FE01ED5B59
:100EF000FF4F608171818281938120E030E040E288
:100F000051E40E941F02DC01CB01BC01CD010E9413
:100F10004900DC01CB019EAF8DAF0FC080E991E0AD
:100F20009CAF8BAF8BAD9CAD0197F1F79CAF8BAFB6
:100F30008DAD9EAD01979EAF8DAF8DAD9EAD0097EF
:100F400069F7B1C1FE01FF96608171818281938151
:100F50000E944900DC01CB019EAF8DAF8DAD9EADEF
:100F60009AAF89AF89AD9AAD0197F1F79AAF89AF82
:100F70009AC10E94A72287E790E00E942F23CE010A
:100F8000875B9F4F63E00E94E6090E94A72281E8E9
:100F900090E00E942F23CE01845B9F4F63E00E946C
:100FA000E60980E090E0AAE7B4E48DAB9EABAFAB7E
:100FB000B8AF6DA97EA98FA998AD20E030E04AE7CF
:100FC00055E40E941F02DC01CB0189AB9AABABABAD
:100FD000BCAB69A97AA98BA99CA920E030E040E8C4
:100FE0005FE30E94250488232CF481E090E098AB15
:100FF0008FA73FC069A97AA98BA99CA920E03FEFE0
:101000004FE757E40E94C50318164CF56DA97EA959
:101010008FA998AD20E030E040E251E40E941F0229
:10102000DC01CB01BC01CD010E944900DC01CB01F8
:1010300098AB8FA70FC080E991E09EA78DA78DA5E3
:101040009EA50197F1F79EA78DA78FA598A9019757
:1010500098AB8FA78FA598A9009769F714C069A9C5
:101060007AA98BA99CA90E944900DC01CB0198AB0D
:101070008FA78FA598A99CA78BA78BA59CA5019747
:10108000F1F79CA78BA7CE01875B9F4F9E01245B46
:101090003F4FB9010E94990AFE01E95BFF4F80832F
:1010A000FE01E95BFF4F8081813009F07BC00E9427
:1010B000A7228DE890E00E942F2380E090E0AAE72D
:1010C000B4E48FA398A7A9A7BAA76FA178A589A50B
:1010D0009AA520E030E04AE755E40E941F02DC01B7
:1010E000CB018BA39CA3ADA3BEA36BA17CA18DA1BF
:1010F0009EA120E030E040E85FE30E9425048823C1
:101100002CF481E090E09AA389A33FC06BA17CA15D
:101110008DA19EA120E03FEF4FE757E40E94C50359
:1011200018164CF56FA178A589A59AA520E030E0A6
:1011300040E251E40E941F02DC01CB01BC01CD0161
:101140000E944900DC01CB019AA389A30FC080E96A
:1011500091E098A38F8F8F8D98A10197F1F798A3B5
:101160008F8F89A19AA101979AA389A389A19AA196
:10117000009769F714C06BA17CA18DA19EA10E946C
:101180004900DC01CB019AA389A389A19AA19E8F72
:101190008D8F8D8D9E8D0197F1F79E8F8D8F0E9483
:1011A0004F0C08C10E94A7228CE990E00E942F23D7
:1011B00080E090E0AAE7B4E4898F9A8FAB8FBC8F70
:1011C000698D7A8D8B8D9C8D20E030E04AE755E467
:1011D0000E941F02DC01CB018D8B9E8BAF8BB88FE1
:1011E0006D897E898F89988D20E030E040E85FE34B
:1011F0000E94250488232CF481E090E09C8B8B8B4B
:101200003FC06D897E898F89988D20E03FEF4FE741
:1012100057E40E94C50318164CF5698D7A8D8B8DA5
:101220009C8D20E030E040E251E40E941F02DC018E
:10123000CB01BC01CD010E944900DC01CB019C8B9C
:101240008B8B0FC080E991E09A8B898B89899A8971
:101250000197F1F79A8B898B8B899C8901979C8BDD
:101260008B8B8B899C89009769F714C06D897E8967
:101270008F89988D0E944900DC01CB019C8B8B8B60
:101280008B899C89988B8F878F8598890197F1F737
:10129000988B8F87DE01A85BBF4FFE01E85BFF4F95
:1012A00080818F5F8C93FE01E85BFF4F80818330EC
:1012B00008F45FCE0E94A7228CEA90E00E942F23C0
:1012C00060915C0370915D0380915E030E94302BFE
:1012D00080E090E0AAEFB4E48B879C87AD87BE875F
:1012E0006B857C858D859E8520E030E04AE755E45E
:1012F0000E941F02DC01CB018F839887A987BA87E0
:101300006F81788589859A8520E030E040E85FE349
:101310000E94250488232CF481E090E09E838D8335
:101320003FC06F81788589859A8520E03FEF4FE740
:1013300057E40E94C50318164CF56B857C858D8596
:101340009E8520E030E040E251E40E941F02DC0173
:10135000CB01BC01CD010E944900DC01CB019E8381
:101360008D830FC080E991E09C838B838B819C816E
:101370000197F1F79C838B838D819E8101979E83DA
:101380008D838D819E81009769F714C06F81788568
:1013900089859A850E944900DC01CB019E838D835B
:1013A0008D819E819A83898389819A810197F1F742
:1013B0009A838983C85ADF4F0FB6F894DEBF0FBEF9
:1013C000CDBFCF91DF911F910F910895DF93CF9300
:1013D000CDB7DEB763970FB6F894DEBF0FBECDBFB3
:1013E0009A8B898B6B8B1F8696C08FEF888BCE0173
:1013F00040960E94212880E090E0A8E4B2E48B8728
:101400009C87AD87BE876B857C858D859E8520E01A
:1014100030E04AE755E40E941F02DC01CB018F83D4
:101420009887A987BA876F81788589859A8520E012
:1014300030E040E85FE30E94250488232CF481E03B
:1014400090E09E838D833FC06F81788589859A85E2
:1014500020E03FEF4FE757E40E94C50318164CF514
:101460006B857C858D859E8520E030E040E251E4EF
:101470000E941F02DC01CB01BC01CD010E9449008A
:10148000DC01CB019E838D830FC080E991E09C83BA
:101490008B838B819C810197F1F79C838B838D815A
:1014A0009E8101979E838D838D819E81009769F730
:1014B00014C06F81788589859A850E944900DC0176
:1014C000CB019E838D838D819E819A8389838981BF
:1014D0009A810197F1F79A83898388898F3F09F46C
:1014E00086CF8889803388F088898A3370F48F8525
:1014F000282F30E089899A89FC01E20FF31F88893F
:1015000080838AE20E94662203C08F8581508F8784
:101510008F858F5F8F879F858B89981708F465CF9C
:1015200063960FB6F894DEBF0FBECDBFCF91DF91AB
:101530000895DF93CF93CDB7DEB72A970FB6F8940F
:10154000DEBF0FBECDBF98878F837A8769871E82E3
:10155000EF81F8858081282F30E084E690E0AC01AF
:10156000249FC001259F900D349F900D1124AC0144
:10157000405C52418F819885FC0131968081882F93
:1015800090E09C01220F331FC901880F991F880F1B
:10159000991F820F931F805E91409A01280F391F77
:1015A0008F819885FC0132968081882F90E0C097CA
:1015B000820F931F9D838C83E985FA858081282F74
:1015C00030E084E690E0AC01249FC001259F900D9F
:1015D000349F900D1124AC01405C524189859A855D
:1015E000FC0131968081882F90E09C01220F331FEF
:1015F000C901880F991F880F991F820F931F805E62
:1016000091409A01280F391F89859A85FC013296ED
:101610008081882F90E0C097820F931F9B838A83DD
:10162000198281E064E040E00E949B182EC08C810A
:101630009D81892F992760E070E00E94FD12882328
:1016400009F18C8160E070E00E94FD128823D1F0E6
:101650008A819B81892F992760E070E00E94FD12AA
:10166000882381F08A8160E070E00E94FD12882367
:1016700049F09E012A5F3F4F8FEFB9010E94FD1292
:10168000882331F489818F5F89838981833078F25F
:1016900081E064E041E00E949B188981833008F07A
:1016A0001E828E812A960FB6F894DEBF0FBECDBF84
:1016B000CF91DF910895DF93CF93CDB7DEB7289711
:1016C0000FB6F894DEBF0FBECDBF83E0FE013396A8
:1016D000DF01982F1D929A95E9F783E0FE01369677
:1016E000DF01982F1D929A95E9F71A828AEB90E014
:1016F0000E94221234C085ED90E00E942212CE0199
:10170000039663E00E94BF0B80EF90E00E942212DC
:10171000CE01069663E00E94BF0BCE0103969E01A8
:101720002A5F3F4FB9010E94990A898389818130DC
:1017300079F48CE091E00E9422120E94F90B289625
:101740000FB6F894DEBF0FBECDBFCF91DF910895E5
:1017500082E291E00E9422128A818F5F8A838A81CD
:10176000833048F28BE391E00E94221260915C0387
:1017700070915D0380915E030E94302BFFCFDF9359
:10178000CF9300D000D00F92CDB7DEB79C838B8370
:101790006D83198222C0CE0102960E9407128A81AF
:1017A000803388F08A818A3370F48981282F30E071
:1017B0008B819C81FC01E20FF31F8A8180838AE286
:1017C0000E94ED1107C08DE691E00E9422128981EE
:1017D0008150898389818F5F898399818D81981751
:1017E000D0F20F900F900F900F900F90CF91DF914C
:1017F0000895DF93CF9300D00F92CDB7DEB785E980
:1018000091E00E94221282EA91E00E94221284EB6F
:1018100091E00E9422128CEC91E00E94221287EE4D
:1018200091E00E94221281EF91E00E942212CE01EB
:1018300001960E9407128981282F30E03B832A837A
:101840008A819B8182339105C9F02A813B812333B0
:10185000310534F48A819B818133910561F014C094
:101860002A813B812333310561F08A819B81843356
:10187000910579F009C00E94AA0DC1CF0E94A60F60
:10188000BECF0E945B10BBCF87E092E00E94221285
:10189000B6CF0F900F900F90CF91DF910895DF9307
:1018A000CF93CDB7DEB76F970FB6F894DEBF0FBEFC
:1018B000CDBF0E94A7228BE292E00E942F2382E0FC
:1018C00061E00E949D2583E392E00E942F230E9405
:1018D000A72287E492E00E942F23CE014D960E941A
:1018E00021288D8D8F3FC9F38D8D282F30E03F8FBC
:1018F0002E8F8E8D9F8D82339105F9F02E8D3F8D29
:101900002333310534F48E8D9F8D8133910561F041
:101910009FC02E8D3F8D23333105C1F08E8D9F8D5D
:1019200084339105E1F094C00E94A72280E592E003
:101930000E942F230E94AA0DBCCF0E94A7228CE5F3
:1019400092E00E942F230E94A60FB3CF0E94A722ED
:101950008BE692E00E942F230E945B10AACF0E9488
:10196000A72286E792E00E942F2380E090E0AAE77A
:10197000B4E4898F9A8FAB8FBC8F698D7A8D8B8DF4
:101980009C8D20E030E04AE755E40E941F02DC0114
:10199000CB018D8B9E8BAF8BB88F6D897E898F89A4
:1019A000988D20E030E040E85FE30E942504882322
:1019B0002CF481E090E09C8B8B8B3FC06D897E89FD
:1019C0008F89988D20E03FEF4FE757E40E94C503D1
:1019D00018164CF5698D7A8D8B8D9C8D20E030E04A
:1019E00040E251E40E941F02DC01CB01BC01CD01A9
:1019F0000E944900DC01CB019C8B8B8B0FC080E9DE
:101A000091E09A8B898B89899A890197F1F79A8B52
:101A1000898B8B899C8901979C8B8B8B8B899C896B
:101A2000009769F78EC06D897E898F89988D0E9495
:101A30004900DC01CB019C8B8B8B8B899C89988B1B
:101A40008F878F8598890197F1F7988B8F8779C059
:101A50000E94A72286E892E00E942F2380E090E077
:101A6000AAE7B4E48B879C87AD87BE876B857C85AE
:101A70008D859E8520E030E04AE755E40E941F02F4
:101A8000DC01CB018F839887A987BA876F8178851E
:101A900089859A8520E030E040E85FE30E942504D4
:101AA00088232CF481E090E09E838D833FC06F817A
:101AB000788589859A8520E03FEF4FE757E40E94BB
:101AC000C50318164CF56B857C858D859E8520E0B9
:101AD00030E040E251E40E941F02DC01CB01BC0176
:101AE000CD010E944900DC01CB019E838D830FC094
:101AF00080E991E09C838B838B819C810197F1F736
:101B00009C838B838D819E8101979E838D838D81A4
:101B10009E81009769F7CDCE6F81788589859A85FA
:101B20000E944900DC01CB019E838D838D819E81C3
:101B30009A83898389819A810197F1F79A838983AE
:101B4000B8CE6F960FB6F894DEBF0FBECDBFCF9163
:101B5000DF910895DF93CF93CDB7DEB7E0970FB64F
:101B6000F894DEBF0FBECDBF1F8E18A219A21AA215
:101B70001D8E07C082E06D8D0E94F61E8D8D8F5FD9
:101B80008D8F8D8D8430B0F30E94A72286E992E07C
:101B90000E942F2382E061E00E949D2584EA92E06A
:101BA0000E942F23CE014E960E9421288E8D8F3FBA
:101BB000C9F38E8D282F30E038AB2FA78FA598A9B9
:101BC00082339105A1F12FA538A92333310564F49F
:101BD0008FA598A98332910509F4AFC12FA538A923
:101BE0002133310569F068C08FA598A98333910529
:101BF000A9F12FA538A92433310509F446C05CC0EA
:101C00008F8D1EA6882311F431E03EA78EA58F8FFD
:101C10008F8D882331F082E060E041E00E94071F51
:101C2000C3C082E060E041E00E94341FBDC088A1D3
:101C30001DA6882311F491E09DA72DA528A388A1B6
:101C4000882331F082E061E041E00E94071FACC0D0
:101C500082E061E041E00E94341FA6C089A11CA679
:101C6000882311F431E03CA78CA589A389A188239E
:101C700031F082E062E041E00E94071F95C082E0FF
:101C800062E041E00E94341F8FC08AA11BA6882316
:101C900011F491E09BA72BA52AA38AA1882331F0F8
:101CA00082E063E041E00E94071F7EC082E063E0C3
:101CB00041E00E94341F78C00E94A72282EB92E08C
:101CC0000E942F2380E090E0AAE7B4E4898F9A8FE6
:101CD000AB8FBC8F698D7A8D8B8D9C8D20E030E031
:101CE0004AE755E40E941F02DC01CB018D8B9E8BDD
:101CF000AF8BB88F6D897E898F89988D20E030E019
:101D000040E85FE30E94250488232CF481E090E002
:101D10009C8B8B8B3FC06D897E898F89988D20E04D
:101D20003FEF4FE757E40E94C50318164CF5698D45
:101D30007A8D8B8D9C8D20E030E040E251E40E9452
:101D40001F02DC01CB01BC01CD010E944900DC0176
:101D5000CB019C8B8B8B0FC080E991E09A8B898B98
:101D600089899A890197F1F79A8B898B8B899C894C
:101D700001979C8B8B8B8B899C89009769F714C08A
:101D80006D897E898F89988D0E944900DC01CB0185
:101D90009C8B8B8B8B899C89988B8F878F8598895F
:101DA0000197F1F7988B8F870E94A72281EC92E030
:101DB0000E942F238F8D882329F087EC92E09AA729
:101DC00089A704C02BEC32E03AA729A789A59AA5D8
:101DD0000E942F238FEC92E00E942F2388A188235A
:101DE00029F087EC92E098A78FA304C02BEC32E097
:101DF00038A72FA38FA198A50E942F2382E061E02E
:101E00000E949D2586ED92E00E942F2389A18823C0
:101E100029F087EC92E09EA38DA304C02BEC32E066
:101E20003EA32DA38DA19EA10E942F238CED92E0B5
:101E30000E942F238AA1882329F087EC92E09CA39B
:101E40008BA304C02BEC32E03CA32BA38BA19CA161
:101E50000E942F2380E090E0AAEFB3E48B879C8759
:101E6000AD87BE876B857C858D859E8520E030E0C3
:101E70004AE755E40E941F02DC01CB018F8398875B
:101E8000A987BA876F81788589859A8520E030E0B7
:101E900040E85FE30E94250488232CF481E090E071
:101EA0009E838D833FC06F81788589859A8520E0E8
:101EB0003FEF4FE757E40E94C50318164CF56B85BA
:101EC0007C858D859E8520E030E040E251E40E94D3
:101ED0001F02DC01CB01BC01CD010E944900DC01E5
:101EE000CB019E838D830FC080E991E09C838B831F
:101EF0008B819C810197F1F79C838B838D819E81DF
:101F000001979E838D838D819E81009769F73CCEDA
:101F10006F81788589859A850E944900DC01CB0113
:101F20009E838D838D819E819A83898389819A8105
:101F30000197F1F79A83898327CEE0960FB6F8943C
:101F4000DEBF0FBECDBFCF91DF910895DF93CF935A
:101F5000CDB7DEB761970FB6F894DEBF0FBECDBF29
:101F6000198A188A1F869E01205F3F4F81E0B901C0
:101F70000E94DB1D2889398984E690E0AC01249F0A
:101F8000C001259F900D349F900D11242FEF33E059
:101F9000B9010E94FD2CCB018F878F850E94A81468
:101FA00083E063E041E00E948A170E94A72283EE4B
:101FB00092E00E942F238F85882F90E0A0E0B0E070
:101FC000BC01CD010E9458238FEE92E00E942F2386
:101FD00080E090E0AAEFB3E48B879C87AD87BE8753
:101FE0006B857C858D859E8520E030E04AE755E451
:101FF0000E941F02DC01CB018F839887A987BA87D3
:102000006F81788589859A8520E030E040E85FE33C
:102010000E94250488232CF481E090E09E838D8328
:102020003FC06F81788589859A8520E03FEF4FE733
:1020300057E40E94C50318164CF56B857C858D8589
:102040009E8520E030E040E251E40E941F02DC0166
:10205000CB01BC01CD010E944900DC01CB019E8374
:102060008D830FC080E991E09C838B838B819C8161
:102070000197F1F79C838B838D819E8101979E83CD
:102080008D838D819E81009769F76DCF6F817885F3
:1020900089859A850E944900DC01CB019E838D834E
:1020A0008D819E819A83898389819A810197F1F735
:1020B0009A83898358CFDF93CF93CDB7DEB72F971D
:1020C0000FB6F894DEBF0FBECDBF9E01215F3F4F1C
:1020D00080E0B9010E94B01E81EF92E00E942F23A0
:1020E0008F85882F90E0A0E0B0E0BC01CD010E9478
:1020F00058238CEF92E00E942F2380E090E0AAEF1B
:10210000B4E48B879C87AD87BE876B857C858D8586
:102110009E8520E030E04AE755E40E941F02DC0182
:10212000CB018F839887A987BA876F817885898546
:102130009A8520E030E040E85FE30E942504882390
:102140002CF481E090E09E838D833FC06F81788581
:1021500089859A8520E03FEF4FE757E40E94C50349
:1021600018164CF56B857C858D859E8520E030E0CA
:1021700040E251E40E941F02DC01CB01BC01CD0111
:102180000E944900DC01CB019E838D830FC080E952
:1021900091E09C838B838B819C810197F1F79C83D9
:1021A0008B838D819E8101979E838D838D819E81FE
:1021B000009769F714C06F81788589859A850E9498
:1021C0004900DC01CB019E838D838D819E819A83A2
:1021D000898389819A810197F1F79A8389830E9483
:1021E000A7228F858D3128F080E060E00E9492293F
:1021F0006CCF8F85853108F068CF81E060E00E9468
:10220000842A63CFDF93CF93CDB7DEB72E970FB677
:10221000F894DEBF0FBECDBF80E090E0A8E4B2E44A
:102220008B879C87AD87BE876B857C858D859E85DA
:1022300020E030E04AE755E40E941F02DC01CB01B8
:102240008F839887A987BA876F81788589859A85D2
:1022500020E030E040E85FE30E94250488232CF46E
:1022600081E090E09E838D833FC06F817885898572
:102270009A8520E03FEF4FE757E40E94C503181608
:102280004CF56B857C858D859E8520E030E040E2B5
:1022900051E40E941F02DC01CB01BC01CD010E9470
:1022A0004900DC01CB019E838D830FC080E991E062
:1022B0009C838B838B819C810197F1F79C838B831B
:1022C0008D819E8101979E838D838D819E81009754
:1022D00069F714C06F81788589859A850E944900C5
:1022E000DC01CB019E838D838D819E819A838983BE
:1022F00089819A810197F1F79A8389838091880374
:102300008823E1F481E08093880360915C037091FD
:102310005D0380915E030E940E2B10928703109242
:10232000880381E080938903109286030E94A7228C
:102330008EEF92E00E942F230E94A2062E960FB6E7
:10234000F894DEBF0FBECDBFCF91DF910895DF932C
:10235000CF930F92CDB7DEB71982E9E2F0E087E6BE
:102360008083ABE2B0E0EBE2F0E080818D7F8C9384
:1023700089818068898389818F7B898389818F7D29
:10238000898389818F7E89838981877F8983AAE276
:10239000B0E0EAE2F0E080818B7F8C9389818460F9
:1023A000898389818260898389818E7F8983E0E442
:1023B000F0E089818083AAE2B0E0EAE2F0E0808187
:1023C00080618C93AAE2B0E0EAE2F0E0808188606C
:1023D0008C930F90CF91DF910895DF93CF930F925D
:1023E000CDB7DEB78983ECE2F0E089818083EBE250
:1023F000F0E08081829586958770882F90E08170CB
:1024000090700097A1F30F90CF91DF910895DF9323
:10241000CF9300D0CDB7DEB79A83898389819A8123
:10242000009759F0EBE2F0E080818823DCF7ECE2E2
:10243000F0E08081E981FA8180830F900F90CF9145
:10244000DF910895DF93CF9300D00F92CDB7DEB721
:102450009B838A838A819B810097D9F019820EC061
:102460008981282F30E08A819B81FC01E20FF31FD4
:1024700080810E94ED1189818F5F89838981282F56
:1024800030E08A819B81FC01E20FF31F8081882369
:1024900039F70F900F900F90CF91DF910895DF9350
:1024A000CF9300D00F92CDB7DEB79B838A838A810A
:1024B0009B81009711F119828981282F30E08A8150
:1024C0009B81820F931F0E9407128981282F30E081
:1024D0008A819B81FC01E20FF31F8081833221F00E
:1024E00089818F5F8983E8CF8981282F30E08A81B5
:1024F0009B81FC01E20FF31F10820F900F900F9051
:10250000CF91DF910895DF93CF93CDB7DEB7ADE2E2
:10251000B0E0EDE2F0E0808180618C93ADE2B0E06C
:10252000EDE2F0E0808181608C93ADE2B0E0EDE21D
:10253000F0E0808182608C93AEE2B0E0EEE2F0E009
:1025400080818E7F8C93ADE2B0E0EDE2F0E080819F
:1025500080628C93ADE2B0E0EDE2F0E080818860D3
:102560008C93ADE2B0E0EDE2F0E0808184608C938A
:10257000ADE2B0E0EDE2F0E0808180688C93ADE206
:10258000B0E0EDE2F0E0808180648C93CF91DF9148
:102590000895DF93CF930F92CDB7DEB78983EFE233
:1025A000F0E089818083EEE2F0E080818823DCF72F
:1025B0000F90CF91DF910895DF93CF9300D00F92CA
:1025C000CDB7DEB79B838A8381E089838A819B8133
:1025D000009761F0EEE2F0E080818823DCF7EFE223
:1025E000F0E08081EA81FB81808301C019820F9035
:1025F0000F900F90CF91DF910895DF93CF9300D08C
:1026000000D0CDB7DEB789837B836A838A819B81C3
:10261000009791F0EFE2F0E089818083EEE2F0E054
:1026200080818823DCF7EFE2F0E08081EA81FB81A2
:10263000808381E08C8301C01C828C810F900F907D
:102640000F900F90CF91DF910895DF93CF9300D03B
:102650000F92CDB7DEB79B838A838A819B810097D7
:10266000D9F019820EC08981282F30E08A819B81A0
:10267000FC01E20FF31F80810E94C91289818F5FE4
:1026800089838981282F30E08A819B81FC01E20FB8
:10269000F31F8081882339F70F900F900F90CF910F
:1026A000DF910895DF93CF9300D00F92CDB7DEB7BF
:1026B0009B838A838A819B81009711F1198289818A
:1026C000282F30E08A819B81820F931F0E94DC12A9
:1026D0008981282F30E08A819B81FC01E20FF31F62
:1026E0008081833221F089818F5F8983E8CF89815E
:1026F000282F30E08A819B81FC01E20FF31F1082BA
:102700000F900F900F90CF91DF910895DF93CF93AB
:1027100000D000D000D0CDB7DEB78A837C836B8336
:102720005E834D8381E0898380919203882379F5CC
:102730008B819C81009749F18D819E81009729F1C1
:1027400081E0809392038A81882F90E090938D039B
:1027500080938C038B819C8190938F0380938E0355
:102760008D819E819093910380939003EFE2F0E03E
:1027700080918C0390918D038083ADE2B0E0EDE217
:10278000F0E0808180688C9303C0198201C01982B7
:1027900026960FB6F894DEBF0FBECDBFCF91DF9166
:1027A00008951F920F920FB60F9211242F933F930B
:1027B0004F935F936F937F938F939F93AF93BF9349
:1027C000EF93FF93DF93CF93CDB7DEB7A0918E0346
:1027D000B0918F03EFE2F0E080818C93109292032E
:1027E000ADE2B0E0EDE2F0E080818F778C938091F4
:1027F000900390919103009729F0E0919003F0915C
:1028000091030995CF91DF91FF91EF91BF91AF9126
:102810009F918F917F916F915F914F913F912F91F8
:102820000F900FBE0F901F901895DF93CF93CDB7E9
:10283000DEB7A5E4B0E0E5E4F0E0808188608C9349
:10284000A5E4B0E0E5E4F0E0808180648C93A5E449
:10285000B0E0E5E4F0E0808180628C93A5E4B0E034
:10286000E5E4F0E080818F7E8C93CF91DF91089535
:10287000DF93CF930F92CDB7DEB7898389818536F9
:1028800078F4E3E4F0E08981882F90E0982F88279E
:1028900024E630E0B9010E94112DCB0181508083E4
:1028A000A5E4B0E0E5E4F0E0808184608C93A5E4E9
:1028B000B0E0E5E4F0E080818D7F8C93A5E4B0E0AA
:1028C000E5E4F0E080818E7F8C930F90CF91DF91D3
:1028D0000895DF93CF93CDB7DEB7A5E4B0E0E5E48C
:1028E000F0E080818B7F8C93A5E4B0E0E5E4F0E03C
:1028F00080818D7F8C93A5E4B0E0E5E4F0E08081F9
:102900008E7F8C93CF91DF910895DF93CF93CDB7D6
:10291000DEB7A3E5B0E0E3E5F0E0808180648C936E
:10292000A3E5B0E0E3E5F0E0808188608C93A3E567
:10293000B0E0E3E5F0E080818F7E8C93A3E5B0E02A
:10294000E3E5F0E0808180628C93CF91DF91089580
:10295000DF93CF930F92CDB7DEB789838981853618
:1029600078F4ECE5F0E08981882F90E0982F8827B3
:1029700024E630E0B9010E94112DCB018150808303
:10298000A3E5B0E0E3E5F0E0808181608C93A3E50E
:10299000B0E0E3E5F0E0808182608C93A3E5B0E0F5
:1029A000E3E5F0E080818B7F8C930F90CF91DF91F6
:1029B0000895DF93CF93CDB7DEB7A3E5B0E0E3E5AD
:1029C000F0E080818E7F8C93A3E5B0E0E3E5F0E05A
:1029D00080818D7F8C93A3E5B0E0E3E5F0E080811A
:1029E0008B7F8C93CF91DF910895DF93CF93CDB7F9
:1029F000DEB7AFE5B0E0EFE5F0E0808180688C9372
:102A0000CF91DF910895DF93CF93CDB7DEB7AFE5D8
:102A1000B0E0EFE5F0E080818F778C93CF91DF918C
:102A20000895DF93CF93CDB7DEB72A970FB6F8940A
:102A3000DEBF0FBECDBF89836A838981282F30E036
:102A40003A87298789859A858130910509F466C07E
:102A500029853A852230310509F4BBC089859A85DC
:102A6000009709F0D4C08A81282F30E038872F835F
:102A70008F8198858130910521F12F813885223011
:102A800031052CF48F819885009761F0C0C02F81AB
:102A900038852230310521F18F8198858330910569
:102AA00071F1B5C0A5E5B0E0E5E5F0E080818160B9
:102AB0008C93A5E5B0E0E5E5F0E0808182608C9341
:102AC000A6C0A5E5B0E0E5E5F0E080818E7F8C93BF
:102AD000A5E5B0E0E5E5F0E0808182608C9397C0E9
:102AE000A5E5B0E0E5E5F0E080818E7F8C93A5E57B
:102AF000B0E0E5E5F0E080818D7F8C9388C0A5E5AE
:102B0000B0E0E5E5F0E0808181608C93A5E5B0E080
:102B1000E5E5F0E080818D7F8C9379C08A81282F54
:102B200030E03E832D838D819E818130910521F19E
:102B30002D813E81223031052CF48D819E810097BC
:102B400061F065C02D813E812230310521F18D81FA
:102B50009E818330910571F15AC0A5E5B0E0E5E5AD
:102B6000F0E0808184608C93A5E5B0E0E5E5F0E0DD
:102B7000808188608C934BC0A5E5B0E0E5E5F0E08E
:102B800080818B7F8C93A5E5B0E0E5E5F0E0808166
:102B900088608C933CC0A5E5B0E0E5E5F0E080817D
:102BA0008B7F8C93A5E5B0E0E5E5F0E08081877F41
:102BB0008C932DC0A5E5B0E0E5E5F0E08081846070
:102BC0008C93A5E5B0E0E5E5F0E08081877F8C930C
:102BD0001EC08A81282F30E03C832B838B819C810F
:102BE000009731F02B813C812130310549F00FC035
:102BF000A4E5B0E0E4E5F0E0808180648C9307C058
:102C0000A4E5B0E0E4E5F0E080818F7B8C932A9628
:102C10000FB6F894DEBF0FBECDBFCF91DF91089500
:102C2000DF93CF9300D00F92CDB7DEB78983898130
:102C3000282F30E03B832A838A819B818130910554
:102C400089F02A813B8122303105A1F08A819B8164
:102C50000097B9F4ABE5B0E0EBE5F0E0808180648B
:102C60008C930FC0ABE5B0E0EBE5F0E080818068CD
:102C70008C9307C0ABE5B0E0EBE5F0E080818062CB
:102C80008C930F900F900F90CF91DF910895DF9369
:102C9000CF9300D00F92CDB7DEB789838981282FDB
:102CA00030E03B832A838A819B818130910589F0C2
:102CB0002A813B8122303105A1F08A819B810097D6
:102CC000B9F4ABE5B0E0EBE5F0E080818F7B8C936D
:102CD0000FC0ABE5B0E0EBE5F0E080818F778C933F
:102CE00007C0ABE5B0E0EBE5F0E080818F7D8C9331
:102CF0000F900F900F90CF91DF910895DF93CF93B6
:102D000000D00F92CDB7DEB789838981282F30E0BC
:102D10003B832A838A819B818130910589F02A81B6
:102D20003B8122303105A1F08A819B810097B9F463
:102D3000AAE5B0E0EAE5F0E0808180648C930FC002
:102D4000AAE5B0E0EAE5F0E0808180688C9307C0F6
:102D5000AAE5B0E0EAE5F0E0808180628C930F9014
:102D60000F900F90CF91DF910895DF93CF9300D014
:102D700000D00F92CDB7DEB79A8389836B838B81A6
:102D8000282F30E03D832C838C819D8181309105FB
:102D9000A1F02C813D8122303105D1F08C819D81C3
:102DA000009701F589819A810097E1F089819A81E4
:102DB000909394038093930315C089819A8100971F
:102DC00089F089819A8190939603809395030AC034
:102DD00089819A81009731F089819A819093980333
:102DE000809397030F900F900F900F900F90CF91BB
:102DF000DF9108951F920F920FB60F9211242F9317
:102E00003F934F935F936F937F938F939F93AF9372
:102E1000BF93EF93FF93DF93CF93CDB7DEB7E091EE
:102E20009303F0919403099580E00E947E16CF9160
:102E3000DF91FF91EF91BF91AF919F918F917F9122
:102E40006F915F914F913F912F910F900FBE0F9017
:102E50001F9018951F920F920FB60F9211242F9367
:102E60003F934F935F936F937F938F939F93AF9312
:102E7000BF93EF93FF93DF93CF93CDB7DEB7E0918E
:102E80009503F0919603099581E00E947E16CF91FB
:102E9000DF91FF91EF91BF91AF919F918F917F91C2
:102EA0006F915F914F913F912F910F900FBE0F90B7
:102EB0001F9018951F920F920FB60F9211242F9307
:102EC0003F934F935F936F937F938F939F93AF93B2
:102ED000BF93EF93FF93DF93CF93CDB7DEB7E0912E
:102EE0009703F0919803099582E00E947E16CF9196
:102EF000DF91FF91EF91BF91AF919F918F917F9162
:102F00006F915F914F913F912F910F900FBE0F9056
:102F10001F901895DF93CF93CDB7DEB728970FB6E4
:102F2000F894DEBF0FBECDBF8A836B834C8381E0F4
:102F300089838A81843008F0F2C08B81883008F060
:102F4000EEC08C81813009F06FC08A81282F30E07B
:102F500038872F838F8198858130910549F12F81A2
:102F60003885223031052CF48F819885009761F0E7
:102F7000D8C02F8138852230310571F18F81988535
:102F800083309105E9F1CDC0AAE3B0E0EAE3F0E0D7
:102F90008081482F8B81282F30E081E090E0022E45
:102FA00002C0880F991F0A94E2F7842B8C93B9C052
:102FB000A7E3B0E0E7E3F0E08081482F8B81282F82
:102FC00030E081E090E0022E02C0880F991F0A9441
:102FD000E2F7842B8C93A5C0A4E3B0E0E4E3F0E037
:102FE0008081482F8B81282F30E081E090E0022EF5
:102FF00002C0880F991F0A94E2F7842B8C9391C02A
:10300000A1E3B0E0E1E3F0E08081482F8B81282F3D
:1030100030E081E090E0022E02C0880F991F0A94F0
:10302000E2F7842B8C937DC08C81882309F074C0D7
:103030008A81282F30E03E832D838D819E818130CF
:10304000910559F12D813E81223031052CF48D817D
:103050009E81009769F065C02D813E812230310547
:1030600089F18D819E818330910509F440C059C05A
:10307000AAE3B0E0EAE3F0E08081482F8B81282FBB
:1030800030E081E090E0022E02C0880F991F0A9480
:10309000E2F7809584238C9344C0A7E3B0E0E7E394
:1030A000F0E08081482F8B81282F30E081E090E094
:1030B000022E02C0880F991F0A94E2F7809584239C
:1030C0008C932FC0A4E3B0E0E4E3F0E08081482FCC
:1030D0008B81282F30E081E090E0022E02C0880F23
:1030E000991F0A94E2F7809584238C931AC0A1E378
:1030F000B0E0E1E3F0E08081482F8B81282F30E0C1
:1031000081E090E0022E02C0880F991F0A94E2F736
:10311000809584238C9305C081E0898302C081E07F
:103120008983898128960FB6F894DEBF0FBECDBF84
:10313000CF91DF910895DF93CF93CDB7DEB72E9770
:103140000FB6F894DEBF0FBECDBF8A836B834C836E
:1031500081E089838A81843008F00EC18B818830B8
:1031600008F00AC18C81813021F08C81882309F01C
:1031700003C18A81282F30E03E872D878D859E856B
:103180008130910509F44FC02D853E8522303105EF
:103190002CF48D859E85009771F0ECC02D853E85C1
:1031A0002230310509F477C08D859E8583309105E5
:1031B00009F4A9C0DFC08C81282F30E03C872B8721
:1031C0008B859C850097D1F02B853C85213031057E
:1031D00009F0D3C0ABE3B0E0EBE3F0E08081482F2F
:1031E0008B81282F30E081E090E0022E02C0880F12
:1031F000991F0A94E2F7842B8C93BFC0ABE3B0E035
:10320000EBE3F0E08081482F8B81282F30E081E0D4
:1032100090E0022E02C0880F991F0A94E2F7809571
:1032200084238C93AAC08C81282F30E03A87298789
:1032300089859A850097D1F029853A852130310515
:1032400009F09BC0A8E3B0E0E8E3F0E08081482FFC
:103250008B81282F30E081E090E0022E02C0880FA1
:10326000991F0A94E2F7842B8C9387C0A8E3B0E0FF
:10327000E8E3F0E08081482F8B81282F30E081E067
:1032800090E0022E02C0880F991F0A94E2F7809501
:1032900084238C9372C08C81282F30E038872F8351
:1032A0008F8198850097D1F02F81388521303105A5
:1032B00009F063C0A5E3B0E0E5E3F0E08081482FCA
:1032C0008B81282F30E081E090E0022E02C0880F31
:1032D000991F0A94E2F7842B8C934FC0A5E3B0E0CA
:1032E000E5E3F0E08081482F8B81282F30E081E0FA
:1032F00090E0022E02C0880F991F0A94E2F7809591
:1033000084238C933AC08C81282F30E03E832D8318
:103310008D819E810097C9F02D813E81213031053C
:1033200061F5A2E3B0E0E2E3F0E08081482F8B8119
:10333000282F30E081E090E0022E02C0880F991F14
:103340000A94E2F7842B8C9318C0A2E3B0E0E2E386
:10335000F0E08081482F8B81282F30E081E090E0E1
:10336000022E02C0880F991F0A94E2F780958423E9
:103370008C9303C0198201C0198289812E960FB6E1
:10338000F894DEBF0FBECDBFCF91DF910895DF93DC
:10339000CF93CDB7DEB727970FB6F894DEBF0FBE39
:1033A000CDBF8A836B835D834C8381E089838A816F
:1033B000843008F077C08B81883008F073C08A8130
:1033C000282F30E03F832E834E815F8141305105AD
:1033D00059F18E819F818230910534F42E813F8195
:1033E0002115310569F05CC04E815F814230510585
:1033F00079F18E819F818330910509F43DC050C0E1
:10340000E9E3F0E08081282F30E08B81882F90E085
:10341000A90102C0559547958A95E2F7CA018170C6
:10342000EC81FD8180833FC0E6E3F0E08081282FBE
:1034300030E08B81882F90E0A90102C05595479517
:103440008A95E2F7CA018170EC81FD8180832BC0EF
:10345000E3E3F0E08081282F30E08B81882F90E03B
:10346000A90102C0559547958A95E2F7CA01817076
:10347000EC81FD81808317C0E0E3F0E08081282F9C
:1034800030E08B81882F90E0A90102C055954795C7
:103490008A95E2F7CA018170EC81FD81808303C0C7
:1034A000198201C01982898127960FB6F894DEBF70
:1034B0000FBECDBFCF91DF910895DF93CF9300D0A2
:1034C00000D00F92CDB7DEB78A836B8381E089830A
:1034D0008B81883008F071C08A81282F30E03D83CD
:1034E0002C838C819D818130910549F12C813D8116
:1034F000223031052CF48C819D81009761F05BC0F6
:103500002C813D812230310571F18C819D81833088
:103510009105E9F150C0ABE3B0E0EBE3F0E080816E
:10352000482F8B81282F30E081E090E0022E02C0EE
:10353000880F991F0A94E2F784278C933FC0A8E371
:10354000B0E0E8E3F0E08081482F8B81282F30E065
:1035500081E090E0022E02C0880F991F0A94E2F7E2
:1035600084278C932BC0A5E3B0E0E5E3F0E08081F5
:10357000482F8B81282F30E081E090E0022E02C09E
:10358000880F991F0A94E2F784278C9317C0A2E34F
:10359000B0E0E2E3F0E08081482F8B81282F30E01B
:1035A00081E090E0022E02C0880F991F0A94E2F792
:1035B00084278C9303C0198201C0198289810F90DE
:1035C0000F900F900F900F90CF91DF910895DF93A0
:1035D000CF93CDB7DEB72D970FB6F894DEBF0FBEF1
:1035E000CDBF8A836B8381E089838A81843008F030
:1035F00089C08B818F3F21F08B81882309F082C0A5
:103600008A81282F30E03D872C878C859D858130ED
:10361000910571F12C853D85223031052CF48C8586
:103620009D85009769F06CC02C853D852230310561
:10363000B9F18C859D858330910509F449C060C03E
:103640008B81282F30E03B872A878A859B850097CE
:1036500031F02A853B852F3F310529F054C0EAE33C
:10366000F0E0108250C0EAE3F0E08FEF80834BC0BF
:103670008B81282F30E039872887888599850097A6
:1036800031F0288539852F3F310529F03CC0E7E32B
:10369000F0E0108238C0E7E3F0E08FEF808333C0C2
:1036A0008B81282F30E03F832E838E819F8100976E
:1036B00031F02E813F812F3F310529F024C0E4E312
:1036C000F0E0108220C0E4E3F0E08FEF80831BC0C5
:1036D0008B81282F30E03D832C838C819D81009746
:1036E00031F02C813D812F3F310529F00CC0E1E301
:1036F000F0E0108208C0E1E3F0E08FEF808303C0C8
:10370000198201C0198289812D960FB6F894DEBF07
:103710000FBECDBFCF91DF910895DF93CF9300D03F
:1037200000D00F92CDB7DEB78A836B8381E08983A7
:103730008A818430A8F58A81282F30E03D832C834C
:103740008C819D8181309105D1F02C813D81223089
:1037500031052CF48C819D81009761F01FC02C8174
:103760003D812230310581F08C819D81833091052E
:1037700081F014C0EBE3F0E08B81808312C0E8E3BA
:10378000F0E08B8180830DC0E5E3F0E08B818083E6
:1037900008C0E2E3F0E08B81808303C0198201C09E
:1037A000198289810F900F900F900F900F90CF91F9
:1037B000DF910895DF93CF9300D000D000D0CDB734
:1037C000DEB78A837C836B8381E089838A8184303E
:1037D000E8F58A81282F30E03E832D838D819E81FC
:1037E00081309105E1F02D813E81223031052CF4AC
:1037F0008D819E81009761F027C02D813E8122300E
:103800003105A1F08D819E8183309105B1F01CC0FE
:10381000E9E3F0E08081EB81FC81808318C0E6E37E
:10382000F0E08081EB81FC81808311C0E3E3F0E074
:103830008081EB81FC8180830AC0E0E3F0E080813D
:10384000EB81FC81808303C0198201C019828981C8
:1038500026960FB6F894DEBF0FBECDBFCF91DF9195
:103860000895DF93CF9300D000D0CDB7DEB78A8321
:1038700081E089838A81843008F041C08A81282FC1
:1038800030E03C832B838B819C8181309105E9F072
:103890002B813C81223031052CF48B819C81009757
:1038A00061F02BC02B813C8122303105B1F08B813E
:1038B0009C8183309105C9F020C0ABE3B0E0EBE31D
:1038C000F0E0808180958C931BC0A8E3B0E0E8E332
:1038D000F0E0808180958C9313C0A5E3B0E0E5E330
:1038E000F0E0808180958C930BC0A2E3B0E0E2E32E
:1038F000F0E0808180958C9303C0198201C0198209
:1039000089810F900F900F900F90CF91DF910895C4
:10391000DF93CF9300D000D00F92CDB7DEB78A836C
:103920006B8381E089838A81843008F075C08B8144
:10393000883008F071C08A81282F30E03D832C83C5
:103940008C819D818130910549F12C813D8122300E
:1039500031052CF48C819D81009761F05BC02C8136
:103960003D812230310571F18C819D81833091053B
:10397000E9F150C0ABE3B0E0EBE3F0E08081482F29
:103980008B81282F30E081E090E0022E02C0880F6A
:10399000991F0A94E2F7842B8C933FC0A8E3B0E010
:1039A000E8E3F0E08081482F8B81282F30E081E030
:1039B00090E0022E02C0880F991F0A94E2F7842B30
:1039C0008C932BC0A5E3B0E0E5E3F0E08081482FC5
:1039D0008B81282F30E081E090E0022E02C0880F1A
:1039E000991F0A94E2F7842B8C9317C0A2E3B0E0EE
:1039F000E2E3F0E08081482F8B81282F30E081E0E6
:103A000090E0022E02C0880F991F0A94E2F7842BDF
:103A10008C9303C0198201C0198289810F900F9085
:103A20000F900F900F90CF91DF910895DF93CF9378
:103A300000D000D0CDB7DEB78A8381E089838A8148
:103A4000843098F58A81282F30E03C832B838B814A
:103A50009C8181309105D1F02B813C812230310550
:103A60002CF48B819C81009761F020C02B813C81DC
:103A70002230310581F08B819C818330910581F06A
:103A800015C0EBE3F0E08FEF808310C0E8E3F0E0D7
:103A90008FEF80830BC0E5E3F0E08FEF808306C0FB
:103AA000E2E3F0E08FEF808301C0198289810F90FB
:103AB0000F900F900F90CF91DF910895DF93CF93E8
:103AC00000D00F92CDB7DEB789838981282F30E0EF
:103AD0003B832A838A819B8181309105C1F02A81B1
:103AE0003B812230310511F18A819B81009761F57C
:103AF000A7E2B0E0E7E2F0E080818F778C93A7E265
:103B0000B0E0E7E2F0E0808180648C931DC0A7E222
:103B1000B0E0E7E2F0E080818F778C93A7E2B0E03D
:103B2000E7E2F0E080818F7B8C930EC0A7E2B0E0EB
:103B3000E7E2F0E0808180688C93A7E2B0E0E7E202
:103B4000F0E0808180648C93A7E2B0E0E7E2F0E0EF
:103B500080818F7D8C93A6E2B0E0E6E2F0E0808188
:103B60008F7D8C93A6E2B0E0E6E2F0E08081877F73
:103B70008C93A6E2B0E0E6E2F0E0808181608C9375
:103B8000A6E2B0E0E6E2F0E0808182608C93A6E2FB
:103B9000B0E0E6E2F0E0808184608C93A6E2B0E0E1
:103BA000E6E2F0E0808180688C930F900F900F9098
:103BB000CF91DF910895DF93CF9300D00F92CDB7CF
:103BC000DEB789837B836A838A819B81009799F121
:103BD0008981803280F5A7E2B0E0E7E2F0E0808101
:103BE000807E8C93A7E2B0E0E7E2F0E090818981EB
:103BF000892B8C93A6E2B0E0E6E2F0E0808180645D
:103C00008C93E6E2F0E0808182958F70882F90E0BF
:103C1000817090700097A9F3A6E2B0E0E6E2F0E0D0
:103C2000808180618C93E4E2F0E080819181EA817F
:103C3000FB81918380830F900F900F90CF91DF9144
:103C40000895DF93CF9300D0CDB7DEB789836A8321
:103C500089816A8140E00E948A170F900F90CF916E
:103C6000DF910895DF93CF93CDB7DEB72C970FB6D2
:103C7000F894DEBF0FBECDBF8A836B834C833E8337
:103C80002D838D819E81009709F44FC08C81282F50
:103C900030E03C872B878B859C858130910531F006
:103CA0002B853C852230310509F13FC08A816B812B
:103CB0009E012F5F3F4FA9010E94C7198981282FBC
:103CC00030E03A87298789859A85009751F02985C0
:103CD0003A852130310549F5ED81FE8181E080830F
:103CE00024C0ED81FE8182E080831FC08A816B81C8
:103CF0009E012F5F3F4FA9010E94C7198981282F7C
:103D000030E038872F838F819885009751F02F817D
:103D100038852130310549F4ED81FE8182E08083D0
:103D200004C0ED81FE8181E080832C960FB6F8946B
:103D3000DEBF0FBECDBFCF91DF910895DF93CF934C
:103D40000F92CDB7DEB7898380E0698140E00E94A1
:103D50008A1782E00E945E1D0F90CF91DF91089537
:103D6000DF93CF93CDB7DEB727970FB6F894DEBFBA
:103D70000FBECDBF8D837F836E838E819F81009721
:103D800061F19E012D5F3F4F8D81B9010E94DB1DC6
:103D90008B819C81CC01A0E0B0E020E03AE040E0E3
:103DA00050E0BC01CD010E94DE2CDC01CB01072ECE
:103DB0007AE0B695A795979587957A95D1F7702D66
:103DC0009A83898389819A812AE030E0B9010E942F
:103DD000FD2CCB01EE81FF81808327960FB6F894EE
:103DE000DEBF0FBECDBFCF91DF910895DF93CF939C
:103DF00000D0CDB7DEB789836A8389816A8141E0CB
:103E00000E948A170F900F90CF91DF910895DF9352
:103E1000CF9300D000D00F92CDB7DEB789836A83ED
:103E20004B838B81282F30E03D832C838C819D81B7
:103E30008130910531F02C813D812230310539F0FE
:103E40000BC089816A8141E00E949B1805C089816D
:103E50006A8140E00E949B180F900F900F900F9086
:103E60000F90CF91DF910895DF93CF9300D000D0D2
:103E70000F92CDB7DEB789836A834B838B81282F5E
:103E800030E03D832C838C819D818130910531F020
:103E90002C813D812230310539F00BC089816A8146
:103EA00040E00E949B1805C089816A8141E00E9420
:103EB0009B180F900F900F900F900F90CF91DF9164
:103EC0000895DF93CF9300D0CDB7DEB789836A839F
:103ED00089816A810E945D1A0F900F90CF91DF91C6
:103EE00008950F931F93DF93CF93CDB7DEB7CC54D4
:103EF000D0400FB6F894DEBF0FBECDBF81E061E0C9
:103F000041E00E948A1781E062E041E00E948A1746
:103F100083E064E041E00E948A1780E064E041E0D1
:103F20000E948A1780E065E041E00E948A1780E0E5
:103F300066E041E00E948A1780E067E041E00E946D
:103F40008A17FE01E75BFF4F80E090E0ACE0B2E44F
:103F500080839183A283B3838E010B5B1F4FFE018D
:103F6000E75BFF4F608171818281938120E030E0C7
:103F70004AE755E40E941F02DC01CB01F80180836F
:103F80009183A283B383FE01EB5BFF4F608171815C
:103F90008281938120E030E040E85FE30E942504C5
:103FA000882344F4FE01ED5BFF4F81E090E09183B4
:103FB000808364C0FE01EB5BFF4F60817181828171
:103FC000938120E03FEF4FE757E40E94C5031816A6
:103FD0000CF043C0FE01E75BFF4F6081718182817D
:103FE000938120E030E040E251E40E941F02DC01B6
:103FF000CB018E010D5B1F4FBC01CD010E9449001A
:10400000DC01CB01F801918380831FC0FE01EF5BCF
:10401000FF4F80E991E091838083FE01EF5BFF4FCA
:10402000808191810197F1F7FE01EF5BFF4F918352
:104030008083DE01AD5BBF4FFE01ED5BFF4F8081F2
:104040009181019711969C938E93FE01ED5BFF4F3A
:10405000808191810097D1F624C08E010D5B1F4FA6
:10406000FE01EB5BFF4F60817181828193810E9431
:104070004900DC01CB01F80191838083FE01ED5BF7
:10408000FF4F80819181FE01FF9691838083FE0125
:10409000FF96808191810197F1F7FE01FF96918350
:1040A000808381E061E040E00E949B1881E062E053
:1040B00040E00E949B1882E00E9475260E94CD2657
:1040C00088E20E94872280E090E0A4E3B2E48BAF14
:1040D0009CAFADAFBEAF6BAD7CAD8DAD9EAD2BEAF1
:1040E0003AEA4AEA50E40E941F02DC01CB018FAB9E
:1040F00098AFA9AFBAAF6FA978AD89AD9AAD20E0FE
:1041000030E040E85FE30E94250488231CF481E04E
:104110008EAB91C06FA978AD89AD9AAD20E030E04B
:104120004FE753E40E94C50318160CF07BC06BAD3B
:104130007CAD8DAD9EAD20E030E04AE754E40E94B6
:104140001903DC01CB018AAB9BABACABBDAB6AA95D
:104150007BA98CA99DA920E030E04AE755E40E94A4
:104160001F02DC01CB018EA79FA7A8ABB9AB6EA540
:104170007FA588A999A920E030E040E85FE30E948C
:10418000250488232CF481E090E09DA78CA73FC0F4
:104190006EA57FA588A999A920E03FEF4FE757E4D6
:1041A0000E94C50318164CF56AA97BA98CA99DA984
:1041B00020E030E040E251E40E941F02DC01CB012C
:1041C000BC01CD010E944900DC01CB019DA78CA759
:1041D0000FC080E991E09BA78AA78AA59BA50197BC
:1041E000F1F79BA78AA78CA59DA501979DA78CA7F2
:1041F0008CA59DA5009769F724C06EA57FA588A909
:1042000099A90E944900DC01CB019DA78CA78CA530
:104210009DA599A788A788A599A50197F1F799A7C2
:1042200088A70FC06FA978AD89AD9AAD0E944900EB
:10423000DC01CB018EAB8EA98FA38FA18A95F1F7FC
:104240008FA38FE00E94872280E090E0A4E3B2E495
:104250008BA39CA3ADA3BEA36BA17CA18DA19EA1AA
:104260002BEA3AEA4AEA50E40E941F02DC01CB0141
:104270008F8F98A3A9A3BAA36F8D78A189A19AA1C2
:1042800020E030E040E85FE30E94250488231CF42E
:1042900081E08E8F91C06F8D78A189A19AA120E0D5
:1042A00030E04FE753E40E94C50318160CF07BC0C2
:1042B0006BA17CA18DA19EA120E030E04AE754E4EF
:1042C0000E941903DC01CB018A8F9B8FAC8FBD8FBD
:1042D0006A8D7B8D8C8D9D8D20E030E04AE755E422
:1042E0000E941F02DC01CB018E8B9F8BA88FB98FA0
:1042F0006E897F89888D998D20E030E040E85FE30A
:104300000E94250488232CF481E090E09D8B8C8B07
:104310003FC06E897F89888D998D20E03FEF4FE700
:1043200057E40E94C50318164CF56A8D7B8D8C8D61
:104330009D8D20E030E040E251E40E941F02DC014C
:10434000CB01BC01CD010E944900DC01CB019D8B5A
:104350008C8B0FC080E991E09B8B8A8B8A899B892B
:104360000197F1F79B8B8A8B8C899D8901979D8B97
:104370008C8B8C899D89009769F724C06E897F8911
:10438000888D998D0E944900DC01CB019D8B8C8B1F
:104390008C899D89998B888B888999890197F1F7F8
:1043A000998B888B0FC06F8D78A189A19AA10E94EB
:1043B0004900DC01CB018E8F8E8D8F878F858A958A
:1043C000F1F78F8781E00E94872280E090E0A0E0F3
:1043D000B0E48B879C87AD87BE876B857C858D8598
:1043E0009E8520E030E04AE755E40E941F02DC0190
:1043F000CB018F839887A987BA876F817885898554
:104400009A8520E030E040E85FE30E94250488239D
:104410002CF481E090E09E838D833FC06F8178858E
:1044200089859A8520E03FEF4FE757E40E94C50356
:1044300018164CF56B857C858D859E8520E030E0D7
:1044400040E251E40E941F02DC01CB01BC01CD011E
:104450000E944900DC01CB019E838D830FC080E95F
:1044600091E09C838B838B819C810197F1F79C83E6
:104470008B838D819E8101979E838D838D819E810B
:10448000009769F714C06F81788589859A850E94A5
:104490004900DC01CB019E838D838D819E819A83AF
:1044A000898389819A810197F1F79A83898386E0CC
:1044B0000E948722C45BDF4F0FB6F894DEBF0FBEA9
:1044C000CDBFCF91DF911F910F910895DF93CF93CF
:1044D0000F92CDB7DEB7898381E061E041E00E94B1
:1044E0009B1881E062E040E00E949B1889818295E0
:1044F0008F700E9475260E94CD2689818F700E9440
:1045000075260E94CD260F90CF91DF910895DF93FD
:10451000CF930F92CDB7DEB7898381E061E040E0B1
:104520000E949B1881E062E040E00E949B18898114
:1045300082958F700E9475260E94CD2689810E94E7
:1045400075260E94CD260F90CF91DF910895DF93BD
:10455000CF93CDB7DEB72E970FB6F894DEBF0FBE60
:10456000CDBF81E00E94872280E090E0A0E0B0E42F
:104570008B879C87AD87BE876B857C858D859E8567
:1045800020E030E04AE755E40E941F02DC01CB0145
:104590008F839887A987BA876F81788589859A855F
:1045A00020E030E040E85FE30E94250488232CF4FB
:1045B00081E090E09E838D833FC06F8178858985FF
:1045C0009A8520E03FEF4FE757E40E94C503181695
:1045D0004CF56B857C858D859E8520E030E040E242
:1045E00051E40E941F02DC01CB01BC01CD010E94FD
:1045F0004900DC01CB019E838D830FC080E991E0EF
:104600009C838B838B819C810197F1F79C838B83A7
:104610008D819E8101979E838D838D819E810097E0
:1046200069F714C06F81788589859A850E94490051
:10463000DC01CB019E838D838D819E819A8389834A
:1046400089819A810197F1F79A8389832E960FB613
:10465000F894DEBF0FBECDBFCF91DF910895DF93F9
:10466000CF9300D00F92CDB7DEB79B838A83198298
:104670000EC08981282F30E08A819B81FC01E20FE6
:10468000F31F80810E94662289818F5F89838981DF
:10469000282F30E08A819B81FC01E20FF31F80818B
:1046A000882339F70F900F900F90CF91DF910895E5
:1046B000EF92FF920F931F93DF93CF93CDB7DEB7A7
:1046C00028970FB6F894DEBF0FBECDBF6D837E83F3
:1046D0008F83988781E090E0A0E0B0E089839A839F
:1046E000AB83BC838D819E81AF81B8850097A10586
:1046F000B105D1F580E30E9466226BC089819A8161
:10470000AB81BC812AE030E040E050E0BC01CD014B
:104710000E94DE2C7B018C018D819E81AF81B8854A
:104720002AE030E040E050E0BC01CD010E94242DA1
:10473000DC01CB018E0D9F1DA01FB11F89839A83C1
:10474000AB83BC838D819E81AF81B8852AE030E048
:1047500040E050E0BC01CD010E94242DDA01C901E6
:104760008D839E83AF83B8878D819E81AF81B8850D
:104770000097A105B10511F623C089819A81AB810B
:10478000BC812AE030E040E050E0BC01CD010E9455
:10479000242DDC01CB01805D0E94662289819A81F3
:1047A000AB81BC812AE030E040E050E0BC01CD01AB
:1047B0000E94242DDA01C90189839A83AB83BC83CB
:1047C00089819A81AB81BC8181309105A105B105B8
:1047D000A1F628960FB6F894DEBF0FBECDBFCF91DD
:1047E000DF911F910F91FF90EF900895DF93CF938A
:1047F000CDB7DEB7E3970FB6F894DEBF0FBECDBFDF
:1048000089AB89A9282F30E03BAB2AAB8AA99BA9A9
:10481000009739F02AA93BA92130310509F4C3C01A
:1048200083C188E10E94872280E090E0A4E3B2E4A3
:104830008DA79EA7AFA7B8AB6DA57EA58FA598A99C
:104840002BEA3AEA4AEA50E40E941F02DC01CB015B
:1048500089A79AA7ABA7BCA769A57AA58BA59CA594
:1048600020E030E040E85FE30E94250488231CF448
:1048700081E088A791C069A57AA58BA59CA520E0B9
:1048800030E04FE753E40E94C50318160CF07BC0DC
:104890006DA57EA58FA598A920E030E04AE754E4F5
:1048A0000E941903DC01CB018CA39DA3AEA3BFA37F
:1048B0006CA17DA18EA19FA120E030E04AE755E4E4
:1048C0000E941F02DC01CB0188A399A3AAA3BBA36A
:1048D00068A179A18AA19BA120E030E040E85FE3D4
:1048E0000E94250488232CF481E090E09F8F8E8F16
:1048F0003FC068A179A18AA19BA120E03FEF4FE7CB
:1049000057E40E94C50318164CF56CA17DA18EA139
:104910009FA120E030E040E251E40E941F02DC0150
:10492000CB01BC01CD010E944900DC01CB019F8F6E
:104930008E8F0FC080E991E09D8F8C8F8C8D9D8D27
:104940000197F1F79D8F8C8F8E8D9F8D01979F8F93
:104950008E8F8E8D9F8D009769F7E6C068A179A133
:104960008AA19BA10E944900DC01CB019F8F8E8F01
:104970008E8D9F8D9B8F8A8F8A8D9B8D0197F1F7EE
:104980009B8F8A8FD1C069A57AA58BA59CA50E9413
:104990004900DC01CB0188A788A5898F898D8A957C
:1049A000F1F7898FC1C08CE10E94872280E090E0FE
:1049B000A4E3B2E48D8B9E8BAF8BB88F6D897E891B
:1049C0008F89988D2BEA3AEA4AEA50E40E941F0246
:1049D000DC01CB01898B9A8BAB8BBC8B69897A8983
:1049E0008B899C8920E030E040E85FE30E94250449
:1049F00088231CF481E0888B91C069897A898B892E
:104A00009C8920E030E04FE753E40E94C50318166C
:104A10000CF07BC06D897E898F89988D20E030E015
:104A20004AE754E40E941903DC01CB018C879D877F
:104A3000AE87BF876C857D858E859F8520E030E0C1
:104A40004AE755E40E941F02DC01CB018887998761
:104A5000AA87BB87688579858A859B8520E030E0B9
:104A600040E85FE30E94250488232CF481E090E075
:104A70009F838E833FC0688579858A859B8520E0EA
:104A80003FEF4FE757E40E94C50318164CF56C85BD
:104A90007D858E859F8520E030E040E251E40E94D4
:104AA0001F02DC01CB01BC01CD010E944900DC01E9
:104AB000CB019F838E830FC080E991E09D838C831F
:104AC0008C819D810197F1F79D838C838E819F81DD
:104AD00001979F838E838E819F81009769F724C001
:104AE000688579858A859B850E944900DC01CB0118
:104AF0009F838E838E819F819B838A838A819B8102
:104B00000197F1F79B838A830FC069897A898B8922
:104B10009C890E944900DC01CB01888B88898983AC
:104B200089818A95F1F78983E3960FB6F894DEBF01
:104B30000FBECDBFCF91DF910895DF93CF93CDB757
:104B4000DEB760970FB6F894DEBF0FBECDBF8F877C
:104B5000688B8F85833048F48F85882331F088896E
:104B6000813118F48889882321F480E80E94872203
:104B70000FC08F85813029F4888980580E94872250
:104B800007C08F85823021F4888980540E94872253
:104B900080E090E0A0E8BFE38B879C87AD87BE876D
:104BA0006B857C858D859E8520E030E04AE755E465
:104BB0000E941F02DC01CB018F839887A987BA87E7
:104BC0006F81788589859A8520E030E040E85FE351
:104BD0000E94250488232CF481E090E09E838D833D
:104BE0003FC06F81788589859A8520E03FEF4FE748
:104BF00057E40E94C50318164CF56B857C858D859E
:104C00009E8520E030E040E251E40E941F02DC017A
:104C1000CB01BC01CD010E944900DC01CB019E8388
:104C20008D830FC080E991E09C838B838B819C8175
:104C30000197F1F79C838B838D819E8101979E83E1
:104C40008D838D819E81009769F714C06F8178856F
:104C500089859A850E944900DC01CB019E838D8362
:104C60008D819E819A83898389819A810197F1F749
:104C70009A83898360960FB6F894DEBF0FBECDBFCE
:104C8000CF91DF910895DF93CF9300D00F92CDB7EE
:104C9000DEB78A836B83198280E40E94872219829F
:104CA0000CC08981882F90E0FC01E15AFC4F808183
:104CB0000E94662289818F5F89838981803188F390
:104CC0008A816B810E949D25198206C089810E947C
:104CD000662289818F5F898389818830B8F30F903C
:104CE0000F900F90CF91DF910895DF93CF930F92A4
:104CF000CDB7DEB789838981882F90E0817090706D
:104D0000009731F480E064E040E00E949B1805C009
:104D100080E064E041E00E949B1889818695882F9D
:104D200090E081709070009731F480E065E040E0A1
:104D30000E949B1805C080E065E041E00E949B183E
:104D4000898186958695882F90E081709070009774
:104D500031F480E066E040E00E949B1805C080E0EE
:104D600066E041E00E949B1889818695869586952C
:104D7000882F90E081709070009731F480E067E0B8
:104D800040E00E949B1805C080E067E041E00E947F
:104D90009B180F90CF91DF910895DF93CF93CDB7FC
:104DA000DEB76C970FB6F894DEBF0FBECDBF83E0C1
:104DB00064E041E00E949B1880E090E0A0E8BFE33F
:104DC000898F9A8FAB8FBC8F698D7A8D8B8D9C8DDF
:104DD00020E030E04AE755E40E941F02DC01CB01ED
:104DE0008D8B9E8BAF8BB88F6D897E898F89988DC7
:104DF00020E030E040E85FE30E94250488232CF4A3
:104E000081E090E09C8B8B8B3FC06D897E898F8980
:104E1000988D20E03FEF4FE757E40E94C503181636
:104E20004CF5698D7A8D8B8D9C8D20E030E040E2D1
:104E300051E40E941F02DC01CB01BC01CD010E94A4
:104E40004900DC01CB019C8B8B8B0FC080E991E08A
:104E50009A8B898B89899A890197F1F79A8B898B2B
:104E60008B899C8901979C8B8B8B8B899C89009764
:104E700069F714C06D897E898F89988D0E944900D9
:104E8000DC01CB019C8B8B8B8B899C89988B8F87CA
:104E90008F8598890197F1F7988B8F8783E064E07D
:104EA00040E00E949B1880E090E0A0E8BFE38B8781
:104EB0009C87AD87BE876B857C858D859E8520E030
:104EC00030E04AE755E40E941F02DC01CB018F83EA
:104ED0009887A987BA876F81788589859A8520E028
:104EE00030E040E85FE30E94250488232CF481E051
:104EF00090E09E838D833FC06F81788589859A85F8
:104F000020E03FEF4FE757E40E94C50318164CF529
:104F10006B857C858D859E8520E030E040E251E404
:104F20000E941F02DC01CB01BC01CD010E9449009F
:104F3000DC01CB019E838D830FC080E991E09C83CF
:104F40008B838B819C810197F1F79C838B838D816F
:104F50009E8101979E838D838D819E81009769F745
:104F600014C06F81788589859A850E944900DC018B
:104F7000CB019E838D838D819E819A8389838981D4
:104F80009A810197F1F79A8389836C960FB6F8940A
:104F9000DEBF0FBECDBFCF91DF910895DF93CF93DA
:104FA000CDB7DEB782E064E040E00E948A1782E07D
:104FB00065E040E00E948A1782E066E040E00E94DF
:104FC0008A1782E067E040E00E948A1782E064E08E
:104FD0000E94881C82E065E00E94881C82E066E0F6
:104FE0000E94881C82E067E00E94881C83E060E0E9
:104FF00041E00E948A1783E061E041E00E948A1745
:1050000080E063E041E00E948A1780E062E041E0D6
:105010000E948A1783E060E041E00E949B1883E0D1
:1050200061E041E00E949B1880E063E041E00E9463
:105030009B1880E062E041E00E949B18CF91DF91D5
:105040000895DF93CF93CDB7DEB7AA970FB6F89444
:10505000DEBF0FBECDBF9DA38CA3ECA1FDA18081BF
:10506000882F90E0009709F4D6C083E08C8383E01A
:105070008D831E821F82188681E0898783E08A875C
:1050800082E08B8782E08C8782E08D8782E08E874A
:1050900082E08F8784E0888B85E0898B86E08A8B2D
:1050A00087E08B8BCE0144969FA38EA3E5E7F3E0C8
:1050B000F9A7E8A7F0E1FAA7E8A5F9A5008088A577
:1050C00099A5019699A788A7EEA1FFA100828EA1BC
:1050D0009FA101969FA38EA39AA591509AA7EAA596
:1050E000EE2351F7ECA1FDA18FEF80831A828FC0D0
:1050F0008A81282F30E0CE010496FC01E20FF31FD5
:1051000040818A81282F30E0CE010896FC01E20F11
:10511000F31F9081842F692F40E00E949B18198211
:1051200055C08981282F30E0CE010C96FC01E20F9A
:10513000F31F40818981282F30E0CE014096FC0189
:10514000E20FF31F90819E012D5F3F4F842F692F47
:10515000A9010E94C7198B818823A9F51AC08981EA
:10516000282F30E0CE010C96FC01E20FF31F4081A6
:105170008981282F30E0CE014096FC01E20FF31F19
:1051800090819E012D5F3F4F842F692FA9010E94BE
:10519000C7198B81882319F38981282F30E08A81F0
:1051A000482F50E0220F331F220F331FCE010196EC
:1051B000820F931F840F951FFC0173968081ECA1D1
:1051C000FDA1808307C089818F5F898389818430B5
:1051D00008F4A7CF8A81282F30E0CE010496FC0185
:1051E000E20FF31F40818A81282F30E0CE0108961C
:1051F000FC01E20FF31F9081842F692F41E00E9490
:105200009B188981843038F08A818F5F8A838A81F4
:10521000843008F46DCFAA960FB6F894DEBF0FBEA7
:10522000CDBFCF91DF910895DF93CF93CDB7DEB798
:1052300028970FB6F894DEBF0FBECDBF89836A836F
:105240008981282F30E038872F838F8198850097B8
:1052500031F02F8138852130310569F15AC08A81BA
:10526000282F30E03E832D838D819E81009731F081
:105270002D813E812130310561F015C083E066E06B
:1052800041E00E948A1783E067E041E00E948A17AC
:105290000AC082E061E041E00E948A1782E062E099
:1052A00041E00E948A1783E067E041E00E948A178C
:1052B0000E9415142EC08A81282F30E03C832B8356
:1052C0008B819C81009731F02B813C81213031050D
:1052D00089F01FC083E066E041E00E948A1783E006
:1052E00067E041E00E948A1783E065E041E00E94A8
:1052F0008A170FC082E061E041E00E948A1782E0D5
:1053000062E041E00E948A1783E064E041E00E948D
:105310008A1728960FB6F894DEBF0FBECDBFCF9187
:10532000DF910895DF93CF93CDB7DEB728970FB6FF
:10533000F894DEBF0FBECDBF89836A838A81282F90
:1053400030E038872F838F819885009731F02F8147
:1053500038852130310581F15DC08981282F30E009
:105360003E832D838D819E81009731F02D813E817A
:105370002130310589F04EC083E065E041E00E94B4
:105380009B1883E066E041E00E949B1883E067E0A1
:1053900040E00E949B183EC083E065E041E00E942F
:1053A0009B1883E066E040E00E949B1883E067E082
:1053B00041E00E949B182EC08981282F30E03C8359
:1053C0002B838B819C81009731F02B813C81213094
:1053D000310589F01FC083E064E041E00E949B1822
:1053E00082E061E041E00E949B1882E062E040E0E0
:1053F0000E949B180FC083E064E041E00E949B186C
:1054000082E061E040E00E949B1882E062E041E0BF
:105410000E949B1828960FB6F894DEBF0FBECDBF32
:10542000CF91DF910895DF93CF93CDB7DEB7299762
:105430000FB6F894DEBF0FBECDBF89836A834B835E
:105440008A81282F30E039872887888599850097B9
:1054500031F0288539852130310531F149C0898104
:10546000282F30E03F832E838E819F81009731F07B
:105470002E813F812130310561F03AC083E066E042
:1054800041E00E949B1883E067E040E00E949B1887
:105490002FC083E066E040E00E949B1883E067E055
:1054A00041E00E949B1824C08981282F30E03D8371
:1054B0002C838C819D81009731F02C813D8121309E
:1054C000310561F015C082E061E041E00E949B1867
:1054D00082E062E040E00E949B180AC082E061E046
:1054E00040E00E949B1882E062E041E00E949B182D
:1054F0008B810E94381429960FB6F894DEBF0FBE38
:10550000CDBFCF91DF910895DF93CF93CDB7DEB7B5
:1055100028970FB6F894DEBF0FBECDBF89836A838C
:105520008981282F30E038872F838F8198850097D5
:1055300031F02F81388521303105B1F02FC08A81BB
:10554000282F30E03E832D838D819E81009731F09E
:105550002D813E812130310521F020C00E94691447
:105560001DC00E9469141AC08A81282F30E03C8334
:105570002B838B819C81009731F02B813C812130E2
:10558000310539F00BC083E065E040E00E949B18D4
:1055900005C083E064E040E00E949B1828960FB6A7
:1055A000F894DEBF0FBECDBFCF91DF910895DF939A
:1055B000CF9300D00F92CDB7DEB769837A838B8308
:1055C00089819A81692F41E00E948A170F900F907C
:1055D0000F90CF91DF910895DF93CF9300D00F927A
:1055E000CDB7DEB769837A838B838B81813039F4C1
:1055F00089819A81692F41E00E949B1809C08B81A3
:10560000882331F489819A81692F40E00E949B1898
:105610000F900F900F90CF91DF910895DF93CF936C
:1056200000D00F92CDB7DEB769837A838B838B81ED
:10563000813039F489819A81692F40E00E949B185A
:1056400009C08B81882331F489819A81692F41E0D7
:105650000E949B180F900F900F90CF91DF910895AB
:10566000DF93CF9300D00F92CDB7DEB769837A83F3
:105670008B8389819A81692F0E945D1A0F900F9008
:105680000F90CF91DF910895DF93CF93CDB7DEB721
:10569000AB970FB6F894DEBF0FBECDBF0E944F068A
:1056A0000E94A7228CE093E00E942F2382E061E019
:1056B0000E949D2589E193E00E942F238FEF8BA705
:1056C000CE018B960E9421288BA58F3FC9F38BA515
:1056D000813309F07BC00E94A7228CE293E00E94F4
:1056E0002F2380E090E0AAE7B4E48FA398A7A9A7AE
:1056F000BAA76FA178A589A59AA520E030E04AE76E
:1057000055E40E941F02DC01CB018BA39CA3ADA337
:10571000BEA36BA17CA18DA19EA120E030E040E85A
:105720005FE30E94250488232CF481E090E09AA393
:1057300089A33FC06BA17CA18DA19EA120E03FEF7A
:105740004FE757E40E94C50318164CF56FA178A5E2
:1057500089A59AA520E030E040E251E40E941F02B2
:10576000DC01CB01BC01CD010E944900DC01CB0171
:105770009AA389A30FC080E991E098A38F8F8F8DA2
:1057800098A10197F1F798A38F8F89A19AA101970A
:105790009AA389A389A19AA1009769F714C06BA164
:1057A0007CA18DA19EA10E944900DC01CB019AA39E
:1057B00089A389A19AA19E8F8D8F8D8D9E8D019732
:1057C000F1F79E8F8D8F0E94A2066ACF8BA5823340
:1057D00009F07BC00E94A72288E393E00E942F2358
:1057E00080E090E0AAE7B4E4898F9A8FAB8FBC8FFA
:1057F000698D7A8D8B8D9C8D20E030E04AE755E4F1
:105800000E941F02DC01CB018D8B9E8BAF8BB88F6A
:105810006D897E898F89988D20E030E040E85FE3D4
:105820000E94250488232CF481E090E09C8B8B8BD4
:105830003FC06D897E898F89988D20E03FEF4FE7CB
:1058400057E40E94C50318164CF5698D7A8D8B8D2F
:105850009C8D20E030E040E251E40E941F02DC0118
:10586000CB01BC01CD010E944900DC01CB019C8B26
:105870008B8B0FC080E991E09A8B898B89899A89FB
:105880000197F1F79A8B898B8B899C8901979C8B67
:105890008B8B8B899C89009769F714C06D897E89F1
:1058A0008F89988D0E944900DC01CB019C8B8B8BEA
:1058B0008B899C89988B8F878F8598890197F1F7C1
:1058C000988B8F870E945B0BEBCE0E94A72285E40A
:1058D00093E00E942F2380E090E0AAE7B4E48B8756
:1058E0009C87AD87BE876B857C858D859E8520E0F6
:1058F00030E04AE755E40E941F02DC01CB018F83B0
:105900009887A987BA876F81788589859A8520E0ED
:1059100030E040E85FE30E94250488232CF481E016
:1059200090E09E838D833FC06F81788589859A85BD
:1059300020E03FEF4FE757E40E94C50318164CF5EF
:105940006B857C858D859E8520E030E040E251E4CA
:105950000E941F02DC01CB01BC01CD010E94490065
:10596000DC01CB019E838D830FC080E991E09C8395
:105970008B838B819C810197F1F79C838B838D8135
:105980009E8101979E838D838D819E81009769F70B
:1059900087CE6F81788589859A850E944900DC01D0
:1059A000CB019E838D838D819E819A83898389819A
:1059B0009A810197F1F79A83898372CE629FD00111
:1059C000739FF001829FE00DF11D649FE00DF11DBA
:1059D000929FF00D839FF00D749FF00D659FF00D69
:1059E0009927729FB00DE11DF91F639FB00DE11D56
:1059F000F91FBD01CF0111240895AA1BBB1B51E162
:105A000007C0AA1FBB1FA617B70710F0A61BB70B2E
:105A1000881F991F5A95A9F780959095BC01CD01D3
:105A2000089597FB092E07260AD077FD04D0E5DFFD
:105A300006D000201AF4709561957F4F0895F6F70F
:105A4000909581959F4F0895A1E21A2EAA1BBB1B2A
:105A5000FD010DC0AA1FBB1FEE1FFF1FA217B3073A
:105A6000E407F50720F0A21BB30BE40BF50B661F50
:105A7000771F881F991F1A9469F760957095809514
:105A800090959B01AC01BD01CF0108952F923F92EB
:105A90004F925F926F927F928F929F92AF92BF923E
:105AA000CF92DF92EF92FF920F931F93CF93DF93EA
:105AB000CDB7DEB7CA1BDB0B0FB6F894DEBF0FBE47
:105AC000CDBF09942A88398848885F846E847D8494
:105AD0008C849B84AA84B984C884DF80EE80FD8096
