:100000000C942A000C943F000C943F000C943F0089
:100010000C943F000C943F000C943F000C943F0064
:100020000C943F000C943F000C943F000C943F0054
:100030000C943F000C943F000C943F000C943F0044
:100040000C943F000C943F000C943F000C943F0034
:100050000C943F0011241FBECFE5D8E0DEBFCDBF1A
:1000600010E0A0E6B0E0E6E3F3E302C005900D92F5
:10007000A637B107D9F70E941F180C9499190C9450
:100080000000EF92FF920F931F937B018C0120E001
:1000900030E040E05FE40E94ED0388238CF0C8016B
:1000A000B70120E030E040E05FE40E94B9010E9427
:1000B0004D049B01AC01205030404040504806C0E8
:1000C000C801B7010E944D049B01AC01B901CA01EE
:1000D0001F910F91FF90EF900895A0E0B0E0E3E74B
:1000E000F0E00C946219DC012B01FA019C91923032
:1000F00008F439C1EB018881823008F433C19430AF
:1001000069F4843009F02FC111969C91119789816F
:10011000981709F428C1ADE6B0E025C1843009F490
:1001200021C18230A9F4923009F01DC19A01AD01BC
:1001300088E0EA010990AE01E90109929E0181502F
:10014000C1F7E201898111969C918923818308C1BD
:10015000923009F407C112962D903C901397EB0151
:100160008A819B811496AD90BD90CD90DC901797BD
:10017000EC80FD800E811F819101281B390BB90194
:1001800037FF04C066277727621B730B6032710547
:100190000CF061C0121613066CF537014801062EEB
:1001A00004C096948794779467940A94D2F721E0D8
:1001B00030E040E050E004C0220F331F441F551FC1
:1001C0006A95D2F721503040404050402E213F21C7
:1001D00040235123211531054105510521F021E02E
:1001E00030E040E050E079018A01E628F72808294C
:1001F00019293CC0232BD1F1260E371E35014601AB
:10020000062E04C096948794779467940A94D2F744
:1002100021E030E040E050E004C0220F331F441FD3
:10022000551F6A95D2F721503040404050402A2156
:100230003B214C215D21211531054105510521F05E
:1002400021E030E040E050E059016A01A628B728DB
:10025000C828D9280BC0821593052CF01C01AA24AC
:10026000BB24650103C0EE24FF24870111969C91F5
:10027000D20111968C91981709F445C0992339F051
:10028000A80197012A193B094C095D0906C0A6017E
:1002900095012E193F09400B510B57FD08C01182E3
:1002A0003382228224833583468357831DC081E0B5
:1002B00081833382228288279927DC01821B930B5A
:1002C000A40BB50B84839583A683B7830DC0220F3F
:1002D000331F441F551F24833583468357838281F0
:1002E000938101979383828324813581468157814D
:1002F000DA01C9010197A109B1098F5F9F4FAF4F83
:10030000BF4328F30BC0918333822282EA0CFB1C8B
:100310000C1D1D1DE482F5820683178383E0808314
:10032000248135814681578157FF1AC0C901AA2708
:1003300097FDA095BA2F81709070A070B0705695FF
:10034000479537952795822B932BA42BB52B848328
:100350009583A683B7838281938101969383828359
:10036000DF0101C0D201CD01CDB7DEB7E2E10C94CF
:100370007E19A0E2B0E0EFEBF1E00C946E19698316
:100380007A838B839C832D833E834F835887E9E058
:10039000EE2EF12CEC0EFD1ECE010196B7010E944F
:1003A00076058E010F5E1F4FCE010596B8010E94A3
:1003B00076058A8991E089278A8BC701B801AE0149
:1003C000475E5F4F0E946D000E94A104A096E6E088
:1003D0000C948A19A0E2B0E0E0EFF1E00C946E1901
:1003E00069837A838B839C832D833E834F835887D5
:1003F000F9E0EF2EF12CEC0EFD1ECE010196B701B7
:100400000E9476058E010F5E1F4FCE010596B80142
:100410000E947605C701B801AE01475E5F4F0E949A
:100420006D000E94A104A096E6E00C948A19A0E257
:10043000B0E0EDE1F2E00C94621969837A838B837A
:100440009C832D833E834F835887CE010196BE0146
:10045000675F7F4F0E947605CE010596BE016F5EF5
:100460007F4F0E9476059985923088F08989823085
:10047000C8F0943019F4823051F404C0843029F467
:10048000923081F48DE690E0C6C0923049F420E0CD
:100490009A858A89981321E02A87CE010996BBC0E4
:1004A000823049F420E09A858A89981321E02A8BCA
:1004B000CE014196B0C02D843E844F8458886D880B
:1004C0007E888F88988CEE24FF248701AA24BB2481
:1004D000650140E050E060E070E0E0E0F0E0C10184
:1004E00081709070892BE9F0E60CF71C081D191D2E
:1004F0009A01AB012A0D3B1D4C1D5D1D80E090E073
:10050000A0E0B0E0E614F7040805190520F481E046
:1005100090E0A0E0B0E0BA01A901480F591F6A1F9E
:100520007B1FAA0CBB1CCC1CDD1C97FE08C081E005
:1005300090E0A0E0B0E0A82AB92ACA2ADB2A3196C6
:10054000E032F10549F0660C771C881C991C569422
:10055000479437942794C3CFFA85EA892B893C893D
:100560008B859C85280F391F2E5F3F4F17C0CA010E
:1005700081709070892B61F016950795F794E79438
:1005800080E090E0A0E0B0E8E82AF92A0A2B1B2BD3
:1005900076956795579547952F5F3F4F77FDE7CF46
:1005A0000CC0440F551F661F771F17FD4160EE0CEE
:1005B000FF1C001F111F21503040403090E05907B0
:1005C00090E0690790E4790760F32B8F3C8FDB01A3
:1005D000CA018F779070A070B07080349105A1052A
:1005E000B10561F447FD0AC0E114F10401051105EC
:1005F00029F0405C5F4F6F4F7F4F40781A8EFE1797
:1006000011F081E08A8F4D8F5E8F6F8F78A383E02A
:10061000898FCE0149960E94A104A096E2E10C9434
:100620007E19A8E1B0E0E7E1F3E00C946A19698370
:100630007A838B839C832D833E834F835887B9E0D5
:10064000EB2EF12CEC0EFD1ECE010196B7010E949F
:1006500076058E010F5E1F4FCE010596B8010E94F0
:1006600076052985223008F47EC03989323010F4AD
:10067000B8017CC08A859A8989278A87243011F03D
:10068000223031F4231709F06EC06DE670E06EC0C1
:10069000343039F41D861E861F86188A1C861B86F8
:1006A00004C0323021F484E08987B7015FC02B8514
:1006B0003C858B899C89281B390B3C872B87ED84D3
:1006C000FE840F851889AD88BE88CF88D88CEA143F
:1006D000FB040C051D0540F4EE0CFF1C001F111F50
:1006E000215030403C872B8720E030E040E050E054
:1006F00080E090E0A0E0B0E460E070E0EA14FB0489
:100700000C051D0540F0282B392B4A2B5B2BEA18D2
:10071000FB080C091D09B695A79597958795EE0CD2
:10072000FF1C001F111F6F5F7F4F6F31710531F785
:10073000DA01C9018F779070A070B0708034910594
:10074000A105B10561F427FD0AC0E114F10401051A
:10075000110529F0205C3F4F4F4F5F4F20782D87C8
:100760003E874F87588BBE01675F7F4FCB010E944A
:10077000A1046896EAE00C948619A8E1B0E0E3ECE5
:10078000F3E00C946E1969837A838B839C832D83A9
:100790003E834F83588789E0E82EF12CEC0EFD1E36
:1007A000CE010196B7010E9476058E010F5E1F4FA4
:1007B000CE010596B8010E9476058985823040F009
:1007C0008989823028F0C701B8010E94EE0501C076
:1007D0008FEF6896E6E00C948A19A8E1B0E0E3EFA9
:1007E000F3E00C946E1969837A838B839C832D8349
:1007F0003E834F83588789E0E82EF12CEC0EFD1ED6
:10080000CE010196B7010E9476058E010F5E1F4F43
:10081000CE010596B8010E9476058985823040F0A8
:100820008989823028F0C701B8010E94EE0501C015
:100830008FEF6896E6E00C948A19A8E1B0E0E3E255
:10084000F4E00C946E1969837A838B839C832D83E7
:100850003E834F83588789E0E82EF12CEC0EFD1E75
:10086000CE010196B7010E9476058E010F5E1F4FE3
:10087000CE010596B8010E9476058985823040F048
:100880008989823028F0C701B8010E94EE0501C0B5
:1008900081E06896E6E00C948A19ACE0B0E0E3E50C
:1008A000F4E00C94721969837A838B839C83CE0164
:1008B0000196BE016B5F7F4F0E9476058D8182306D
:1008C00061F1823050F1843021F48E81882351F11E
:1008D0002EC02F81388537FD20C06E812F31310524
:1008E0001CF06623F9F023C08EE190E0821B930B8D
:1008F00029853A854B855C8504C056954795379583
:1009000027958A95D2F76623B1F05095409530959A
:1009100021953F4F4F4F5F4F0EC020E030E040E049
:1009200050E009C02FEF3FEF4FEF5FE704C020E03A
:1009300030E040E050E8B901CA012C96E2E00C94A6
:100940008E19DF92EF92FF920F931F93FC01E480C8
:10095000F58006811781D1808081823048F480E063
:1009600090E0A0E1B0E0E82AF92A0A2B1B2BA5C0F1
:10097000843009F49FC0823021F4EE24FF248701E3
:1009800005C0E114F1040105110519F4E0E0F0E0FF
:1009900096C0628173819FEF623879070CF05BC06B
:1009A00022E83FEF261B370B2A3131052CF020E0DF
:1009B00030E040E050E02AC0B801A701022E04C098
:1009C00076956795579547950A94D2F781E090E020
:1009D000A0E0B0E004C0880F991FAA1FBB1F2A9592
:1009E000D2F70197A109B1098E219F21A023B1233C
:1009F0000097A105B10521F081E090E0A0E0B0E012
:100A00009A01AB01282B392B4A2B5B2BDA01C90148
:100A10008F779070A070B07080349105A105B105FA
:100A200039F427FF09C0205C3F4F4F4F5F4F04C090
:100A3000215C3F4F4F4F5F4FE0E0F0E02030A0E0FF
:100A40003A07A0E04A07A0E45A0710F0E1E0F0E01E
:100A500079018A0127C06038710564F5FB01E1580E
:100A6000FF4FD801C7018F779070A070B0708034AD
:100A70009105A105B10539F4E7FE0DC080E490E0D1
:100A8000A0E0B0E004C08FE390E0A0E0B0E0E80EAA
:100A9000F91E0A1F1B1F17FF05C016950795F7942F
:100AA000E794319687E016950795F794E7948A9531
:100AB000D1F705C0EE24FF248701EFEFF0E06E2FA1
:100AC000679566276795902F9F77D794DD24D794F5
:100AD0008E2F8695492F462B582F5D29B701CA01C5
:100AE0001F910F91FF90EF90DF900895FC01DB01C3
:100AF000408151812281622F6F7770E0221F22276F
:100B0000221F9381892F880F822B282F30E0991F75
:100B10009927991F11969C93119721153105A9F5D5
:100B2000411551056105710511F482E037C082E875
:100B30009FEF13969C938E9312979A01AB0167E0F7
:100B4000220F331F441F551F6A95D1F783E08C9302
:100B50000DC0220F331F441F551F12968D919C917B
:100B60001397019713969C938E931297203080E0F1
:100B7000380780E0480780E4580758F314962D930F
:100B80003D934D935C93179708952F3F310579F46A
:100B9000411551056105710519F484E08C930895A0
:100BA00064FF03C081E08C9312C01C9210C02F57C9
:100BB000304013963C932E93129783E08C9387E0FA
:100BC000440F551F661F771F8A95D1F770641496DE
:100BD0004D935D936D937C93179708951F93DC015C
:100BE000FB019C91923008F447C08081823008F468
:100BF00043C0943051F411961C91843099F5818151
:100C0000682F70E0611B71093FC0843021F0923081
:100C100031F48230B9F18181882389F12DC0119698
:100C20001C9111978230F1F081811817D9F4129636
:100C30002D913C911397828193818217930794F0B1
:100C400028173907BCF014968D919D910D90BC9199
:100C5000A02D2481358146815781281739074A07FD
:100C60005B0718F4112341F00AC082179307A40709
:100C7000B50740F4112319F061E070E005C06FEF93
:100C80007FEF02C060E070E0CB011F910895DF9319
:100C9000CF9300D00F92CDB7DEB789838981282FFB
:100CA00030E03B832A838A819B8181309105C1F0AA
:100CB0002A813B812230310511F18A819B81009785
:100CC00061F5A7E2B0E0E7E2F0E080818F778C93F6
:100CD000A7E2B0E0E7E2F0E0808180648C931DC081
:100CE000A7E2B0E0E7E2F0E080818F778C93A7E2A3
:100CF000B0E0E7E2F0E080818F7B8C930EC0A7E24A
:100D0000B0E0E7E2F0E0808180688C93A7E2B0E099
:100D1000E7E2F0E0808180648C93A7E2B0E0E7E254
:100D2000F0E080818F7D8C93A6E2B0E0E6E2F0E017
:100D300080818F7D8C93A6E2B0E0E6E2F0E08081D6
:100D4000877F8C93A6E2B0E0E6E2F0E080818160EC
:100D50008C93A6E2B0E0E6E2F0E0808182608C93C2
:100D6000A6E2B0E0E6E2F0E0808184608C93A6E247
:100D7000B0E0E6E2F0E0808180688C930F900F9005
:100D80000F90CF91DF910895DF93CF9300D00F9212
:100D9000CDB7DEB789837B836A838A819B81009785
:100DA00099F18981803280F5A7E2B0E0E7E2F0E0D6
:100DB0008081807E8C93A7E2B0E0E7E2F0E0908152
:100DC0008981892B8C93A6E2B0E0E6E2F0E0808195
:100DD00080648C93E6E2F0E0808182958F70882FAA
:100DE00090E0817090700097A9F3A6E2B0E0E6E28F
:100DF000F0E0808180618C93E4E2F0E08081918179
:100E0000EA81FB81918380830F900F900F90CF91A7
:100E1000DF910895DF93CF93CDB7DEB728970FB654
:100E2000F894DEBF0FBECDBF89836A838981282FE6
:100E300030E038872F838F819885009731F02F819C
:100E400038852130310569F15AC08A81282F30E078
:100E50003E832D838D819E81009731F02D813E81CF
:100E60002130310561F015C082E063E041E00E946D
:100E7000CD0882E064E041E00E94CD080AC082E033
:100E800065E041E00E94CD0882E066E041E00E941A
:100E9000CD0883E067E041E00E94CD080E94AF17D3
:100EA0002EC08A81282F30E03C832B838B819C814C
:100EB000009731F02B813C812130310589F01FC032
:100EC00082E063E041E00E94CD0882E064E041E01E
:100ED0000E94CD0883E064E041E00E94CD080FC08D
:100EE00082E065E041E00E94CD0882E066E041E0FA
:100EF0000E94CD0883E065E041E00E94CD0828967D
:100F00000FB6F894DEBF0FBECDBFCF91DF9108952D
:100F1000DF93CF93CDB7DEB728970FB6F894DEBF37
:100F20000FBECDBF89836A838A81282F30E038873E
:100F30002F838F819885009731F02F81388521305C
:100F4000310581F15DC08981282F30E03E832D83FA
:100F50008D819E81009731F02D813E8121303105B8
:100F600089F04EC083E064E041E00E94DE0982E047
:100F700063E041E00E94DE0982E064E040E00E941C
:100F8000DE093EC083E064E041E00E94DE0982E0C9
:100F900063E040E00E94DE0982E064E041E00E94FC
:100FA000DE092EC08981282F30E03C832B838B8182
:100FB0009C81009731F02B813C812130310589F0F3
:100FC0001FC083E065E041E00E94DE0982E065E049
:100FD00041E00E94DE0982E066E040E00E94DE0916
:100FE0000FC083E065E041E00E94DE0982E065E039
:100FF00040E00E94DE0982E066E041E00E94DE09F6
:1010000028960FB6F894DEBF0FBECDBFCF91DF910B
:101010000895DF93CF93CDB7DEB729970FB6F89435
:10102000DEBF0FBECDBF89836A834B838A81282FA1
:1010300030E03987288788859985009731F02885A1
:1010400039852130310531F149C08981282F30E0BF
:101050003F832E838E819F81009731F02E813F81C7
:101060002130310561F03AC082E063E041E00E9446
:10107000DE0982E064E040E00E94DE092FC082E0E9
:1010800063E040E00E94DE0982E064E041E00E940B
:10109000DE0924C08981282F30E03D832C838C8198
:1010A0009D81009731F02C813D812130310561F027
:1010B00015C082E065E041E00E94DE0982E066E062
:1010C00040E00E94DE090AC082E065E040E00E9444
:1010D000DE0982E066E041E00E94DE098B810E9429
:1010E000D21729960FB6F894DEBF0FBECDBFCF91B1
:1010F000DF910895DF93CF93CDB7DEB728970FB672
:10110000F894DEBF0FBECDBF89836A838981282F03
:1011100030E038872F838F819885009731F02F81B9
:10112000388521303105B1F02FC08A81282F30E079
:101130003E832D838D819E81009731F02D813E81EC
:101140002130310521F020C00E9403181DC00E94EB
:1011500003181AC08A81282F30E03C832B838B81AF
:101160009C81009731F02B813C812130310539F091
:101170000BC083E064E040E00E94DE0905C083E02C
:1011800065E040E00E94DE0928960FB6F894DEBFC5
:101190000FBECDBFCF91DF910895DF93CF93CDB731
:1011A000DEB728970FB6F894DEBF0FBECDBF8A8397
:1011B0006B834C8381E089838A81843008F0F2C09C
:1011C0008B81883008F0EEC08C81813009F06FC0CF
:1011D0008A81282F30E038872F838F81988581304E
:1011E000910549F12F813885223031052CF48F810A
:1011F0009885009761F0D8C02F813885223031055D
:1012000071F18F81988583309105E9F1CDC0AAE312
:10121000B0E0EAE3F0E08081482F8B81282F30E0B6
:1012200081E090E0022E02C0880F991F0A94E2F735
:10123000842B8C93B9C0A7E3B0E0E7E3F0E08081B2
:10124000482F8B81282F30E081E090E0022E02C0F1
:10125000880F991F0A94E2F7842B8C93A5C0A4E30E
:10126000B0E0E4E3F0E08081482F8B81282F30E06C
:1012700081E090E0022E02C0880F991F0A94E2F7E5
:10128000842B8C9391C0A1E3B0E0E1E3F0E0808196
:10129000482F8B81282F30E081E090E0022E02C0A1
:1012A000880F991F0A94E2F7842B8C937DC08C8160
:1012B000882309F074C08A81282F30E03E832D8373
:1012C0008D819E818130910559F12D813E812230A1
:1012D00031052CF48D819E81009769F065C02D81C8
:1012E0003E812230310589F18D819E8183309105C7
:1012F00009F440C059C0AAE3B0E0EAE3F0E080811D
:10130000482F8B81282F30E081E090E0022E02C030
:10131000880F991F0A94E2F7809584238C9344C028
:10132000A7E3B0E0E7E3F0E08081482F8B81282F2E
:1013300030E081E090E0022E02C0880F991F0A94ED
:10134000E2F7809584238C932FC0A4E3B0E0E4E31C
:10135000F0E08081482F8B81282F30E081E090E001
:10136000022E02C0880F991F0A94E2F78095842309
:101370008C931AC0A1E3B0E0E1E3F0E08081482F54
:101380008B81282F30E081E090E0022E02C0880F90
:10139000991F0A94E2F7809584238C9305C081E01D
:1013A000898302C081E08983898128960FB6F894E9
:1013B000DEBF0FBECDBFCF91DF910895DF93CF93F6
:1013C000CDB7DEB72E970FB6F894DEBF0FBECDBFF8
:1013D0008A836B834C8381E089838A81843008F01F
:1013E0000EC18B81883008F00AC18C81813021F0D8
:1013F0008C81882309F003C18A81282F30E03E8741
:101400002D878D859E858130910509F44FC02D85EE
:101410003E85223031052CF48D859E85009771F034
:10142000ECC02D853E852230310509F477C08D85CD
:101430009E858330910509F4A9C0DFC08C81282FD7
:1014400030E03C872B878B859C850097D1F02B85DE
:101450003C852130310509F0D3C0ABE3B0E0EBE3CC
:10146000F0E08081482F8B81282F30E081E090E0F0
:10147000022E02C0880F991F0A94E2F7842B8C93E6
:10148000BFC0ABE3B0E0EBE3F0E08081482F8B819D
:10149000282F30E081E090E0022E02C0880F991FD3
:1014A0000A94E2F7809584238C93AAC08C81282F1C
:1014B00030E03A87298789859A850097D1F0298578
:1014C0003A852130310509F09BC0A8E3B0E0E8E39C
:1014D000F0E08081482F8B81282F30E081E090E080
:1014E000022E02C0880F991F0A94E2F7842B8C9376
:1014F00087C0A8E3B0E0E8E3F0E08081482F8B816B
:10150000282F30E081E090E0022E02C0880F991F62
:101510000A94E2F7809584238C9372C08C81282FE3
:1015200030E038872F838F8198850097D1F02F8105
:1015300038852130310509F063C0A5E3B0E0E5E36B
:10154000F0E08081482F8B81282F30E081E090E00F
:10155000022E02C0880F991F0A94E2F7842B8C9305
:101560004FC0A5E3B0E0E5E3F0E08081482F8B8138
:10157000282F30E081E090E0022E02C0880F991FF2
:101580000A94E2F7809584238C933AC08C81282FAB
:1015900030E03E832D838D819E810097C9F02D819F
:1015A0003E812130310561F5A2E3B0E0E2E3F0E0F5
:1015B0008081482F8B81282F30E081E090E0022E3F
:1015C00002C0880F991F0A94E2F7842B8C9318C0ED
:1015D000A2E3B0E0E2E3F0E08081482F8B81282F86
:1015E00030E081E090E0022E02C0880F991F0A943B
:1015F000E2F7809584238C9303C0198201C019827D
:1016000089812E960FB6F894DEBF0FBECDBFCF9165
:10161000DF910895DF93CF93CDB7DEB727970FB64D
:10162000F894DEBF0FBECDBF8A836B835D834C838E
:1016300081E089838A81843008F077C08B8188308B
:1016400008F073C08A81282F30E03F832E834E81BB
:101650005F814130510559F18E819F818230910522
:1016600034F42E813F812115310569F05CC04E8133
:101670005F814230510579F18E819F8183309105E0
:1016800009F43DC050C0E9E3F0E08081282F30E04C
:101690008B81882F90E0A90102C0559547958A95C6
:1016A000E2F7CA018170EC81FD8180833FC0E6E3EF
:1016B000F0E08081282F30E08B81882F90E0A90115
:1016C00002C0559547958A95E2F7CA018170EC8171
:1016D000FD8180832BC0E3E3F0E08081282F30E0A0
:1016E0008B81882F90E0A90102C0559547958A9576
:1016F000E2F7CA018170EC81FD81808317C0E0E3CD
:10170000F0E08081282F30E08B81882F90E0A901C4
:1017100002C0559547958A95E2F7CA018170EC8120
:10172000FD81808303C0198201C0198289812796B7
:101730000FB6F894DEBF0FBECDBFCF91DF910895F5
:10174000DF93CF9300D000D00F92CDB7DEB78A835E
:101750006B8381E089838B81883008F071C08A8136
:10176000282F30E03D832C838C819D818130910531
:1017700049F12C813D81223031052CF48C819D81F1
:10178000009761F05BC02C813D812230310571F101
:101790008C819D8183309105E9F150C0ABE3B0E0CD
:1017A000EBE3F0E08081482F8B81282F30E081E04F
:1017B00090E0022E02C0880F991F0A94E2F7842756
:1017C0008C933FC0A8E3B0E0E8E3F0E08081482FCD
:1017D0008B81282F30E081E090E0022E02C0880F3C
:1017E000991F0A94E2F784278C932BC0A5E3B0E0FD
:1017F000E5E3F0E08081482F8B81282F30E081E005
:1018000090E0022E02C0880F991F0A94E2F7842705
:101810008C9317C0A2E3B0E0E2E3F0E08081482FB0
:101820008B81282F30E081E090E0022E02C0880FEB
:10183000991F0A94E2F784278C9303C0198201C090
:10184000198289810F900F900F900F900F90CF9178
:10185000DF910895DF93CF93CDB7DEB72D970FB605
:10186000F894DEBF0FBECDBF8A836B8381E089838E
:101870008A81843008F089C08B818F3F21F08B8171
:10188000882309F082C08A81282F30E03D872C8789
:101890008C859D858130910571F12C853D852230A7
:1018A00031052CF48C859D85009769F06CC02C85E2
:1018B0003D8522303105B9F18C859D8583309105B8
:1018C00009F449C060C08B81282F30E03B872A870C
:1018D0008A859B85009731F02A853B852F3F31050E
:1018E00029F054C0EAE3F0E0108250C0EAE3F0E0EF
:1018F0008FEF80834BC08B81282F30E0398728877A
:1019000088859985009731F0288539852F3F3105E5
:1019100029F03CC0E7E3F0E0108238C0E7E3F0E0F4
:101920008FEF808333C08B81282F30E03F832E835D
:101930008E819F81009731F02E813F812F3F3105AD
:1019400029F024C0E4E3F0E0108220C0E4E3F0E0FA
:101950008FEF80831BC08B81282F30E03D832C8349
:101960008C819D81009731F02C813D812F3F310585
:1019700029F00CC0E1E3F0E0108208C0E1E3F0E000
:101980008FEF808303C0198201C0198289812D964F
:101990000FB6F894DEBF0FBECDBFCF91DF91089593
:1019A000DF93CF9300D000D00F92CDB7DEB78A83FC
:1019B0006B8381E089838A818430A8F58A81282F0E
:1019C00030E03D832C838C819D8181309105D1F065
:1019D0002C813D81223031052CF48C819D81009732
:1019E00061F01FC02C813D812230310581F08C8156
:1019F0009D818330910581F014C0EBE3F0E08B8191
:101A0000808312C0E8E3F0E08B8180830DC0E5E3C2
:101A1000F0E08B81808308C0E2E3F0E08B8180837B
:101A200003C0198201C0198289810F900F900F9015
:101A30000F900F90CF91DF910895DF93CF9300D057
:101A400000D000D0CDB7DEB78A837C836B8381E082
:101A500089838A818430E8F58A81282F30E03E83AB
:101A60002D838D819E8181309105E1F02D813E8114
:101A7000223031052CF48D819E81009761F027C0C2
:101A80002D813E8122303105A1F08D819E818330F0
:101A90009105B1F01CC0E9E3F0E08081EB81FC81AD
:101AA000808318C0E6E3F0E08081EB81FC818083D5
:101AB00011C0E3E3F0E08081EB81FC8180830AC008
:101AC000E0E3F0E08081EB81FC81808303C0198238
:101AD00001C01982898126960FB6F894DEBF0FBE29
:101AE000CDBFCF91DF910895DF93CF9300D000D089
:101AF000CDB7DEB78A8381E089838A81843008F09C
:101B000041C08A81282F30E03C832B838B819C81CC
:101B100081309105E9F02B813C81223031052CF494
:101B20008B819C81009761F02BC02B813C812230FE
:101B30003105B1F08B819C8183309105C9F020C0C3
:101B4000ABE3B0E0EBE3F0E0808180958C931BC0C9
:101B5000A8E3B0E0E8E3F0E0808180958C9313C0C7
:101B6000A5E3B0E0E5E3F0E0808180958C930BC0C5
:101B7000A2E3B0E0E2E3F0E0808180958C9303C0C3
:101B8000198201C0198289810F900F900F900F90D8
:101B9000CF91DF910895DF93CF9300D000D00F92C3
:101BA000CDB7DEB78A836B8381E089838A818430F5
:101BB00008F075C08B81883008F071C08A81282FA9
:101BC00030E03D832C838C819D818130910549F1EA
:101BD0002C813D81223031052CF48C819D81009730
:101BE00061F05BC02C813D812230310571F18C8127
:101BF0009D8183309105E9F150C0ABE3B0E0EBE3A8
:101C0000F0E08081482F8B81282F30E081E090E048
:101C1000022E02C0880F991F0A94E2F7842B8C933E
:101C20003FC0A8E3B0E0E8E3F0E08081482F8B817B
:101C3000282F30E081E090E0022E02C0880F991F2B
:101C40000A94E2F7842B8C932BC0A5E3B0E0E5E384
:101C5000F0E08081482F8B81282F30E081E090E0F8
:101C6000022E02C0880F991F0A94E2F7842B8C93EE
:101C700017C0A2E3B0E0E2E3F0E08081482F8B815F
:101C8000282F30E081E090E0022E02C0880F991FDB
:101C90000A94E2F7842B8C9303C0198201C0198245
:101CA00089810F900F900F900F900F90CF91DF913F
:101CB0000895DF93CF9300D000D0CDB7DEB78A83ED
:101CC00081E089838A81843098F58A81282F30E0E9
:101CD0003C832B838B819C8181309105D1F02B81BA
:101CE0003C81223031052CF48B819C81009761F07E
:101CF00020C02B813C812230310581F08B819C8179
:101D00008330910581F015C0EBE3F0E08FEF808325
:101D100010C0E8E3F0E08FEF80830BC0E5E3F0E074
:101D20008FEF808306C0E2E3F0E08FEF808301C095
:101D3000198289810F900F900F900F90CF91DF91B2
:101D40000895DF93CF93CDB7DEB7AFE5B0E0EFE511
:101D5000F0E0808180688C93CF91DF910895DF93CC
:101D6000CF93CDB7DEB7AFE5B0E0EFE5F0E080812F
:101D70008F778C93CF91DF9108950F931F93DF930B
:101D8000CF93CDB7DEB7CC54D0400FB6F894DEBFBA
:101D90000FBECDBF81E061E041E00E94CD0881E04F
:101DA00062E041E00E94CD0881E063E041E00E94F2
:101DB000CD0880E064E041E00E94CD0880E065E06D
:101DC00041E00E94CD0880E066E041E00E94CD083D
:101DD00080E067E041E00E94CD08FE01E75BFF4F35
:101DE00080E090E0ACE0B2E480839183A283B3838F
:101DF0008E010B5B1F4FFE01E75BFF4F608171811E
:101E00008281938120E030E04AE755E40E94170286
:101E1000DC01CB01F80180839183A283B383FE01AF
:101E2000EB5BFF4F608171818281938120E030E024
:101E300040E85FE30E941D04882344F4FE01ED5B4B
:101E4000FF4F81E090E09183808364C0FE01EB5BF3
:101E5000FF4F608171818281938120E03FEF4FE7E6
:101E600057E40E94BD0318160CF043C0FE01E75B67
:101E7000FF4F608171818281938120E030E040E2F8
:101E800051E40E941702DC01CB018E010D5B1F4F54
:101E9000BC01CD010E944100DC01CB01F80191831E
:101EA00080831FC0FE01EF5BFF4F80E991E09183CB
:101EB0008083FE01EF5BFF4F808191810197F1F7F5
:101EC000FE01EF5BFF4F91838083DE01AD5BBF4F6F
:101ED000FE01ED5BFF4F80819181019711969C93EC
:101EE0008E93FE01ED5BFF4F808191810097D1F6CB
:101EF00024C08E010D5B1F4FFE01EB5BFF4F608125
:101F00007181828193810E944100DC01CB01F80143
:101F100091838083FE01ED5BFF4F80819181FE0103
:101F2000FF9691838083FE01FF96808191810197C6
:101F3000F1F7FE01FF969183808381E061E040E04C
:101F40000E94DE0981E062E040E00E94DE0982E05A
:101F50000E94E8140E94E61588E20E94D21180E0F7
:101F600090E0A4E3B2E48BAF9CAFADAFBEAF6BAD7E
:101F70007CAD8DAD9EAD2BEA3AEA4AEA50E40E9470
:101F80001702DC01CB018FAB98AFA9AFBAAF6FA935
:101F900078AD89AD9AAD20E030E040E85FE30E9483
:101FA0001D0488231CF481E08EAB91C06FA978AD2D
:101FB00089AD9AAD20E030E04FE753E40E94BD03C5
:101FC00018160CF07BC06BAD7CAD8DAD9EAD20E0E6
:101FD00030E04AE754E40E941103DC01CB018AABF4
:101FE0009BABACABBDAB6AA97BA98CA99DA920E03A
:101FF00030E04AE755E40E941702DC01CB018EA7CE
:102000009FA7A8ABB9AB6EA57FA588A999A920E029
:1020100030E040E85FE30E941D0488232CF481E057
:1020200090E09DA78CA73FC06EA57FA588A999A920
:1020300020E03FEF4FE757E40E94BD0318164CF530
:102040006AA97BA98CA99DA920E030E040E251E477
:102050000E941702DC01CB01BC01CD010E944100AE
:10206000DC01CB019DA78CA70FC080E991E09BA765
:102070008AA78AA59BA50197F1F79BA78AA78CA59C
:102080009DA501979DA78CA78CA59DA5009769F795
:1020900024C06EA57FA588A999A90E944100DC01F2
:1020A000CB019DA78CA78CA59DA599A788A788A5DE
:1020B00099A50197F1F799A788A70FC06FA978ADE7
:1020C00089AD9AAD0E944100DC01CB018EAB8EA997
:1020D0008FA38FA18A95F1F78FA38FE00E94D21171
:1020E00080E090E0A4E3B2E48BA39CA3ADA3BEA3E5
:1020F0006BA17CA18DA19EA12BEA3AEA4AEA50E4A9
:102100000E941702DC01CB018F8F98A3A9A3BAA369
:102110006F8D78A189A19AA120E030E040E85FE3CB
:102120000E941D0488231CF481E08E8F91C06F8D66
:1021300078A189A19AA120E030E04FE753E40E9402
:10214000BD0318160CF07BC06BA17CA18DA19EA1D4
:1021500020E030E04AE754E40E941103DC01CB01A7
:102160008A8F9B8FAC8FBD8F6A8D7B8D8C8D9D8D63
:1021700020E030E04AE755E40E941702DC01CB0181
:102180008E8B9F8BA88FB98F6E897F89888D998D53
:1021900020E030E040E85FE30E941D0488232CF437
:1021A00081E090E09D8B8C8B3FC06E897F89888D0C
:1021B000998D20E03FEF4FE757E40E94BD031816CA
:1021C0004CF56A8D7B8D8C8D9D8D20E030E040E25A
:1021D00051E40E941702DC01CB01BC01CD010E9439
:1021E0004100DC01CB019D8B8C8B0FC080E991E01D
:1021F0009B8B8A8B8A899B890197F1F79B8B8A8BB2
:102200008C899D8901979D8B8C8B8C899D890097EA
:1022100069F724C06E897F89888D998D0E9441005D
:10222000DC01CB019D8B8C8B8C899D89998B888B54
:10223000888999890197F1F7998B888B0FC06F8DE9
:1022400078A189A19AA10E944100DC01CB018E8F67
:102250008E8D8F878F858A95F1F78F8781E00E9419
:10226000D21180E090E0A0E0B0E48B879C87AD873E
:10227000BE876B857C858D859E8520E030E04AE7B2
:1022800055E40E941702DC01CB018F839887A98750
:10229000BA876F81788589859A8520E030E040E8AB
:1022A0005FE30E941D0488232CF481E090E09E836C
:1022B0008D833FC06F81788589859A8520E03FEFC7
:1022C0004FE757E40E94BD0318164CF56B857C85DB
:1022D0008D859E8520E030E040E251E40E941702A7
:1022E000DC01CB01BC01CD010E944100DC01CB012E
:1022F0009E838D830FC080E991E09C838B838B81CB
:102300009C810197F1F79C838B838D819E8101973E
:102310009E838D838D819E81009769F714C06F81A4
:10232000788589859A850E944100DC01CB019E83D6
:102330008D838D819E819A83898389819A8101977A
:10234000F1F79A83898386E00E94D211C45BDF4F44
:102350000FB6F894DEBF0FBECDBFCF91DF911F91B6
:102360000F910895DF93CF930F92CDB7DEB7898396
:1023700081E061E041E00E94DE0981E062E040E04E
:102380000E94DE09898182958F700E94E8140E9464
:10239000E61589810E94E8140E94E6150F90CF91FE
:1023A000DF910895DF93CF930F92CDB7DEB7898386
:1023B00081E061E040E00E94DE0981E062E040E00F
:1023C0000E94DE09898182958F700E94E8140E9424
:1023D000E61589810E94E8140E94E6150F90CF91BE
:1023E000DF910895DF93CF93CDB7DEB72E970FB669
:1023F000F894DEBF0FBECDBF81E00E94D21180E015
:1024000090E0A0E0B0E48B879C87AD87BE876B85AA
:102410007C858D859E8520E030E04AE755E40E946A
:102420001702DC01CB018F839887A987BA876F8158
:10243000788589859A8520E030E040E85FE30E9456
:102440001D0488232CF481E090E09E838D833FC09F
:102450006F81788589859A8520E03FEF4FE757E4C3
:102460000E94BD0318164CF56B857C858D859E8575
:1024700020E030E040E251E40E941702DC01CB0191
:10248000BC01CD010E944100DC01CB019E838D8304
:102490000FC080E991E09C838B838B819C810197A5
:1024A000F1F79C838B838D819E8101979E838D8321
:1024B0008D819E81009769F714C06F817885898529
:1024C0009A850E944100DC01CB019E838D838D8122
:1024D0009E819A83898389819A810197F1F79A83F2
:1024E00089832E960FB6F894DEBF0FBECDBFCF9175
:1024F000DF910895DF93CF9300D00F92CDB7DEB771
:102500009B838A8319820EC08981282F30E08A81BB
:102510009B81FC01E20FF31F80810E94B21189812F
:102520008F5F89838981282F30E08A819B81FC011C
:10253000E20FF31F8081882339F70F900F900F90DF
:10254000CF91DF910895EF92FF920F931F93DF9346
:10255000CF93CDB7DEB728970FB6F894DEBF0FBE86
:10256000CDBF6D837E838F83988781E090E0A0E06C
:10257000B0E089839A83AB83BC838D819E81AF81D8
:10258000B8850097A105B105D1F580E30E94B2118D
:102590006BC089819A81AB81BC812AE030E040E048
:1025A00050E0BC01CD010E94FA187B018C018D81A5
:1025B0009E81AF81B8852AE030E040E050E0BC0168
:1025C000CD010E944019DC01CB018E0D9F1DA01F83
:1025D000B11F89839A83AB83BC838D819E81AF8138
:1025E000B8852AE030E040E050E0BC01CD010E9417
:1025F0004019DA01C9018D839E83AF83B8878D812D
:102600009E81AF81B8850097A105B10511F623C061
:1026100089819A81AB81BC812AE030E040E050E0C2
:10262000BC01CD010E944019DC01CB01805D0E94FC
:10263000B21189819A81AB81BC812AE030E040E00F
:1026400050E0BC01CD010E944019DA01C901898323
:102650009A83AB83BC8389819A81AB81BC818130B1
:102660009105A105B105A1F628960FB6F894DEBF35
:102670000FBECDBFCF91DF911F910F91FF90EF90D3
:102680000895DF93CF93CDB7DEB7E3970FB6F894F5
:10269000DEBF0FBECDBF89AB89A9282F30E03BAB91
:1026A0002AAB8AA99BA9009739F02AA93BA9213016
:1026B000310509F4C3C083C188E10E94D21180E0D2
:1026C00090E0A4E3B2E48DA79EA7AFA7B8AB6DA539
:1026D0007EA58FA598A92BEA3AEA4AEA50E40E941F
:1026E0001702DC01CB0189A79AA7ABA7BCA769A5F4
:1026F0007AA58BA59CA520E030E040E85FE30E942E
:102700001D0488231CF481E088A791C069A57AA5DF
:102710008BA59CA520E030E04FE753E40E94BD0369
:1027200018160CF07BC06DA57EA58FA598A920E09A
:1027300030E04AE754E40E941103DC01CB018CA392
:102740009DA3AEA3BFA36CA17DA18EA19FA120E0FC
:1027500030E04AE755E40E941702DC01CB0188A370
:1027600099A3AAA3BBA368A179A18AA19BA120E0F8
:1027700030E040E85FE30E941D0488232CF481E0F0
:1027800090E09F8F8E8F3FC068A179A18AA19BA105
:1027900020E03FEF4FE757E40E94BD0318164CF5C9
:1027A0006CA17DA18EA19FA120E030E040E251E428
:1027B0000E941702DC01CB01BC01CD010E94410047
:1027C000DC01CB019F8F8E8F0FC080E991E09D8F40
:1027D0008C8F8C8D9D8D0197F1F79D8F8C8F8E8DB9
:1027E0009F8D01979F8F8E8F8E8D9F8D009769F79C
:1027F000E6C068A179A18AA19BA10E944100DC01E9
:10280000CB019F8F8E8F8E8D9F8D9B8F8A8F8A8D10
:102810009B8D0197F1F79B8F8A8FD1C069A57AA50F
:102820008BA59CA50E944100DC01CB0188A788A54F
:10283000898F898D8A95F1F7898FC1C08CE10E94BB
:10284000D21180E090E0A4E3B2E48D8B9E8BAF8B3D
:10285000B88F6D897E898F89988D2BEA3AEA4AEA8A
:1028600050E40E941702DC01CB01898B9A8BAB8B61
:10287000BC8B69897A898B899C8920E030E040E8AB
:102880005FE30E941D0488231CF481E0888B91C0C3
:1028900069897A898B899C8920E030E04FE753E48D
:1028A0000E94BD0318160CF07BC06D897E898F894C
:1028B000988D20E030E04AE754E40E941103DC01E7
:1028C000CB018C879D87AE87BF876C857D858E8584
:1028D0009F8520E030E04AE755E40E941702DC01C2
:1028E000CB0188879987AA87BB87688579858A8580
:1028F0009B8520E030E040E85FE30E941D048823D0
:102900002CF481E090E09F838E833FC068857985B9
:102910008A859B8520E03FEF4FE757E40E94BD0387
:1029200018164CF56C857D858E859F8520E030E0FE
:1029300040E251E40E941702DC01CB01BC01CD0151
:102940000E944100DC01CB019F838E830FC080E990
:1029500091E09D838C838C819D810197F1F79D830C
:102960008C838E819F8101979F838E838E819F812F
:10297000009769F724C0688579858A859B850E94C0
:102980004100DC01CB019F838E838E819F819B83DD
:102990008A838A819B810197F1F79B838A830FC089
:1029A00069897A898B899C890E944100DC01CB016D
:1029B000888B8889898389818A95F1F78983E39651
:1029C0000FB6F894DEBF0FBECDBFCF91DF91089553
:1029D000DF93CF930F92CDB7DEB789838981882F9C
:1029E00090E081709070009731F480E064E040E006
:1029F0000E94DE0905C080E064E041E00E94DE093B
:102A000089818695882F90E081709070009731F4CD
:102A100080E065E040E00E94DE0905C080E065E0FE
:102A200041E00E94DE09898186958695882F90E095
:102A300081709070009731F480E066E040E00E9481
:102A4000DE0905C080E066E041E00E94DE09898180
:102A5000869586958695882F90E081709070009776
:102A600031F480E067E040E00E94DE0905C080E0CC
:102A700067E041E00E94DE090F90CF91DF91089559
:102A8000DF93CF93CDB7DEB761970FB6F894DEBF73
:102A90000FBECDBF888B698B8889833048F48889C5
:102AA000882331F08989813118F48989882319F4C0
:102AB00080E88F870DC08889813021F48989815809
:102AC0008F8706C08889823019F4898981548F875D
:102AD0008F850E94D21180E090E0A0E8BFE38B8751
:102AE0009C87AD87BE876B857C858D859E8520E024
:102AF00030E04AE755E40E941702DC01CB018F83E6
:102B00009887A987BA876F81788589859A8520E01B
:102B100030E040E85FE30E941D0488232CF481E04C
:102B200090E09E838D833FC06F81788589859A85EB
:102B300020E03FEF4FE757E40E94BD0318164CF525
:102B40006B857C858D859E8520E030E040E251E4F8
:102B50000E941702DC01CB01BC01CD010E944100A3
:102B6000DC01CB019E838D830FC080E991E09C83C3
:102B70008B838B819C810197F1F79C838B838D8163
:102B80009E8101979E838D838D819E81009769F739
:102B900014C06F81788589859A850E944100DC0187
:102BA000CB019E838D838D819E819A8389838981C8
:102BB0009A810197F1F79A83898361960FB6F89409
:102BC000DEBF0FBECDBFCF91DF910895DF93CF93CE
:102BD000CDB7DEB76C970FB6F894DEBF0FBECDBF92
:102BE00081E063E041E00E94DE0980E090E0A0E83F
:102BF000BFE3898F9A8FAB8FBC8F698D7A8D8B8D58
:102C00009C8D20E030E04AE755E40E941702DC0189
:102C1000CB018D8B9E8BAF8BB88F6D897E898F8911
:102C2000988D20E030E040E85FE30E941D04882397
:102C30002CF481E090E09C8B8B8B3FC06D897E896A
:102C40008F89988D20E03FEF4FE757E40E94BD0346
:102C500018164CF5698D7A8D8B8D9C8D20E030E0B7
:102C600040E251E40E941702DC01CB01BC01CD011E
:102C70000E944100DC01CB019C8B8B8B0FC080E953
:102C800091E09A8B898B89899A890197F1F79A8BC0
:102C9000898B8B899C8901979C8B8B8B8B899C89D9
:102CA000009769F714C06D897E898F89988D0E947D
:102CB0004100DC01CB019C8B8B8B8B899C89988B91
:102CC0008F878F8598890197F1F7988B8F8781E09F
:102CD00063E040E00E94DE0980E090E0A0E8BFE30E
:102CE0008B879C87AD87BE876B857C858D859E8510
:102CF00020E030E04AE755E40E941702DC01CB01F6
:102D00008F839887A987BA876F81788589859A8507
:102D100020E030E040E85FE30E941D0488232CF4AB
:102D200081E090E09E838D833FC06F8178858985A7
:102D30009A8520E03FEF4FE757E40E94BD03181645
:102D40004CF56B857C858D859E8520E030E040E2EA
:102D500051E40E941702DC01CB01BC01CD010E94AD
:102D60004100DC01CB019E838D830FC080E991E09F
:102D70009C838B838B819C810197F1F79C838B8350
:102D80008D819E8101979E838D838D819E81009789
:102D900069F714C06F81788589859A850E94410002
:102DA000DC01CB019E838D838D819E819A838983F3
:102DB00089819A810197F1F79A8389836C960FB67E
:102DC000F894DEBF0FBECDBFCF91DF910895DF93A2
:102DD000CF930F92CDB7DEB7898380E0698140E061
:102DE0000E94CD0882E00E9447060F90CF91DF91AC
:102DF0000895DF93CF93CDB7DEB727970FB6F8943A
:102E0000DEBF0FBECDBF8D837F836E838E819F819A
:102E1000009761F19E012D5F3F4F8D81B9010E94A6
:102E2000C4068B819C81CC01A0E0B0E020E03AE0B8
:102E300040E050E0BC01CD010E94FA18DC01CB015A
:102E4000072E7AE0B695A795979587957A95D1F74D
:102E5000702D9A83898389819A812AE030E0B901B3
:102E60000E941919CB01EE81FF81808327960FB64E
:102E7000F894DEBF0FBECDBFCF91DF910895DF93F1
:102E8000CF93CDB7DEB7A3E5B0E0E3E5F0E0808116
:102E900080648C93A3E5B0E0E3E5F0E08081886096
:102EA0008C93A3E5B0E0E3E5F0E080818F7E8C9326
:102EB000A3E5B0E0E3E5F0E0808180628C93CF9100
:102EC000DF910895DF93CF930F92CDB7DEB789835B
:102ED0008981853678F4ECE5F0E08981882F90E0EF
:102EE000982F882724E630E0B9010E942D19CB01E4
:102EF00081508083A3E5B0E0E3E5F0E0808181606C
:102F00008C93A3E5B0E0E3E5F0E0808182608C93F0
:102F1000A3E5B0E0E3E5F0E080818B7F8C930F9038
:102F2000CF91DF910895DF93CF93CDB7DEB7A3E5BF
:102F3000B0E0E3E5F0E080818E7F8C93A3E5B0E024
:102F4000E3E5F0E080818D7F8C93A3E5B0E0E3E5DD
:102F5000F0E080818B7F8C93CF91DF910895DF9398
:102F6000CF93CDB7DEB7A5E4B0E0E5E4F0E0808133
:102F700088608C93A5E4B0E0E5E4F0E080818064B3
:102F80008C93A5E4B0E0E5E4F0E0808180628C936E
:102F9000A5E4B0E0E5E4F0E080818F7E8C93CF91F2
:102FA000DF910895DF93CF930F92CDB7DEB789837A
:102FB0008981853678F4E3E4F0E08981882F90E018
:102FC000982F882724E630E0B9010E942D19CB0103
:102FD00081508083A5E4B0E0E5E4F0E08081846086
:102FE0008C93A5E4B0E0E5E4F0E080818D7F8C93E4
:102FF000A5E4B0E0E5E4F0E080818E7F8C930F9053
:10300000CF91DF910895DF93CF93CDB7DEB7A5E4DD
:10301000B0E0E5E4F0E080818B7F8C93A5E4B0E044
:10302000E5E4F0E080818D7F8C93A5E4B0E0E5E4F9
:10303000F0E080818E7F8C93CF91DF910895DF93B4
:10304000CF93CDB7DEB72F970FB6F894DEBF0FBE84
:10305000CDBF0E94BD0E80E00E94E71680E060E0D8
:103060000E940A079E01215F3F4F80E0B9010E9444
:10307000F91680E690E00E947A128F85882F90E002
:10308000A0E0B0E0BC01CD010E94A3128BE690E06D
:103090000E947A1280E090E0AAEFB4E48B879C87CC
:1030A000AD87BE876B857C858D859E8520E030E071
:1030B0004AE755E40E941702DC01CB018F83988711
:1030C000A987BA876F81788589859A8520E030E065
:1030D00040E85FE30E941D0488232CF481E090E027
:1030E0009E838D833FC06F81788589859A8520E096
:1030F0003FEF4FE757E40E94BD0318164CF56B8570
:103100007C858D859E8520E030E040E251E40E9480
:103110001702DC01CB01BC01CD010E944100DC01A2
:10312000CB019E838D830FC080E991E09C838B83CC
:103130008B819C810197F1F79C838B838D819E818C
:1031400001979E838D838D819E81009769F714C0BE
:103150006F81788589859A850E944100DC01CB01C9
:103160009E838D838D819E819A83898389819A81B3
:103170000197F1F79A8389830E94F2118F85843138
:1031800028F480E060E00E947A082BC08F858431AB
:1031900048F08F85893130F480E060E042E30E949E
:1031A00009081FC08F85893148F08F858E3130F432
:1031B00080E060E04BE40E94090813C08F858E31E7
:1031C00048F08F85833230F480E060E045E50E946E
:1031D000090807C08F85833220F080E060E00E94FC
:1031E000880781E061E00E940A0780E061E00E94B8
:1031F000880738CF629FD001739FF001829FE00D56
:10320000F11D649FE00DF11D929FF00D839FF00D65
:10321000749FF00D659FF00D9927729FB00DE11D11
:10322000F91F639FB00DE11DF91FBD01CF011124EE
:103230000895AA1BBB1B51E107C0AA1FBB1FA617FD
:10324000B70710F0A61BB70B881F991F5A95A9F74F
:1032500080959095BC01CD01089597FB092E072616
:103260000AD077FD04D0E5DF06D000201AF470956F
:1032700061957F4F0895F6F7909581959F4F08953A
:10328000A1E21A2EAA1BBB1BFD010DC0AA1FBB1F6A
:10329000EE1FFF1FA217B307E407F50720F0A21BDC
:1032A000B30BE40BF50B661F771F881F991F1A9449
:1032B00069F760957095809590959B01AC01BD0173
:1032C000CF0108952F923F924F925F926F927F921B
:1032D0008F929F92AF92BF92CF92DF92EF92FF9226
:1032E0000F931F93CF93DF93CDB7DEB7CA1BDB0BD2
:1032F0000FB6F894DEBF0FBECDBF09942A88398877
:1033000048885F846E847D848C849B84AA84B9847D
:10331000C884DF80EE80FD800C811B81AA81B98189
:10332000CE0FD11D0FB6F894DEBF0FBECDBFED019D
:063330000895F894FFCFA0
:1033360054656D70206973203A2000430000000038
:0633460000000000000081
:00000001FF
