:100000000C942A000C94600E0C94900E0C94C00E6C
:100010000C9447000C9447000C9447000C94470044
:100020000C9447000C9447000C9447000C94470034
:100030000C94420B0C9447000C9447000C9447001E
:100040000C9447000C9447000C9447000C94470014
:100050000C94470011241FBECFE5D8E0DEBFCDBF12
:1000600017E0A0E6B0E0E0E0F3E502C005900D92F5
:10007000A038B107D9F717E0A0E8B7E001C01D929A
:10008000A439B107E1F70E94FD280C947E290C9455
:100090000000EF92FF920F931F937B018C0120E0F1
:1000A00030E040E05FE40E94F50388238CF0C80153
:1000B000B70120E030E040E05FE40E94C1010E940F
:1000C000E3049B01AC01205030404040504806C042
:1000D000C801B7010E94E3049B01AC01B901CA0148
:1000E0001F910F91FF90EF900895A0E0B0E0EBE733
:1000F000F0E00C944729DC012B01FA019C9192302D
:1001000008F439C1EB018881823008F433C194309E
:1001100069F4843009F02FC111969C91119789815F
:10012000981709F428C1A5E5B6E025C1843009F483
:1001300021C18230A9F4923009F01DC19A01AD01AC
:1001400088E0EA010990AE01E90109929E0181501F
:10015000C1F7E201898111969C918923818308C1AD
:10016000923009F407C112962D903C901397EB0141
:100170008A819B811496AD90BD90CD90DC901797AD
:10018000EC80FD800E811F819101281B390BB90184
:1001900037FF04C066277727621B730B6032710537
:1001A0000CF061C0121613066CF537014801062EDB
:1001B00004C096948794779467940A94D2F721E0C8
:1001C00030E040E050E004C0220F331F441F551FB1
:1001D0006A95D2F721503040404050402E213F21B7
:1001E00040235123211531054105510521F021E01E
:1001F00030E040E050E079018A01E628F72808293C
:1002000019293CC0232BD1F1260E371E350146019A
:10021000062E04C096948794779467940A94D2F734
:1002200021E030E040E050E004C0220F331F441FC3
:10023000551F6A95D2F721503040404050402A2146
:100240003B214C215D21211531054105510521F04E
:1002500021E030E040E050E059016A01A628B728CB
:10026000C828D9280BC0821593052CF01C01AA249C
:10027000BB24650103C0EE24FF24870111969C91E5
:10028000D20111968C91981709F445C0992339F041
:10029000A80197012A193B094C095D0906C0A6016E
:1002A00095012E193F09400B510B57FD08C01182D3
:1002B0003382228224833583468357831DC081E0A5
:1002C00081833382228288279927DC01821B930B4A
:1002D000A40BB50B84839583A683B7830DC0220F2F
:1002E000331F441F551F24833583468357838281E0
:1002F000938101979383828324813581468157813D
:10030000DA01C9010197A109B1098F5F9F4FAF4F72
:10031000BF4328F30BC0918333822282EA0CFB1C7B
:100320000C1D1D1DE482F5820683178383E0808304
:10033000248135814681578157FF1AC0C901AA27F8
:1003400097FDA095BA2F81709070A070B0705695EF
:10035000479537952795822B932BA42BB52B848318
:100360009583A683B7838281938101969383828349
:10037000DF0101C0D201CD01CDB7DEB7E2E10C94BF
:100380006329A0E2B0E0E7ECF1E00C945329698323
:100390007A838B839C832D833E834F835887E9E048
:1003A000EE2EF12CEC0EFD1ECE010196B7010E943F
:1003B000D4068E010F5E1F4FCE010596B8010E9434
:1003C000D4068A8991E089278A8BC701B801AE01DA
:1003D000475E5F4F0E9475000E94FF05A096E6E011
:1003E0000C946F29A0E2B0E0E8EFF1E00C945329FF
:1003F00069837A838B839C832D833E834F835887C5
:10040000F9E0EF2EF12CEC0EFD1ECE010196B701A6
:100410000E94D4068E010F5E1F4FCE010596B801D3
:100420000E94D406C701B801AE01475E5F4F0E942B
:1004300075000E94FF05A096E6E00C946F29A0E2EB
:10044000B0E0E5E2F2E00C94472969837A838B837C
:100450009C832D833E834F835887CE010196BE0136
:10046000675F7F4F0E94D406CE010596BE016F5E86
:100470007F4F0E94D4069985923088F08989823016
:10048000C8F0943019F4823051F404C0843029F457
:10049000923081F485E596E0C6C0923049F420E0C0
:1004A0009A858A89981321E02A87CE010996BBC0D4
:1004B000823049F420E09A858A89981321E02A8BBA
:1004C000CE014196B0C02D843E844F8458886D88FB
:1004D0007E888F88988CEE24FF248701AA24BB2471
:1004E000650140E050E060E070E0E0E0F0E0C10174
:1004F00081709070892BE9F0E60CF71C081D191D1E
:100500009A01AB012A0D3B1D4C1D5D1D80E090E062
:10051000A0E0B0E0E614F7040805190520F481E036
:1005200090E0A0E0B0E0BA01A901480F591F6A1F8E
:100530007B1FAA0CBB1CCC1CDD1C97FE08C081E0F5
:1005400090E0A0E0B0E0A82AB92ACA2ADB2A3196B6
:10055000E032F10549F0660C771C881C991C569412
:10056000479437942794C3CFFA85EA892B893C892D
:100570008B859C85280F391F2E5F3F4F17C0CA01FE
:1005800081709070892B61F016950795F794E79428
:1005900080E090E0A0E0B0E8E82AF92A0A2B1B2BC3
:1005A00076956795579547952F5F3F4F77FDE7CF36
:1005B0000CC0440F551F661F771F17FD4160EE0CDE
:1005C000FF1C001F111F21503040403090E05907A0
:1005D00090E0690790E4790760F32B8F3C8FDB0193
:1005E000CA018F779070A070B07080349105A1051A
:1005F000B10561F447FD0AC0E114F10401051105DC
:1006000029F0405C5F4F6F4F7F4F40781A8EFE1786
:1006100011F081E08A8F4D8F5E8F6F8F78A383E01A
:10062000898FCE0149960E94FF05A096E2E10C94C5
:100630006329A8E1B0E0EFE1F3E00C944F2969836E
:100640007A838B839C832D833E834F835887B9E0C5
:10065000EB2EF12CEC0EFD1ECE010196B7010E948F
:10066000D4068E010F5E1F4FCE010596B8010E9481
:10067000D4062985223008F47EC03989323010F43E
:10068000B8017CC08A859A8989278A87243011F02D
:10069000223031F4231709F06EC065E576E06EC0B4
:1006A000343039F41D861E861F86188A1C861B86E8
:1006B00004C0323021F484E08987B7015FC02B8504
:1006C0003C858B899C89281B390B3C872B87ED84C3
:1006D000FE840F851889AD88BE88CF88D88CEA142F
:1006E000FB040C051D0540F4EE0CFF1C001F111F40
:1006F000215030403C872B8720E030E040E050E044
:1007000080E090E0A0E0B0E460E070E0EA14FB0478
:100710000C051D0540F0282B392B4A2B5B2BEA18C2
:10072000FB080C091D09B695A79597958795EE0CC2
:10073000FF1C001F111F6F5F7F4F6F31710531F775
:10074000DA01C9018F779070A070B0708034910584
:10075000A105B10561F427FD0AC0E114F10401050A
:10076000110529F0205C3F4F4F4F5F4F20782D87B8
:100770003E874F87588BBE01675F7F4FCB010E943A
:10078000FF056896EAE00C946B29A8E1B0E0EBEC79
:10079000F3E00C94532969837A838B839C832D83A4
:1007A0003E834F83588789E0E82EF12CEC0EFD1E26
:1007B000CE010196B7010E94D4068E010F5E1F4F35
:1007C000CE010596B8010E94D4068985823040F09A
:1007D0008989823028F0C701B8010E944C0701C006
:1007E0008FEF6896E6E00C946F29A8E1B0E0EBEF9C
:1007F000F3E00C94532969837A838B839C832D8344
:100800003E834F83588789E0E82EF12CEC0EFD1EC5
:10081000CE010196B7010E94D4068E010F5E1F4FD4
:10082000CE010596B8010E94D4068985823040F039
:100830008989823028F0C701B8010E944C0701C0A5
:100840008FEF6896E6E00C946F29A8E1B0E0EBE248
:10085000F4E00C94532969837A838B839C832D83E2
:100860003E834F83588789E0E82EF12CEC0EFD1E65
:10087000CE010196B7010E94D4068E010F5E1F4F74
:10088000CE010596B8010E94D4068985823040F0D9
:100890008989823028F0C701B8010E944C0701C045
:1008A00081E06896E6E00C946F29A8E1B0E0EBE502
:1008B000F4E00C94532969837A838B839C832D8382
:1008C0003E834F83588789E0E82EF12CEC0EFD1E05
:1008D000CE010196B7010E94D4068E010F5E1F4F14
:1008E000CE010596B8010E94D4068985823040F079
:1008F0008989823028F0C701B8010E944C0701C0E5
:1009000081E06896E6E00C946F29A8E0B0E0EBE89F
:10091000F4E00C9450299B01AC0183E08983DA0157
:10092000C9018827B7FD83959927AA27BB27B82E29
:10093000211531054105510519F482E089833AC03A
:100940008823A9F0203080E0380780E0480780E85D
:10095000580729F460E070E080E09FEC30C0EE249E
:10096000FF248701E21AF30A040B150B02C0790178
:100970008A018EE1C82ED12CDC82CB82ED82FE82F0
:100980000F831887C801B7010E94B0050197181698
:10099000190684F4082E04C0EE0CFF1C001F111F62
:1009A0000A94D2F7ED82FE820F831887C81AD90AFB
:1009B000DC82CB82BA82CE0101960E94FF05289686
:1009C000E9E00C946C29ACE0B0E0E9EEF4E00C94C2
:1009D000572969837A838B839C83CE010196BE015C
:1009E0006B5F7F4F0E94D4068D81823061F182302F
:1009F00050F1843021F48E81882351F12EC02F8153
:100A0000388537FD20C06E812F3131051CF06623FB
:100A1000F9F023C08EE190E0821B930B29853A8583
:100A20004B855C8504C056954795379527958A95E3
:100A3000D2F76623B1F050954095309521953F4F00
:100A40004F4F5F4F0EC020E030E040E050E009C063
:100A50002FEF3FEF4FEF5FE704C020E030E040E0D2
:100A600050E8B901CA012C96E2E00C947329A8E081
:100A7000B0E0EDE3F5E00C944F297B018C016115AA
:100A800071058105910519F482E0898360C083E0D6
:100A900089838EE1C82ED12CDC82CB82ED82FE824E
:100AA0000F831887C801B7010E94B005FC01319778
:100AB000F7FF3BC0222733272E1B3F0B570168014E
:100AC000022E04C0D694C794B794A7940A94D2F780
:100AD00040E050E060E070E081E090E0A0E0B0E055
:100AE00004C0880F991FAA1FBB1F2A95D2F7019730
:100AF000A109B1098E219F21A023B1230097A1054F
:100B0000B10521F041E050E060E070E04A295B2946
:100B10006C297D294D835E836F8378878EE190E019
:100B20008E1B9F0B9C838B8312C0309781F00E2EFF
:100B300004C0EE0CFF1C001F111F0A94D2F7ED82B7
:100B4000FE820F831887CE1ADF0ADC82CB821A82DC
:100B5000CE0101960E94FF052896EAE00C946B29CD
:100B6000EF92FF920F931F937B018C0180E0E816B8
:100B700080E0F80681E0080780E0180788F48FEF2E
:100B8000E816F1040105110531F028F088E090E045
:100B9000A0E0B0E017C080E090E0A0E0B0E012C0BC
:100BA00080E0E81680E0F80680E0080781E018079A
:100BB00028F088E190E0A0E0B0E004C080E190E09F
:100BC000A0E0B0E020E230E040E050E0281B390B2C
:100BD0004A0B5B0B04C016950795F794E7948A952A
:100BE000D2F7F701E35AF94F8081281B31094109F7
:100BF0005109C9011F910F91FF90EF900895DF9265
:100C0000EF92FF920F931F93FC01E480F580068121
:100C10001781D1808081823048F480E090E0A0E1AB
:100C2000B0E0E82AF92A0A2B1B2BA5C0843009F46E
:100C30009FC0823021F4EE24FF24870105C0E11417
:100C4000F1040105110519F4E0E0F0E096C06281BD
:100C500073819FEF623879070CF05BC022E83FEFA9
:100C6000261B370B2A3131052CF020E030E040E024
:100C700050E02AC0B801A701022E04C076956795FE
:100C8000579547950A94D2F781E090E0A0E0B0E054
:100C900004C0880F991FAA1FBB1F2A95D2F701977E
:100CA000A109B1098E219F21A023B1230097A1059D
:100CB000B10521F081E090E0A0E0B0E09A01AB0145
:100CC000282B392B4A2B5B2BDA01C9018F779070C7
:100CD000A070B07080349105A105B10539F427FFEB
:100CE00009C0205C3F4F4F4F5F4F04C0215C3F4F16
:100CF0004F4F5F4FE0E0F0E02030A0E03A07A0E087
:100D00004A07A0E45A0710F0E1E0F0E079018A0117
:100D100027C06038710564F5FB01E158FF4FD80129
:100D2000C7018F779070A070B07080349105A105D5
:100D3000B10539F4E7FE0DC080E490E0A0E0B0E03A
:100D400004C08FE390E0A0E0B0E0E80EF91E0A1FB7
:100D50001B1F17FF05C016950795F794E79431966A
:100D600087E016950795F794E7948A95D1F705C023
:100D7000EE24FF248701EFEFF0E06E2F67956627E2
:100D80006795902F9F77D794DD24D7948E2F8695E3
:100D9000492F462B582F5D29B701CA011F910F918A
:100DA000FF90EF90DF900895FC01DB0140815181BD
:100DB0002281622F6F7770E0221F2227221F9381EA
:100DC000892F880F822B282F30E0991F9927991F90
:100DD00011969C93119721153105A9F541155105DF
:100DE0006105710511F482E037C082E89FEF139628
:100DF0009C938E9312979A01AB0167E0220F331FE9
:100E0000441F551F6A95D1F783E08C930DC0220FC4
:100E1000331F441F551F12968D919C911397019774
:100E200013969C938E931297203080E0380780E0D1
:100E3000480780E4580758F314962D933D934D933B
:100E40005C93179708952F3F310579F441155105AB
:100E50006105710519F484E08C93089564FF03C063
:100E600081E08C9312C01C9210C02F573040139613
:100E70003C932E93129783E08C9387E0440F551F89
:100E8000661F771F8A95D1F7706414964D935D9312
:100E90006D937C93179708951F93DC01FB019C9140
:100EA000923008F447C08081823008F443C0943007
:100EB00051F411961C91843099F58181682F70E06E
:100EC000611B71093FC0843021F0923031F48230CF
:100ED000B9F18181882389F12DC011961C91119758
:100EE0008230F1F081811817D9F412962D913C913E
:100EF0001397828193818217930794F028173907FB
:100F0000BCF014968D919D910D90BC91A02D2481E3
:100F1000358146815781281739074A075B0718F43E
:100F2000112341F00AC082179307A407B50740F4C4
:100F3000112319F061E070E005C06FEF7FEF02C090
:100F400060E070E0CB011F910895DF93CF930F9283
:100F5000CDB7DEB71982E9E2F0E087E68083ABE245
:100F6000B0E0EBE2F0E080818D7F8C938981806836
:100F7000898389818F7B898389818F7D8983898119
:100F80008F7E89838981877F8983AAE2B0E0EAE244
:100F9000F0E080818B7F8C93898184608983898153
:100FA0008260898389818E7F8983E0E4F0E0898192
:100FB0008083AAE2B0E0EAE2F0E0808180618C9375
:100FC000AAE2B0E0EAE2F0E0808188608C930F90C2
:100FD000CF91DF910895DF93CF930F92CDB7DEB716
:100FE0008983ECE2F0E089818083EBE2F0E08081AC
:100FF000829586958770882F90E081709070009719
:10100000A1F30F90CF91DF910895DF93CF9300D09C
:10101000CDB7DEB79A83898389819A81009759F089
:10102000EBE2F0E080818823DCF7ECE2F0E0808105
:10103000E981FA8180830F900F90CF91DF9108951D
:10104000DF93CF9300D00F92CDB7DEB79B838A8317
:101050008A819B810097D9F019820EC08981282F3F
:1010600030E08A819B81FC01E20FF31F80810E94A6
:10107000EB0789818F5F89838981282F30E08A81FE
:101080009B81FC01E20FF31F8081882339F70F90C9
:101090000F900F90CF91DF910895DF93CF9300D001
:1010A0000F92CDB7DEB79B838A838A819B8100979D
:1010B00011F119828981282F30E08A819B81820F6A
:1010C000931F0E9405088981282F30E08A819B8127
:1010D000FC01E20FF31F8081833221F089818F5F51
:1010E0008983E8CF8981282F30E08A819B81FC01A8
:1010F000E20FF31F10820F900F900F90CF91DF91AE
:101100000895DF93CF930F92CDB7DEB7898389819E
:10111000882344F18981882329F1E2E2F0E0898182
:10112000880F8083E0E2F0E08CE08083A1E2B0E011
:10113000E1E2F0E080818D7F8C93A1E2B0E0E1E21A
:10114000F0E080818E7F8C93A6E5B0E0E6E5F0E0EC
:1011500080818E7F8C93A6E5B0E0E6E5F0E08081AB
:1011600084608C930F90CF91DF910895DF93CF939C
:10117000CDB7DEB7A6E5B0E0E6E5F0E080818062BD
:101180008C93A6E5B0E0E6E5F0E0808180688C9382
:10119000E6E5F0E080818823DCF7E1E2F0E08081A1
:1011A000882F90E0887F907088309105B1F7CF91BB
:1011B000DF910895DF93CF93CDB7DEB7A6E5B0E01A
:1011C000E6E5F0E0808180628C93A6E5B0E0E6E59C
:1011D000F0E0808180688C93E6E5F0E080818823F0
:1011E000DCF7E1E2F0E08081882F90E0887F90706A
:1011F00080319105B1F7CF91DF910895DF93CF93BF
:10120000CDB7DEB7A6E5B0E0E6E5F0E0808180612D
:101210008C93A6E5B0E0E6E5F0E0808180688C93F1
:10122000CF91DF910895DF93CF930F92CDB7DEB7C3
:101230008983898188234CF1E3E2F0E08981880F7A
:101240008083A3E2B0E0E3E2F0E080818E7F8C93C4
:10125000A6E5B0E0E6E5F0E080818F7D8C93A6E521
:10126000B0E0E6E5F0E0808180688C93E6E5F0E0B0
:1012700080818823DCF7E1E2F0E08081882F90E034
:10128000887F907088319105B1F70F90CF91DF91F1
:101290000895DF93CF930F92CDB7DEB7898389810D
:1012A00088234CF1E3E2F0E08981880F8083A3E298
:1012B000B0E0E3E2F0E0808181608C93A6E5B0E0ED
:1012C000E6E5F0E080818F7D8C93A6E5B0E0E6E571
:1012D000F0E0808180688C93E6E5F0E080818823EF
:1012E000DCF7E1E2F0E08081882F90E0887F907069
:1012F00080349105B1F70F90CF91DF910895DF937E
:10130000CF930F92CDB7DEB78983E3E2F0E0898116
:101310008083A6E5B0E0E6E5F0E0808180688C930C
:10132000E6E5F0E080818823DCF7E1E2F0E080810F
:10133000882F90E0887F907088329105B1F70F90E8
:10134000CF91DF910895DF93CF9300D0CDB7DEB773
:101350009A83898389819A81009751F1A6E5B0E04B
:10136000E6E5F0E0808180648C93A6E5B0E0E6E5F8
:10137000F0E0808180688C93E6E5F0E0808188234E
:10138000DCF7E1E2F0E08081882F90E0887F9070C8
:1013900080359105B1F7E3E2F0E08081E981FA81DF
:1013A0008083A6E5B0E0E6E5F0E080818F7B8C935A
:1013B0000F900F90CF91DF910895DF93CF9300D0DE
:1013C000CDB7DEB79A83898389819A810097E1F04E
:1013D000A6E5B0E0E6E5F0E0808180688C93E6E584
:1013E000F0E080818823DCF7E1E2F0E08081882F63
:1013F00090E0887F907088359105B1F7E3E2F0E0E6
:101400008081E981FA8180830F900F90CF91DF91E5
:101410000895DF93CF93CDB7DEB7ADE2B0E0EDE254
:10142000F0E080818F7E8C93ADE2B0E0EDE2F0E001
:10143000808180628C93ADE2B0E0EDE2F0E08081EB
:1014400088608C93ADE2B0E0EDE2F0E080818460F2
:101450008C93ADE2B0E0EDE2F0E0808180688C93A7
:10146000ADE2B0E0EDE2F0E0808180648C93CF915A
:10147000DF910895DF93CF930F92CDB7DEB78983C5
:10148000EFE2F0E089818083EEE2F0E08081882362
:10149000DCF70F90CF91DF910895DF93CF9300D0C9
:1014A0000F92CDB7DEB79B838A8381E089838A81DF
:1014B0009B81009761F0EEE2F0E080818823DCF709
:1014C000EFE2F0E08081EA81FB81808301C0198234
:1014D0000F900F900F90CF91DF910895DF93CF93EE
:1014E00000D000D0CDB7DEB789837B836A838A8141
:1014F0009B81009791F0EFE2F0E089818083EEE23A
:10150000F0E080818823DCF7EFE2F0E08081EA817F
:10151000FB81808381E08C8301C01C828C810F90D1
:101520000F900F900F90CF91DF910895DF93CF939D
:1015300000D00F92CDB7DEB79B838A838A819B81CF
:101540000097D9F019820EC08981282F30E08A8156
:101550009B81FC01E20FF31F80810E943A0A89817E
:101560008F5F89838981282F30E08A819B81FC01EC
:10157000E20FF31F8081882339F70F900F900F90AF
:10158000CF91DF910895DF93CF9300D00F92CDB725
:10159000DEB79B838A838A819B81009711F1198230
:1015A0008981282F30E08A819B81820F931F0E94BE
:1015B0004D0A8981282F30E08A819B81FC01E20F4E
:1015C000F31F8081833221F089818F5F8983E8CF87
:1015D0008981282F30E08A819B81FC01E20FF31F73
:1015E00010820F900F900F90CF91DF910895DF93AD
:1015F000CF9300D000D000D0CDB7DEB78A837C83F4
:101600006B835E834D8381E0898380918607882385
:1016100079F58B819C81009749F18D819E8100979E
:1016200029F18A81882F90E0909381078093800729
:101630008B819C8190938307809382078D819E810B
:101640009093850780938407EFE2F0E08091800714
:10165000909181078083ADE2B0E0EDE2F0E080811F
:1016600080688C9381E08093860703C0198201C053
:10167000198226960FB6F894DEBF0FBECDBFCF916C
:10168000DF9108951F920F920FB60F9211242F939E
:101690003F934F935F936F937F938F939F93AF93FA
:1016A000BF93EF93FF93DF93CF93CDB7DEB7A091B6
:1016B0008207B0918307EFE2F0E080818C93ADE286
:1016C000B0E0EDE2F0E080818F778C938091840729
:1016D00090918507009729F0E0918407F0918507A4
:1016E000099510928607CF91DF91FF91EF91BF91FD
:1016F000AF919F918F917F916F915F914F913F91AA
:101700002F910F900FBE0F901F901895DF93CF93DE
:10171000CDB7DEB7AFE4B0E0EFE4F0E080818E7FDC
:101720008C93AFE4B0E0EFE4F0E0808182608C93D2
:10173000AEE4B0E0EEE4F0E0808188608C93AEE44B
:10174000B0E0EEE4F0E0808180618C93AFE4B0E043
:10175000EFE4F0E0808180688C93AFE4B0E0EFE4E8
:10176000F0E080818F7B8C93CF91DF9108950F9370
:101770001F93DF93CF9300D000D000D0CDB7DEB75A
:101780009A8389834B835C836D837E836B817C81A9
:101790008D819E8120E030E048EC52E40E945504A7
:1017A00018160CF461C006E410E089819A819C014E
:1017B00040E050E080E990EDA3E0B0E0BC01CD0155
:1017C0000E942529DA01C9010197F80191838083DC
:1017D0000AE410E0E6E4F0E0808191810196CC011A
:1017E000A0E0B0E0BC01CD010E943705DC01CB01D7
:1017F000BC01CD012B813C814D815E810E941F0285
:10180000DC01CB01BC01CD0120E030E048EC52E42A
:101810000E941903DC01CB01BC01CD0120E030E0C6
:1018200040E85FE30E94C101DC01CB01BC01CD01B6
:101830000E944900DC01CB01F80191838083AEE472
:10184000B0E0EEE4F0E0808181608C93AEE4B0E043
:10185000EEE4F0E0808182608C93AEE4B0E0EEE4F0
:10186000F0E080818B7F8C9326960FB6F894DEBFD4
:101870000FBECDBFCF91DF911F910F910895DF93E0
:10188000CF93CDB7DEB7AEE4B0E0EEE4F0E0808118
:101890008E7F8C93AEE4B0E0EEE4F0E080818D7F4B
:1018A0008C93AEE4B0E0EEE4F0E080818B7F8C932B
:1018B000CF91DF910895DF93CF93CDB7DEB7AFE53A
:1018C000B0E0EFE5F0E0808180688C93CF91DF910C
:1018D0000895DF93CF93CDB7DEB7AFE5B0E0EFE586
:1018E000F0E080818F778C93CF91DF910895DF9323
:1018F000CF93CDB7DEB72A970FB6F894DEBF0FBEF1
:10190000CDBF89836A838981282F30E03A87298770
:1019100089859A858130910509F466C029853A85C3
:101920002230310509F4BBC089859A85009709F0FA
:10193000D4C08A81282F30E038872F838F81988503
:101940008130910521F12F813885223031052CF429
:101950008F819885009761F0C0C02F813885223033
:10196000310521F18F8198858330910571F1B5C0E2
:10197000A5E5B0E0E5E5F0E0808181608C93A5E528
:10198000B0E0E5E5F0E0808182608C93A6C0A5E53B
:10199000B0E0E5E5F0E080818E7F8C93A5E5B0E0D6
:1019A000E5E5F0E0808182608C9397C0A5E5B0E02A
:1019B000E5E5F0E080818E7F8C93A5E5B0E0E5E57C
:1019C000F0E080818D7F8C9388C0A5E5B0E0E5E5EF
:1019D000F0E0808181608C93A5E5B0E0E5E5F0E082
:1019E00080818D7F8C9379C08A81282F30E03E835F
:1019F0002D838D819E818130910521F12D813E8144
:101A0000223031052CF48D819E81009761F065C0F4
:101A10002D813E812230310521F18D819E818330DF
:101A2000910571F15AC0A5E5B0E0E5E5F0E08081EF
:101A300084608C93A5E5B0E0E5E5F0E08081886006
:101A40008C934BC0A5E5B0E0E5E5F0E080818B7FAD
:101A50008C93A5E5B0E0E5E5F0E0808188608C93AB
:101A60003CC0A5E5B0E0E5E5F0E080818B7F8C939C
:101A7000A5E5B0E0E5E5F0E08081877F8C932DC09F
:101A8000A5E5B0E0E5E5F0E0808184608C93A5E514
:101A9000B0E0E5E5F0E08081877F8C931EC08A810D
:101AA000282F30E03C832B838B819C81009731F081
:101AB0002B813C812130310549F00FC0A4E5B0E015
:101AC000E4E5F0E0808180648C9307C0A4E5B0E099
:101AD000E4E5F0E080818F7B8C932A960FB6F89432
:101AE000DEBF0FBECDBFCF91DF910895DF93CF93BF
:101AF00000D00F92CDB7DEB789838981282F30E0DF
:101B00003B832A838A819B818130910589F02A81D8
:101B10003B8122303105A1F08A819B810097B9F485
:101B2000ABE5B0E0EBE5F0E0808180648C930FC022
:101B3000ABE5B0E0EBE5F0E0808180688C9307C016
:101B4000ABE5B0E0EBE5F0E0808180628C930F9034
:101B50000F900F90CF91DF910895DF93CF9300D036
:101B60000F92CDB7DEB789838981282F30E03B8380
:101B70002A838A819B818130910589F02A813B816A
:101B800022303105A1F08A819B810097B9F4ABE541
:101B9000B0E0EBE5F0E080818F7B8C930FC0ABE58C
:101BA000B0E0EBE5F0E080818F778C9307C0ABE588
:101BB000B0E0EBE5F0E080818F7D8C930F900F908B
:101BC0000F90CF91DF910895DF93CF9300D00F92C4
:101BD000CDB7DEB789838981282F30E03B832A8304
:101BE0008A819B818130910589F02A813B81223055
:101BF0003105A1F08A819B810097B9F4AAE5B0E094
:101C0000EAE5F0E0808180648C930FC0AAE5B0E043
:101C1000EAE5F0E0808180688C9307C0AAE5B0E037
:101C2000EAE5F0E0808180628C930F900F900F9036
:101C3000CF91DF910895DF93CF9300D000D00F9222
:101C4000CDB7DEB79A8389836B838B81282F30E0F1
:101C50003D832C838C819D8181309105A1F02C8165
:101C60003D8122303105D1F08C819D81009701F5B5
:101C700089819A810097E1F089819A819093880700
:101C80008093870715C089819A81009789F089819F
:101C90009A8190938A07809389070AC089819A81E3
:101CA000009731F089819A8190938C0780938B07FC
:101CB0000F900F900F900F900F90CF91DF9108959C
:101CC0001F920F920FB60F9211242F933F934F93B1
:101CD0005F936F937F938F939F93AF93BF93EF9394
:101CE000FF93DF93CF93CDB7DEB7E0918707F091F5
:101CF0008807099580E00E94E40DCF91DF91FF9164
:101D0000EF91BF91AF919F918F917F916F915F9173
:101D10004F913F912F910F900FBE0F901F901895EC
:101D20001F920F920FB60F9211242F933F934F9350
:101D30005F936F937F938F939F93AF93BF93EF9333
:101D4000FF93DF93CF93CDB7DEB7E0918907F09192
:101D50008A07099581E00E94E40DCF91DF91FF9100
:101D6000EF91BF91AF919F918F917F916F915F9113
:101D70004F913F912F910F900FBE0F901F9018958C
:101D80001F920F920FB60F9211242F933F934F93F0
:101D90005F936F937F938F939F93AF93BF93EF93D3
:101DA000FF93DF93CF93CDB7DEB7E0918B07F09130
:101DB0008C07099582E00E94E40DCF91DF91FF919D
:101DC000EF91BF91AF919F918F917F916F915F91B3
:101DD0004F913F912F910F900FBE0F901F9018952C
:101DE000DF93CF93CDB7DEB728970FB6F894DEBF59
:101DF0000FBECDBF8A836B834C8381E089838A8148
:101E0000843008F0F2C08B81883008F0EEC08C81FD
:101E1000813009F06FC08A81282F30E038872F8306
:101E20008F8198858130910549F12F813885223045
:101E300031052CF48F819885009761F0D8C02F81EF
:101E400038852230310571F18F8198858330910575
:101E5000E9F1CDC0AAE3B0E0EAE3F0E08081482FE9
:101E60008B81282F30E081E090E0022E02C0880FA5
:101E7000991F0A94E2F7842B8C93B9C0A7E3B0E0D2
:101E8000E7E3F0E08081482F8B81282F30E081E06C
:101E900090E0022E02C0880F991F0A94E2F7842B6B
:101EA0008C93A5C0A4E3B0E0E4E3F0E08081482F88
:101EB0008B81282F30E081E090E0022E02C0880F55
:101EC000991F0A94E2F7842B8C9391C0A1E3B0E0B0
:101ED000E1E3F0E08081482F8B81282F30E081E022
:101EE00090E0022E02C0880F991F0A94E2F7842B1B
:101EF0008C937DC08C81882309F074C08A81282F3F
:101F000030E03E832D838D819E818130910559F192
:101F10002D813E81223031052CF48D819E810097E8
:101F200069F065C02D813E812230310589F18D81B6
:101F30009E818330910509F440C059C0AAE3B0E006
:101F4000EAE3F0E08081482F8B81282F30E081E0A8
:101F500090E0022E02C0880F991F0A94E2F7809544
:101F600084238C9344C0A7E3B0E0E7E3F0E08081F2
:101F7000482F8B81282F30E081E090E0022E02C0B4
:101F8000880F991F0A94E2F7809584238C932FC0C1
:101F9000A4E3B0E0E4E3F0E08081482F8B81282FB8
:101FA00030E081E090E0022E02C0880F991F0A9471
:101FB000E2F7809584238C931AC0A1E3B0E0E1E3BB
:101FC000F0E08081482F8B81282F30E081E090E085
:101FD000022E02C0880F991F0A94E2F7809584238D
:101FE0008C9305C081E0898302C081E08983898167
:101FF00028960FB6F894DEBF0FBECDBFCF91DF910C
:102000000895DF93CF93CDB7DEB72E970FB6F89430
:10201000DEBF0FBECDBF8A836B834C8381E0898393
:102020008A81843008F00EC18B81883008F00AC1A3
:102030008C81813021F08C81882309F003C18A8151
:10204000282F30E03E872D878D859E858130910534
:1020500009F44FC02D853E85223031052CF48D8545
:102060009E85009771F0ECC02D853E8522303105AC
:1020700009F477C08D859E858330910509F4A9C048
:10208000DFC08C81282F30E03C872B878B859C8597
:102090000097D1F02B853C852130310509F0D3C064
:1020A000ABE3B0E0EBE3F0E08081482F8B81282F99
:1020B00030E081E090E0022E02C0880F991F0A9460
:1020C000E2F7842B8C93BFC0ABE3B0E0EBE3F0E02E
:1020D0008081482F8B81282F30E081E090E0022E14
:1020E00002C0880F991F0A94E2F7809584238C938D
:1020F000AAC08C81282F30E03A87298789859A8564
:102100000097D1F029853A852130310509F09BC02F
:10211000A8E3B0E0E8E3F0E08081482F8B81282F2E
:1021200030E081E090E0022E02C0880F991F0A94EF
:10213000E2F7842B8C9387C0A8E3B0E0E8E3F0E0FB
:102140008081482F8B81282F30E081E090E0022EA3
:1021500002C0880F991F0A94E2F7809584238C931C
:1021600072C08C81282F30E038872F838F8198852B
:102170000097D1F02F8138852130310509F063C0F7
:10218000A5E3B0E0E5E3F0E08081482F8B81282FC4
:1021900030E081E090E0022E02C0880F991F0A947F
:1021A000E2F7842B8C934FC0A5E3B0E0E5E3F0E0C9
:1021B0008081482F8B81282F30E081E090E0022E33
:1021C00002C0880F991F0A94E2F7809584238C93AC
:1021D0003AC08C81282F30E03E832D838D819E81F3
:1021E0000097C9F02D813E812130310561F5A2E3D0
:1021F000B0E0E2E3F0E08081482F8B81282F30E0CF
:1022000081E090E0022E02C0880F991F0A94E2F745
:10221000842B8C9318C0A2E3B0E0E2E3F0E080816D
:10222000482F8B81282F30E081E090E0022E02C001
:10223000880F991F0A94E2F7809584238C9303C03A
:10224000198201C0198289812E960FB6F894DEBFDB
:102250000FBECDBFCF91DF910895DF93CF93CDB760
:10226000DEB727970FB6F894DEBF0FBECDBF8A83C7
:102270006B835D834C8381E089838A81843008F09D
:1022800077C08B81883008F073C08A81282F30E0B6
:102290003F832E834E815F814130510559F18E81FC
:1022A0009F818230910534F42E813F8121153105C3
:1022B00069F05CC04E815F814230510579F18E81B9
:1022C0009F818330910509F43DC050C0E9E3F0E0FF
:1022D0008081282F30E08B81882F90E0A90102C0F7
:1022E000559547958A95E2F7CA018170EC81FD8189
:1022F00080833FC0E6E3F0E08081282F30E08B81CF
:10230000882F90E0A90102C0559547958A95E2F77C
:10231000CA018170EC81FD8180832BC0E3E3F0E092
:102320008081282F30E08B81882F90E0A90102C0A6
:10233000559547958A95E2F7CA018170EC81FD8138
:10234000808317C0E0E3F0E08081282F30E08B81AC
:10235000882F90E0A90102C0559547958A95E2F72C
:10236000CA018170EC81FD81808303C0198201C0A4
:102370001982898127960FB6F894DEBF0FBECDBFB4
:10238000CF91DF910895DF93CF9300D000D00F92CB
:10239000CDB7DEB78A836B8381E089838B818830F8
:1023A00008F071C08A81282F30E03D832C838C8116
:1023B0009D818130910549F12C813D81223031058B
:1023C0002CF48C819D81009761F05BC02C813D8154
:1023D0002230310571F18C819D8183309105E9F1C5
:1023E00050C0ABE3B0E0EBE3F0E08081482F8B819D
:1023F000282F30E081E090E0022E02C0880F991F64
:102400000A94E2F784278C933FC0A8E3B0E0E8E3A6
:10241000F0E08081482F8B81282F30E081E090E030
:10242000022E02C0880F991F0A94E2F784278C932A
:102430002BC0A5E3B0E0E5E3F0E08081482F8B817D
:10244000282F30E081E090E0022E02C0880F991F13
:102450000A94E2F784278C9317C0A2E3B0E0E2E38A
:10246000F0E08081482F8B81282F30E081E090E0E0
:10247000022E02C0880F991F0A94E2F784278C93DA
:1024800003C0198201C0198289810F900F900F90AB
:102490000F900F90CF91DF910895DF93CF93CDB739
:1024A000DEB72D970FB6F894DEBF0FBECDBF8A837F
:1024B0006B8381E089838A81843008F089C08B81B5
:1024C0008F3F21F08B81882309F082C08A81282FD9
:1024D00030E03D872C878C859D858130910571F199
:1024E0002C853D85223031052CF48C859D85009707
:1024F00069F06CC02C853D8522303105B9F18C85A1
:102500009D858330910509F449C060C08B81282FD7
:1025100030E03B872A878A859B85009731F02A85A2
:102520003B852F3F310529F054C0EAE3F0E01082EB
:1025300050C0EAE3F0E08FEF80834BC08B81282FFF
:1025400030E03987288788859985009731F028857C
:1025500039852F3F310529F03CC0E7E3F0E01082D8
:1025600038C0E7E3F0E08FEF808333C08B81282F02
:1025700030E03F832E838E819F81009731F02E8142
:102580003F812F3F310529F024C0E4E3F0E01082C1
:1025900020C0E4E3F0E08FEF80831BC08B81282F05
:1025A00030E03D832C838C819D81009731F02C811C
:1025B0003D812F3F310529F00CC0E1E3F0E01082AE
:1025C00008C0E1E3F0E08FEF808303C0198201C00F
:1025D000198289812D960FB6F894DEBF0FBECDBF4C
:1025E000CF91DF910895DF93CF9300D000D00F9269
:1025F000CDB7DEB78A836B8381E089838A8184309B
:10260000A8F58A81282F30E03D832C838C819D8121
:1026100081309105D1F02C813D81223031052CF49F
:102620008C819D81009761F01FC02C813D812230FB
:10263000310581F08C819D818330910581F014C03A
:10264000EBE3F0E08B81808312C0E8E3F0E08B8164
:1026500080830DC0E5E3F0E08B81808308C0E2E376
:10266000F0E08B81808303C0198201C019828981C7
:102670000F900F900F900F900F90CF91DF910895D2
:10268000DF93CF9300D000D000D0CDB7DEB78A83E0
:102690007C836B8381E089838A818430E8F58A8139
:1026A000282F30E03E832D838D819E8181309105DE
:1026B000E1F02D813E81223031052CF48D819E8107
:1026C000009761F027C02D813E8122303105A1F0B5
:1026D0008D819E8183309105B1F01CC0E9E3F0E06B
:1026E0008081EB81FC81808318C0E6E3F0E080818B
:1026F000EB81FC81808311C0E3E3F0E08081EB811A
:10270000FC8180830AC0E0E3F0E08081EB81FC8102
:10271000808303C0198201C01982898126960FB671
:10272000F894DEBF0FBECDBFCF91DF910895DF9348
:10273000CF9300D000D0CDB7DEB78A8381E0898304
:102740008A81843008F041C08A81282F30E03C83A0
:102750002B838B819C8181309105E9F02B813C8119
:10276000223031052CF48B819C81009761F02BC0C5
:102770002B813C8122303105B1F08B819C818330EB
:102780009105C9F020C0ABE3B0E0EBE3F0E080815D
:1027900080958C931BC0A8E3B0E0E8E3F0E0808173
:1027A00080958C9313C0A5E3B0E0E5E3F0E0808171
:1027B00080958C930BC0A2E3B0E0E2E3F0E080816F
:1027C00080958C9303C0198201C0198289810F9072
:1027D0000F900F900F90CF91DF910895DF93CF93DB
:1027E00000D000D00F92CDB7DEB78A836B8381E033
:1027F00089838A81843008F075C08B81883008F025
:1028000071C08A81282F30E03D832C838C819D818B
:102810008130910549F12C813D81223031052CF424
:102820008C819D81009761F05BC02C813D812230BD
:10283000310571F18C819D8183309105E9F150C0A2
:10284000ABE3B0E0EBE3F0E08081482F8B81282FF1
:1028500030E081E090E0022E02C0880F991F0A94B8
:10286000E2F7842B8C933FC0A8E3B0E0E8E3F0E00C
:102870008081482F8B81282F30E081E090E0022E6C
:1028800002C0880F991F0A94E2F7842B8C932BC007
:10289000A5E3B0E0E5E3F0E08081482F8B81282FAD
:1028A00030E081E090E0022E02C0880F991F0A9468
:1028B000E2F7842B8C9317C0A2E3B0E0E2E3F0E0F0
:1028C0008081482F8B81282F30E081E090E0022E1C
:1028D00002C0880F991F0A94E2F7842B8C9303C0DF
:1028E000198201C0198289810F900F900F900F906B
:1028F0000F90CF91DF910895DF93CF9300D000D058
:10290000CDB7DEB78A8381E089838A81843098F5E8
:102910008A81282F30E03C832B838B819C818130FE
:102920009105D1F02B813C81223031052CF48B8133
:102930009C81009761F020C02B813C8122303105C1
:1029400081F08B819C818330910581F015C0EBE390
:10295000F0E08FEF808310C0E8E3F0E08FEF80833A
:102960000BC0E5E3F0E08FEF808306C0E2E3F0E028
:102970008FEF808301C0198289810F900F900F9093
:102980000F90CF91DF910895DF93CF9300D0CDB713
:10299000DEB789836A8389816A8140E00E94F00EF4
:1029A0000F900F90CF91DF910895DF93CF93CDB724
:1029B000DEB72C970FB6F894DEBF0FBECDBF8A836B
:1029C0006B834C833E832D838D819E81009709F418
:1029D0004FC08C81282F30E03C872B878B859C85CE
:1029E0008130910531F02B853C852230310509F18C
:1029F0003FC08A816B819E012F5F3F4FA9010E94DA
:102A00002D118981282F30E03A87298789859A8579
:102A1000009751F029853A852130310549F5ED813E
:102A2000FE8181E0808324C0ED81FE8182E080838D
:102A30001FC08A816B819E012F5F3F4FA9010E94B9
:102A40002D118981282F30E038872F838F81988539
:102A5000009751F02F8138852130310549F4ED81FF
:102A6000FE8182E0808304C0ED81FE8181E080836D
:102A70002C960FB6F894DEBF0FBECDBFCF91DF917D
:102A80000895DF93CF93CDB7DEB783E065E041E0F3
:102A90000E94F00E0E94860BCF91DF910895DF9384
:102AA000CF93CDB7DEB782E390E040E050E060E244
:102AB00071E40E94B70BCF91DF910895DF93CF931C
:102AC000CDB7DEB782E390E040E050E060EF70E425
:102AD0000E94B70BCF91DF910895DF93CF9300D081
:102AE00000D00F92CDB7DEB78D838D81863A1CF46E
:102AF00086EA8D8305C08D818B3514F08AE58D8340
:102B00008D81992787FD9095865A9F4FAA2797FD1B
:102B1000A095BA2FBC01CD010E948504DC01CB0138
:102B2000BC01CD0120E030E044E353E40E941903EE
:102B3000DC01CB01BC01CD0120E030E040EA50E4F3
:102B40000E941F02DC01CB01BC01CD0120E030E07E
:102B500040EA50E40E94F201DC01CB0189839A83B0
:102B6000AB83BC8329813A814B815C8182E390E015
:102B7000BA01A9010E94B70B0F900F900F900F9010
:102B80000F90CF91DF9108950F931F93DF93CF9311
:102B9000CDB7DEB7CC54D0400FB6F894DEBF0FBE31
:102BA000CDBF81E061E041E00E94F00E81E062E093
:102BB00041E00E94F00E81E063E041E00E94F00EEF
:102BC00080E064E041E00E94F00E80E065E041E0DA
:102BD0000E94F00E80E066E041E00E94F00E80E08E
:102BE00067E041E00E94F00EFE01E75BFF4F80E0EE
:102BF00090E0ACE0B2E480839183A283B3838E0142
:102C00000B5B1F4FFE01E75BFF4F6081718182818B
:102C1000938120E030E04AE755E40E941F02DC0186
:102C2000CB01F80180839183A283B383FE01EB5B28
:102C3000FF4F608171818281938120E030E040E824
:102C40005FE30E942504882344F4FE01ED5BFF4FFF
:102C500081E090E09183808364C0FE01EB5BFF4FD5
:102C6000608171818281938120E03FEF4FE757E4DB
:102C70000E94C50318160CF043C0FE01E75BFF4F2E
:102C8000608171818281938120E030E040E251E4F3
:102C90000E941F02DC01CB018E010D5B1F4FBC01A6
:102CA000CD010E944900DC01CB01F80191838083B2
:102CB0001FC0FE01EF5BFF4F80E991E091838083AD
:102CC000FE01EF5BFF4F808191810197F1F7FE01DB
:102CD000EF5BFF4F91838083DE01AD5BBF4FFE0151
:102CE000ED5BFF4F80819181019711969C938E93AC
:102CF000FE01ED5BFF4F808191810097D1F624C0EA
:102D00008E010D5B1F4FFE01EB5BFF4F60817181F8
:102D1000828193810E944900DC01CB01F8019183FB
:102D20008083FE01ED5BFF4F80819181FE01FF9664
:102D300091838083FE01FF96808191810197F1F755
:102D4000FE01FF969183808381E061E040E00E9474
:102D5000011081E062E040E00E94011082E00E94E8
:102D6000C81C0E94201D88E20E94DA1880E090E0D2
:102D7000A4E3B2E48BAF9CAFADAFBEAF6BAD7CADA7
:102D80008DAD9EAD2BEA3AEA4AEA50E40E941F025A
:102D9000DC01CB018FAB98AFA9AFBAAF6FA978AD0B
:102DA00089AD9AAD20E030E040E85FE30E94250461
:102DB00088231CF481E08EAB91C06FA978AD89ADFA
:102DC0009AAD20E030E04FE753E40E94C5031816A7
:102DD0000CF07BC06BAD7CAD8DAD9EAD20E030E0E6
:102DE0004AE754E40E941903DC01CB018AAB9BAB98
:102DF000ACABBDAB6AA97BA98CA99DA920E030E052
:102E00004AE755E40E941F02DC01CB018EA79FA771
:102E1000A8ABB9AB6EA57FA588A999A920E030E041
:102E200040E85FE30E94250488232CF481E090E0D1
:102E30009DA78CA73FC06EA57FA588A999A920E072
:102E40003FEF4FE757E40E94C50318164CF56AA9F7
:102E50007BA98CA99DA920E030E040E251E40E94CA
:102E60001F02DC01CB01BC01CD010E944900DC0145
:102E7000CB019DA78CA70FC080E991E09BA78AA7F3
:102E80008AA59BA50197F1F79BA78AA78CA59DA56D
:102E900001979DA78CA78CA59DA5009769F724C0D5
:102EA0006EA57FA588A999A90E944900DC01CB01E4
:102EB0009DA78CA78CA59DA599A788A788A599A54E
:102EC0000197F1F799A788A70FC06FA978AD89ADD1
:102ED0009AAD0E944900DC01CB018EAB8EA98FA375
:102EE0008FA18A95F1F78FA38FE00E94DA1880E016
:102EF00090E0A4E3B2E48BA39CA3ADA3BEA36BA11B
:102F00007CA18DA19EA12BEA3AEA4AEA50E40E94F4
:102F10001F02DC01CB018F8F98A3A9A3BAA36F8DE9
:102F200078A189A19AA120E030E040E85FE30E9407
:102F3000250488231CF481E08E8F91C06F8D78A1C9
:102F400089A19AA120E030E04FE753E40E94C50335
:102F500018160CF07BC06BA17CA18DA19EA120E076
:102F600030E04AE754E40E941903DC01CB018A8F68
:102F70009B8FAC8FBD8F6A8D7B8D8C8D9D8D20E05E
:102F800030E04AE755E40E941F02DC01CB018E8B42
:102F90009F8BA88FB98F6E897F89888D998D20E04E
:102FA00030E040E85FE30E94250488232CF481E0B0
:102FB00090E09D8B8C8B3FC06E897F89888D998D29
:102FC00020E03FEF4FE757E40E94C50318164CF589
:102FD0006A8D7B8D8C8D9D8D20E030E040E251E448
:102FE0000E941F02DC01CB01BC01CD010E944900FF
:102FF000DC01CB019D8B8C8B0FC080E991E09B8B1A
:103000008A8B8A899B890197F1F79B8B8A8B8C89A4
:103010009D8901979D8B8C8B8C899D89009769F781
:1030200024C06E897F89888D998D0E944900DC01BA
:10303000CB019D8B8C8B8C899D89998B888B888902
:1030400099890197F1F7998B888B0FC06F8D78A1C3
:1030500089A19AA10E944900DC01CB018E8F8E8D3F
:103060008F878F858A95F1F78F8781E00E94DA1824
:1030700080E090E0A0E0B0E48B879C87AD87BE87BE
:103080006B857C858D859E8520E030E04AE755E4A0
:103090000E941F02DC01CB018F839887A987BA8722
:1030A0006F81788589859A8520E030E040E85FE38C
:1030B0000E94250488232CF481E090E09E838D8378
:1030C0003FC06F81788589859A8520E03FEF4FE783
:1030D00057E40E94C50318164CF56B857C858D85D9
:1030E0009E8520E030E040E251E40E941F02DC01B6
:1030F000CB01BC01CD010E944900DC01CB019E83C4
:103100008D830FC080E991E09C838B838B819C81B0
:103110000197F1F79C838B838D819E8101979E831C
:103120008D838D819E81009769F714C06F817885AA
:1031300089859A850E944900DC01CB019E838D839D
:103140008D819E819A83898389819A810197F1F784
:103150009A83898386E00E94DA18C45BDF4F0FB63A
:10316000F894DEBF0FBECDBFCF91DF911F910F91BD
:103170000895DF93CF930F92CDB7DEB7898381E0B7
:1031800061E041E00E94011081E062E040E00E94C5
:103190000110898182958F700E94C81C0E94201D99
:1031A00089818F700E94C81C0E94201D0F90CF91B2
:1031B000DF910895DF93CF930F92CDB7DEB7898368
:1031C00081E061E040E00E94011081E062E040E0C7
:1031D0000E940110898182958F700E94C81C0E94F4
:1031E000201D89810E94C81C0E94201D0F90CF9134
:1031F000DF910895DF93CF93CDB7DEB72E970FB64B
:10320000F894DEBF0FBECDBF81E00E94DA1880E0E7
:1032100090E0A0E0B0E48B879C87AD87BE876B858C
:103220007C858D859E8520E030E04AE755E40E944C
:103230001F02DC01CB018F839887A987BA876F8132
:10324000788589859A8520E030E040E85FE30E9438
:10325000250488232CF481E090E09E838D833FC079
:103260006F81788589859A8520E03FEF4FE757E4A5
:103270000E94C50318164CF56B857C858D859E854F
:1032800020E030E040E251E40E941F02DC01CB016B
:10329000BC01CD010E944900DC01CB019E838D83DE
:1032A0000FC080E991E09C838B838B819C81019787
:1032B000F1F79C838B838D819E8101979E838D8303
:1032C0008D819E81009769F714C06F81788589850B
:1032D0009A850E944900DC01CB019E838D838D81FC
:1032E0009E819A83898389819A810197F1F79A83D4
:1032F00089832E960FB6F894DEBF0FBECDBFCF9157
:10330000DF910895DF93CF9300D00F92CDB7DEB752
:103310009B838A8319820EC08981282F30E08A819D
:103320009B81FC01E20FF31F80810E94B918898103
:103330008F5F89838981282F30E08A819B81FC01FE
:10334000E20FF31F8081882339F70F900F900F90C1
:10335000CF91DF910895EF92FF920F931F93DF9328
:10336000CF93CDB7DEB728970FB6F894DEBF0FBE68
:10337000CDBF6D837E838F83988781E090E0A0E04E
:10338000B0E089839A83AB83BC838D819E81AF81BA
:10339000B8850097A105B105D1F580E30E94B91861
:1033A0006BC089819A81AB81BC812AE030E040E02A
:1033B00050E0BC01CD010E9406297B018C018D816A
:1033C0009E81AF81B8852AE030E040E050E0BC014A
:1033D000CD010E942529DC01CB018E0D9F1DA01F70
:1033E000B11F89839A83AB83BC838D819E81AF811A
:1033F000B8852AE030E040E050E0BC01CD010E94F9
:103400002529DA01C9018D839E83AF83B8878D8119
:103410009E81AF81B8850097A105B10511F623C043
:1034200089819A81AB81BC812AE030E040E050E0A4
:10343000BC01CD010E942529DC01CB01805D0E94E9
:10344000B91889819A81AB81BC812AE030E040E0E3
:1034500050E0BC01CD010E942529DA01C901898310
:103460009A83AB83BC8389819A81AB81BC81813093
:103470009105A105B105A1F628960FB6F894DEBF17
:103480000FBECDBFCF91DF911F910F91FF90EF90B5
:103490000895DF93CF93CDB7DEB7E3970FB6F894D7
:1034A000DEBF0FBECDBF89AB89A9282F30E03BAB73
:1034B0002AAB8AA99BA9009739F02AA93BA92130F8
:1034C000310509F4C3C083C188E10E94DA1880E0A5
:1034D00090E0A4E3B2E48DA79EA7AFA7B8AB6DA51B
:1034E0007EA58FA598A92BEA3AEA4AEA50E40E9401
:1034F0001F02DC01CB0189A79AA7ABA7BCA769A5CE
:103500007AA58BA59CA520E030E040E85FE30E940F
:10351000250488231CF481E088A791C069A57AA5B9
:103520008BA59CA520E030E04FE753E40E94C50343
:1035300018160CF07BC06DA57EA58FA598A920E07C
:1035400030E04AE754E40E941903DC01CB018CA36C
:103550009DA3AEA3BFA36CA17DA18EA19FA120E0DE
:1035600030E04AE755E40E941F02DC01CB0188A34A
:1035700099A3AAA3BBA368A179A18AA19BA120E0DA
:1035800030E040E85FE30E94250488232CF481E0CA
:1035900090E09F8F8E8F3FC068A179A18AA19BA1E7
:1035A00020E03FEF4FE757E40E94C50318164CF5A3
:1035B0006CA17DA18EA19FA120E030E040E251E40A
:1035C0000E941F02DC01CB01BC01CD010E94490019
:1035D000DC01CB019F8F8E8F0FC080E991E09D8F22
:1035E0008C8F8C8D9D8D0197F1F79D8F8C8F8E8D9B
:1035F0009F8D01979F8F8E8F8E8D9F8D009769F77E
:10360000E6C068A179A18AA19BA10E944900DC01C2
:10361000CB019F8F8E8F8E8D9F8D9B8F8A8F8A8DF2
:103620009B8D0197F1F79B8F8A8FD1C069A57AA5F1
:103630008BA59CA50E944900DC01CB0188A788A529
:10364000898F898D8A95F1F7898FC1C08CE10E949D
:10365000DA1880E090E0A4E3B2E48D8B9E8BAF8B10
:10366000B88F6D897E898F89988D2BEA3AEA4AEA6C
:1036700050E40E941F02DC01CB01898B9A8BAB8B3B
:10368000BC8B69897A898B899C8920E030E040E88D
:103690005FE30E94250488231CF481E0888B91C09D
:1036A00069897A898B899C8920E030E04FE753E46F
:1036B0000E94C50318160CF07BC06D897E898F8926
:1036C000988D20E030E04AE754E40E941903DC01C1
:1036D000CB018C879D87AE87BF876C857D858E8566
:1036E0009F8520E030E04AE755E40E941F02DC019C
:1036F000CB0188879987AA87BB87688579858A8562
:103700009B8520E030E040E85FE30E9425048823A9
:103710002CF481E090E09F838E833FC0688579859B
:103720008A859B8520E03FEF4FE757E40E94C50361
:1037300018164CF56C857D858E859F8520E030E0E0
:1037400040E251E40E941F02DC01CB01BC01CD012B
:103750000E944900DC01CB019F838E830FC080E96A
:1037600091E09D838C838C819D810197F1F79D83EE
:103770008C838E819F8101979F838E838E819F8111
:10378000009769F724C0688579858A859B850E94A2
:103790004900DC01CB019F838E838E819F819B83B7
:1037A0008A838A819B810197F1F79B838A830FC06B
:1037B00069897A898B899C890E944900DC01CB0147
:1037C000888B8889898389818A95F1F78983E39633
:1037D0000FB6F894DEBF0FBECDBFCF91DF91089535
:1037E000DF93CF93CDB7DEB760970FB6F894DEBF07
:1037F0000FBECDBF8F87688B8F85833048F48F8550
:10380000882331F08889813118F48889882321F44C
:1038100080E80E94DA180FC08F85813029F48889EA
:1038200080580E94DA1807C08F85823021F4888979
:1038300080540E94DA1880E090E0A0E8BFE38B8714
:103840009C87AD87BE876B857C858D859E8520E0B6
:1038500030E04AE755E40E941F02DC01CB018F8370
:103860009887A987BA876F81788589859A8520E0AE
:1038700030E040E85FE30E94250488232CF481E0D7
:1038800090E09E838D833FC06F81788589859A857E
:1038900020E03FEF4FE757E40E94C50318164CF5B0
:1038A0006B857C858D859E8520E030E040E251E48B
:1038B0000E941F02DC01CB01BC01CD010E94490026
:1038C000DC01CB019E838D830FC080E991E09C8356
:1038D0008B838B819C810197F1F79C838B838D81F6
:1038E0009E8101979E838D838D819E81009769F7CC
:1038F00014C06F81788589859A850E944900DC0112
:10390000CB019E838D838D819E819A83898389815A
:103910009A810197F1F79A83898360960FB6F8949C
:10392000DEBF0FBECDBFCF91DF910895DF93CF9360
:1039300000D00F92CDB7DEB78A836B83198280E403
:103940000E94DA1819820CC08981882F90E0FC014E
:10395000E35AF84F80810E94B91889818F5F89836B
:103960008981803188F38A816B810E94F01B1982E2
:1039700006C089810E94B91889818F5F89838981F6
:103980008830B8F30F900F900F90CF91DF9108958A
:10399000DF93CF930F92CDB7DEB789838981882FCC
:1039A00090E081709070009731F480E064E040E036
:1039B0000E94011005C080E064E041E00E94011017
:1039C00089818695882F90E081709070009731F4FE
:1039D00080E065E040E00E94011005C080E065E005
:1039E00041E00E940110898186958695882F90E09C
:1039F00081709070009731F480E066E040E00E94B2
:103A0000011005C080E066E041E00E94011089815C
:103A1000869586958695882F90E0817090700097A6
:103A200031F480E067E040E00E94011005C080E0D2
:103A300067E041E00E9401100F90CF91DF9108955F
:103A4000DF93CF93CDB7DEB76C970FB6F894DEBF98
:103A50000FBECDBF81E063E041E00E94011080E035
:103A600090E0A0E8BFE3898F9A8FAB8FBC8F698D00
:103A70007A8D8B8D9C8D20E030E04AE755E40E94E2
:103A80001F02DC01CB018D8B9E8BAF8BB88F6D89B4
:103A90007E898F89988D20E030E040E85FE30E94C6
:103AA000250488232CF481E090E09C8B8B8B3FC015
:103AB0006D897E898F89988D20E03FEF4FE757E42D
:103AC0000E94C50318164CF5698D7A8D8B8D9C8DDF
:103AD00020E030E040E251E40E941F02DC01CB0113
:103AE000BC01CD010E944900DC01CB019C8B8B8B7A
:103AF0000FC080E991E09A8B898B89899A89019717
:103B0000F1F79A8B898B8B899C8901979C8B8B8B86
:103B10008B899C89009769F714C06D897E898F898C
:103B2000988D0E944900DC01CB019C8B8B8B8B898B
:103B30009C89988B8F878F8598890197F1F7988B4F
:103B40008F8781E063E040E00E94011080E090E018
:103B5000A0E8BFE38B879C87AD87BE876B857C859C
:103B60008D859E8520E030E04AE755E40E941F02E3
:103B7000DC01CB018F839887A987BA876F8178850D
:103B800089859A8520E030E040E85FE30E942504C3
:103B900088232CF481E090E09E838D833FC06F8169
:103BA000788589859A8520E03FEF4FE757E40E94AA
:103BB000C50318164CF56B857C858D859E8520E0A8
:103BC00030E040E251E40E941F02DC01CB01BC0165
:103BD000CD010E944900DC01CB019E838D830FC083
:103BE00080E991E09C838B838B819C810197F1F725
:103BF0009C838B838D819E8101979E838D838D8194
:103C00009E81009769F714C06F81788589859A85B0
:103C10000E944900DC01CB019E838D838D819E81B2
:103C20009A83898389819A810197F1F79A8389839D
:103C30006C960FB6F894DEBF0FBECDBFCF91DF916B
:103C40000895DF93CF93CDB7DEB782E063E040E025
:103C50000E94F00E82E064E040E00E94F00E82E0FC
:103C600065E040E00E94F00E82E066E040E00E94E5
:103C7000F00E82E063E00E94EE1382E064E00E94B6
:103C8000EE1382E065E00E94EE1382E066E00E949F
:103C9000EE1381E064E041E00E94F00E81E065E017
:103CA00041E00E94F00E81E066E041E00E94F00EEB
:103CB00081E067E041E00E94F00E81E064E041E0D5
:103CC0000E94011081E065E041E00E94011081E066
:103CD00066E041E00E94011081E067E041E00E945F
:103CE0000110CF91DF910895DF93CF93CDB7DEB769
:103CF000AA970FB6F894DEBF0FBECDBF9DA38CA3CD
:103D0000ECA1FDA18081882F90E0009709F4D9C033
:103D100081E08C8381E08D8381E08E8381E08F83DD
:103D200084E0888785E0898786E08A8787E08B87BB
:103D300082E08C8782E08D8782E08E8782E08F87A9
:103D400083E0888B84E0898B85E08A8B86E08B8B8F
:103D5000CE0144969FA38EA3E0E7F7E0F9A7E8A77A
:103D6000F0E1FAA7E8A5F9A5008088A599A5019634
:103D700099A788A7EEA1FFA100828EA19FA101961D
:103D80009FA38EA39AA591509AA7EAA5EE2351F777
:103D9000ECA1FDA18FEF80831A828FC08A81282F2A
:103DA00030E0CE010496FC01E20FF31F40818A81CE
:103DB000282F30E0CE010896FC01E20FF31F90811E
:103DC000842F692F40E00E940110198255C089811B
:103DD000282F30E0CE010C96FC01E20FF31F40814A
:103DE0008981282F30E0CE014096FC01E20FF31FBD
:103DF00090819E012D5F3F4F842F692FA9010E9462
:103E00002D118B818823A9F51AC08981282F30E0D4
:103E1000CE010C96FC01E20FF31F40818981282F0F
:103E200030E0CE014096FC01E20FF31F90819E012D
:103E30002D5F3F4F842F692FA9010E942D118B8187
:103E4000882319F38981282F30E08A81482F50E098
:103E5000220F331F220F331FCE010196820F931FB3
:103E6000840F951FFC0173968081ECA1FDA18083D6
:103E700007C089818F5F89838981843008F4A7CF47
:103E80008A81282F30E0CE010496FC01E20FF31F57
:103E900040818A81282F30E0CE010896FC01E20F94
:103EA000F31F9081842F692F41E00E9401108981C6
:103EB000843038F08A818F5F8A838A81843008F465
:103EC0006DCFAA960FB6F894DEBF0FBECDBFCF91CF
:103ED000DF910895DF93CF93CDB7DEB78AE50E94D7
:103EE0008108CF91DF910895DF93CF93CDB7DEB7EF
:103EF00062970FB6F894DEBF0FBECDBF998B888B4B
:103F00006A8B88899989892F992780658F870E9474
:103F1000B6088F850E94130988890E947F098A89C3
:103F20000E947F090E94FE0880E090E0A0EAB0E4D1
:103F30008B879C87AD87BE876B857C858D859E85AD
:103F400020E030E04AE755E40E941F02DC01CB018B
:103F50008F839887A987BA876F81788589859A85A5
:103F600020E030E040E85FE30E94250488232CF441
:103F700081E090E09E838D833FC06F817885898545
:103F80009A8520E03FEF4FE757E40E94C5031816DB
:103F90004CF56B857C858D859E8520E030E040E288
:103FA00051E40E941F02DC01CB01BC01CD010E9443
:103FB0004900DC01CB019E838D830FC080E991E035
:103FC0009C838B838B819C810197F1F79C838B83EE
:103FD0008D819E8101979E838D838D819E81009727
:103FE00069F714C06F81788589859A850E94490098
:103FF000DC01CB019E838D838D819E819A83898391
:1040000089819A810197F1F79A83898362960FB625
:10401000F894DEBF0FBECDBFCF91DF910895DF933F
:10402000CF93CDB7DEB763970FB6F894DEBF0FBE60
:10403000CDBF998B888B7B8B6A8B8A899B890097F4
:1040400009F489C088899989892F992780658F8784
:104050000E94B6088F850E94130988890E947F09F3
:104060000E94DA088F850E9449098A899B890E94EB
:10407000DD0980E090E0A0EAB0E48B879C87AD8703
:10408000BE876B857C858D859E8520E030E04AE784
:1040900055E40E941F02DC01CB018F839887A9871A
:1040A000BA876F81788589859A8520E030E040E87D
:1040B0005FE30E94250488232CF481E090E09E8336
:1040C0008D833FC06F81788589859A8520E03FEF99
:1040D0004FE757E40E94C50318164CF56B857C85A5
:1040E0008D859E8520E030E040E251E40E941F0271
:1040F000DC01CB01BC01CD010E944900DC01CB01F8
:104100009E838D830FC080E991E09C838B838B819C
:104110009C810197F1F79C838B838D819E81019710
:104120009E838D838D819E81009769F714C06F8176
:10413000788589859A850E944900DC01CB019E83A0
:104140008D838D819E819A83898389819A8101974C
:10415000F1F79A83898363960FB6F894DEBF0FBE9A
:10416000CDBFCF91DF910895DF93CF93CDB7DEB769
:1041700065970FB6F894DEBF0FBECDBF9A8B898BC3
:104180006B8B5D8B4C8B8C899D89009709F49AC051
:104190008B89813108F096C089899A89892F99275E
:1041A00080658F870E94B6088F850E9413098989D0
:1041B0000E947F09188A0EC08889282F30E08C89D8
:1041C0009D89FC01E20FF31F80810E947F0988898D
:1041D0008F5F888B98898B89981770F30E94FE08EF
:1041E00080E090E0A0EAB0E48B879C87AD87BE8733
:1041F0006B857C858D859E8520E030E04AE755E41F
:104200000E941F02DC01CB018F839887A987BA87A0
:104210006F81788589859A8520E030E040E85FE30A
:104220000E94250488232CF481E090E09E838D83F6
:104230003FC06F81788589859A8520E03FEF4FE701
:1042400057E40E94C50318164CF56B857C858D8557
:104250009E8520E030E040E251E40E941F02DC0134
:10426000CB01BC01CD010E944900DC01CB019E8342
:104270008D830FC080E991E09C838B838B819C812F
:104280000197F1F79C838B838D819E8101979E839B
:104290008D838D819E81009769F714C06F81788529
:1042A00089859A850E944900DC01CB019E838D831C
:1042B0008D819E819A83898389819A810197F1F703
:1042C0009A83898365960FB6F894DEBF0FBECDBF83
:1042D000CF91DF910895DF93CF93CDB7DEB7659788
:1042E0000FB6F894DEBF0FBECDBF9A8B898B6B8B58
:1042F0005D8B4C8B8C899D89009709F4ACC08B89B0
:10430000813108F0A8C089899A89892F9927806509
:104310008F870E94B6088F850E94130989890E94A1
:104320007F090E94DA088F850E944909188A0CC00B
:104330008889282F30E08C899D89820F931F0E94E5
:10434000A30988898F5F888B8889282F30E08B8923
:10435000882F90E001972817390754F38889282F70
:1043600030E08C899D89820F931F0E94DD090E9495
:10437000FE0880E090E0A0EAB0E48B879C87AD87E0
:10438000BE876B857C858D859E8520E030E04AE781
:1043900055E40E941F02DC01CB018F839887A98717
:1043A000BA876F81788589859A8520E030E040E87A
:1043B0005FE30E94250488232CF481E090E09E8333
:1043C0008D833FC06F81788589859A8520E03FEF96
:1043D0004FE757E40E94C50318164CF56B857C85A2
:1043E0008D859E8520E030E040E251E40E941F026E
:1043F000DC01CB01BC01CD010E944900DC01CB01F5
:104400009E838D830FC080E991E09C838B838B8199
:104410009C810197F1F79C838B838D819E8101970D
:104420009E838D838D819E81009769F714C06F8173
:10443000788589859A850E944900DC01CB019E839D
:104440008D838D819E819A83898389819A81019749
:10445000F1F79A83898365960FB6F894DEBF0FBE95
:10446000CDBFCF91DF910895DF93CF9300D00F920E
:10447000CDB7DEB769837A838B8389819A81692F6F
:1044800041E00E94F00E0F900F900F90CF91DF91BE
:104490000895DF93CF9300D00F92CDB7DEB7698335
:1044A0007A838B838B81813039F489819A81692F5A
:1044B00041E00E94011009C08B81882331F4898179
:1044C0009A81692F40E00E9401100F900F900F9089
:1044D000CF91DF910895DF93CF9300D00F92CDB7A6
:1044E000DEB769837A838B838B81813039F489814C
:1044F0009A81692F40E00E94011009C08B818823B6
:1045000031F489819A81692F41E00E9401100F9056
:104510000F900F90CF91DF910895DF93CF9300D04C
:104520000F92CDB7DEB769837A838B8389819A81B5
:10453000692F0E94C3110F900F900F90CF91DF91C0
:104540000895DF93CF93CDB7DEB781E065E040E01B
:104550000E94F00E81E066E041E00E94F00E81E0F2
:1045600067E040E00E94F00E81E064E040E00E94DD
:10457000F00E81E064E041E00E9401100E94090A0F
:1045800060916D0770916E0780916F070E943422D1
:104590000E94A5070E946A1F0E9441150E945E1595
:1045A00083E062E00E94C41483E062E040E00E9485
:1045B000F00E80E061E00E94770C80E00E94760DB2
:1045C00086E598E260E00E941B0E0E945B0C83E08F
:1045D00063E040E00E94F00E83E063E041E00E946F
:1045E000011081E061E00E94770C81E00E94760D6D
:1045F00081E597E261E00E941B0E0E945B0CCF9167
:10460000DF910895DF93CF93CDB7DEB763970FB6F1
:10461000F894DEBF0FBECDBF1D8276C081E08C83D3
:1046200081E08B8380E690E00E942008CE01069610
:104630000E944D081A8217C08A81282F30E0CE01CF
:104640000696FC01E20FF31F20818A81882F90E0FB
:10465000FC01E65EFE4F8081281711F01C820CC021
:104660008A818F5F8A838A81882F90E0FC01E65ED1
:10467000FE4F8081882301F78C81882341F481E9F2
:1046800090E00E9420088D818F5F8D833DC087EA76
:1046900090E00E942008CE0140960E944D081982A9
:1046A00017C08981282F30E0CE014096FC01E20F2F
:1046B000F31F20818981882F90E0FC01E05EFE4F8E
:1046C0008081281711F01B8206C089818F5F898342
:1046D0008981833030F38B81882379F080EC90E0FE
:1046E0000E9420080E94952363960FB6F894DEBFBF
:1046F0000FBECDBFCF91DF9108958D818F5F8D83E8
:1047000084ED90E00E9420088D81833008F486CFEC
:104710008AEE90E00E94200860916D0770916E070C
:1047200080916F070E948D22FFCFDF93CF9300D03F
:104730000F92CDB7DEB780919307813009F455C051
:104740000E94262785E291E00E942008CE01019672
:104750000E9405088981282F30E03B832A838A81C3
:104760009B818433910571F12A813B812533310589
:1047700084F48A819B8182339105F1F02A813B8107
:1047800023333105E4F48A819B818133910589F0DB
:1047900027C02A813B8126333105D1F08A819B8154
:1047A0008633910594F02A813B812733310599F0B6
:1047B00017C00E94FB23BFCF0E94DA24BCCF0E9407
:1047C0001B25B9CF0E94F825B6CF0E941026B3CF83
:1047D0000E949B26B0CF8CE391E00E94200805C088
:1047E00088E591E00E942008A6CF0F900F900F90CF
:1047F000CF91DF910895DF93CF93CDB7DEB72A979E
:104800000FB6F894DEBF0FBECDBF80918D07883004
:1048100008F0C3C08CE791E00E942008CE01059605
:104820000E944D088D81282F30E084E690E0AC0195
:10483000249FC001259F900D349F900D1124AC0141
:10484000405C52418E81882F90E09C01220F331FE3
:10485000C901880F991F880F991F820F931F805ECF
:1048600091409A01280F391F8F81882F90E0C097BF
:10487000820F931F9C838B838B819C818F3F91053B
:1048800031F028F08EE991E00E9420088AC089ED7D
:1048900091E00E942008CE0108960E944D0888856C
:1048A000282F30E084E690E0AC01249FC001259FD2
:1048B000900D349F900D1124AC01405C52418985CC
:1048C000882F90E09C01220F331FC901880F991F88
:1048D000880F991F820F931F805E91409A01280FC5
:1048E000391F8A85882F90E0C097820F931F9A8383
:1048F000898389819A818F3F910531F028F08CEF6F
:1049000091E00E9420084DC080918D07882F90E093
:10491000880F991F880F991F2B81622F0E94741F87
:1049200080918D07882F90E0880F991F880F991F1D
:1049300001969C018B819C81892F9927482FC90161
:10494000642F0E94741F80918D07882F90E0880F3C
:10495000991F0196880F991F2981622F0E94741F49
:1049600080918D07882F90E0880F991F880F991FDD
:1049700003969C0189819A81892F9927482FC90123
:10498000642F0E94741F80918D078F5F80938D0725
:1049900088E392E00E94200804C083E592E00E9430
:1049A00020082A960FB6F894DEBF0FBECDBFCF9178
:1049B000DF910895DF93CF9300D0CDB7DEB789E6BE
:1049C00092E00E942008CE0102960E9405088A818A
:1049D00080538A838A81882329F18A81893010F55E
:1049E0008A81882F90E00197880F991F8983898198
:1049F000882F90E06FEF0E94741F8981882F90E0CC
:104A000001966FEF0E94741F80918D07882329F013
:104A100080918D07815080938D078FE892E00E94EE
:104A2000200804C08CEA92E00E9420080F900F90AA
:104A3000CF91DF910895DF93CF93CDB7DEB72E9757
:104A40000FB6F894DEBF0FBECDBF86EC92E00E9499
:104A50002008CE0108960E94050888858053888723
:104A60008885882309F4B7C08885893008F0B3C0E9
:104A70008885882F90E00197880F991F89838AEE97
:104A800092E00E942008CE0109960E944D08898577
:104A9000282F30E084E690E0AC01249FC001259FE0
:104AA000900D349F900D1124AC01405C52418A85D9
:104AB000882F90E09C01220F331FC901880F991F96
:104AC000880F991F820F931F805E91409A01280FD3
:104AD000391F8B85882F90E0C097820F931F9D838D
:104AE0008C838C819D818F3F910511F008F04EC021
:104AF0008981882F90E02C81622F0E94741F898108
:104B0000882F90E001969C018C819D81892F9927A7
:104B1000482FC901642F0E94741F8BE093E00E940C
:104B20002008CE010C960E944D088C85282F30E07D
:104B300084E690E0AC01249FC001259F900D349F36
:104B4000900D1124AC01405C52418D85882F90E07E
:104B50009C01220F331FC901880F991F880F991FCD
:104B6000820F931F805E91409A01280F391F8E8516
:104B7000882F90E0C097820F931F9B838A838A813E
:104B80009B818F3F910539F030F020C082E393E0A4
:104B90000E94200824C08981882F90E002962A81F3
:104BA000622F0E94741F8981882F90E003969C01D8
:104BB0008A819B81892F9927482FC901642F0E94E0
:104BC000741F88E593E00E94200809C08AE793E0FB
:104BD0000E94200804C08CEA92E00E9420082E96D1
:104BE0000FB6F894DEBF0FBECDBFCF91DF91089511
:104BF000DF93CF93CDB7DEB78EE893E00E94200815
:104C000086EA93E00E9420088FEB93E00E94200840
:104C100080918D07805D0E94EB07CF91DF91089511
:104C2000DF93CF93CDB7DEB72E970FB6F894DEBFE4
:104C30000FBECDBF0E944F158FEC93E00E9420085D
:104C400080E090E8ABE3B5E48B879C87AD87BE87B7
:104C50006B857C858D859E8520E030E04AE755E4B4
:104C60000E941F02DC01CB018F839887A987BA8736
:104C70006F81788589859A8520E030E040E85FE3A0
:104C80000E94250488232CF481E090E09E838D838C
:104C90003FC06F81788589859A8520E03FEF4FE797
:104CA00057E40E94C50318164CF56B857C858D85ED
:104CB0009E8520E030E040E251E40E941F02DC01CA
:104CC000CB01BC01CD010E944900DC01CB019E83D8
:104CD0008D830FC080E991E09C838B838B819C81C5
:104CE0000197F1F79C838B838D819E8101979E8331
:104CF0008D838D819E81009769F714C06F817885BF
:104D000089859A850E944900DC01CB019E838D83B1
:104D10008D819E819A83898389819A810197F1F798
:104D20009A8389832E960FB6F894DEBF0FBECDBF4F
:104D3000CF91DF910895DF93CF93CDB7DEB72E9754
:104D40000FB6F894DEBF0FBECDBF0E945E1582EE97
:104D500093E00E94200880E090E8ABE3B5E48B8705
:104D60009C87AD87BE876B857C858D859E8520E081
:104D700030E04AE755E40E941F02DC01CB018F833B
:104D80009887A987BA876F81788589859A8520E079
:104D900030E040E85FE30E94250488232CF481E0A2
:104DA00090E09E838D833FC06F81788589859A8549
:104DB00020E03FEF4FE757E40E94C50318164CF57B
:104DC0006B857C858D859E8520E030E040E251E456
:104DD0000E941F02DC01CB01BC01CD010E944900F1
:104DE000DC01CB019E838D830FC080E991E09C8321
:104DF0008B838B819C810197F1F79C838B838D81C1
:104E00009E8101979E838D838D819E81009769F796
:104E100014C06F81788589859A850E944900DC01DC
:104E2000CB019E838D838D819E819A838983898125
:104E30009A810197F1F79A8389832E960FB6F89499
:104E4000DEBF0FBECDBFCF91DF910895DF93CF932B
:104E5000CDB7DEB785EF93E00E94200883E094E0B1
:104E60000E94200881E194E00E94200882E294E000
:104E70000E94200881E394E00E94200888E494E0E6
:104E80000E9420088BE594E00E9420088FE694E0C1
:104E90000E94200888E894E00E942008CF91DF91CA
:104EA0000895DF93CF93CDB7DEB761970FB6F8942F
:104EB000DEBF0FBECDBF198680919307813029F0E8
:104EC0008DE994E00E942008E8C09E01275F3F4FD3
:104ED00083E063E0A9010E942D118BEB94E00E9416
:104EE000200889850E94EB078985882309F0D1C0B5
:104EF0008EEC94E00E9420081B861A861D861C8674
:104F000018861F821E821D821E861F86188A198A95
:104F10001C821B821A8219829E01265F3F4F8FEFEF
:104F2000B9010E946E0A882329F48EEE94E00E9453
:104F30002008B3C087E195E00E9420088A850E947E
:104F4000EB07CE010A969C012F5F3F4F8FEFB9010F
:104F50000E946E0A882329F481E395E00E942008CC
:104F60009CC089E595E00E9420088B850E94EB0794
:104F70009E01245F3F4F8FEFB9010E946E0A882384
:104F800029F482E795E00E94200887C08DE995E02A
:104F90000E9420088C850E94EB07CE010C969C0194
:104FA0002F5F3F4F8FEFB9010E946E0A882329F4CB
:104FB00089EB95E00E94200870C083EE95E00E9486
:104FC00020088D850E94EB078A85882F90E0382F76
:104FD00022278B85882F90E0822B932B98878F83B5
:104FE0008C85882F90E0382F22278D85882F90E0A0
:104FF000822B932B9E838D838F8198858150904C3B
:10500000880F991F880F991F9E01225F3F4F64E010
:10501000A9010E946B218E85882F90E0382F2227CE
:105020008F85882F90E0822B932B9C838B8388899C
:10503000882F90E0382F22278989882F90E0822BB3
:10504000932B9A8389832F8138858B819C812817A4
:105050003907A9F42D813E8189819A812817390762
:1050600071F480EC90E00E9420080E9410260E94BB
:105070009B2681E060E070E00E946E0A0EC08EEF19
:1050800095E00E94200880E060E070E00E946E0AD7
:1050900004C08EE096E00E94200861960FB6F89456
:1050A000DEBF0FBECDBFCF91DF910895DF93CF93C9
:1050B000CDB7DEB72E970FB6F894DEBF0FBECDBFCB
:1050C00080E090E0A8E4B2E48B879C87AD87BE8740
:1050D0006B857C858D859E8520E030E04AE755E430
:1050E0000E941F02DC01CB018F839887A987BA87B2
:1050F0006F81788589859A8520E030E040E85FE31C
:105100000E94250488232CF481E090E09E838D8307
:105110003FC06F81788589859A8520E03FEF4FE712
:1051200057E40E94C50318164CF56B857C858D8568
:105130009E8520E030E040E251E40E941F02DC0145
:10514000CB01BC01CD010E944900DC01CB019E8353
:105150008D830FC080E991E09C838B838B819C8140
:105160000197F1F79C838B838D819E8101979E83AC
:105170008D838D819E81009769F714C06F8178853A
:1051800089859A850E944900DC01CB019E838D832D
:105190008D819E819A83898389819A810197F1F714
:1051A0009A83898380918F078823F1F481E080932B
:1051B0008F0760916D0770916E0780916F070E9455
:1051C0006B2210928E0710928F0781E080939007D8
:1051D00010928D070E94A12280E296E00E94200892
:1051E0000E940223109290072E960FB6F894DEBF0D
:1051F0000FBECDBFCF91DF910895DF93CF93CDB791
:10520000DEB70E94A1220E940223FFCF629FD0013D
:10521000739FF001829FE00DF11D649FE00DF11D71
:10522000929FF00D839FF00D749FF00D659FF00D20
:105230009927729FB00DE11DF91F639FB00DE11D0D
:10524000F91FBD01CF0111240895A1E21A2EAA1B56
:10525000BB1BFD010DC0AA1FBB1FEE1FFF1FA21726
:10526000B307E407F50720F0A21BB30BE40BF50B23
:10527000661F771F881F991F1A9469F760957095AC
:10528000809590959B01AC01BD01CF0108952F92AF
:105290003F924F925F926F927F928F929F92AF92C6
:1052A000BF92CF92DF92EF92FF920F931F93CF9313
:1052B000DF93CDB7DEB7CA1BDB0B0FB6F894DEBFAA
:1052C0000FBECDBF09942A88398848885F846E84D0
:1052D0007D848C849B84AA84B984C884DF80EE801A
:1052E000FD800C811B81AA81B981CE0FD11D0FB623
:1052F000F894DEBF0FBECDBFED010895F894FFCF47
:105300000D0A57656C636F6D6520696E2041444DD1
:10531000494E204D4F44453A0D0A456E7465722042
:1053200041646D696E20557365726E616D653A20DA
:10533000000D0A496E636F72726563742055736560
:10534000726E616D652E000D0A456E7465722041A6
:10535000646D696E2050617373776F72643A2000D8
:105360000D0A4C6F67696E205375636365737366CE
:10537000756C21000D0A496E636F7272656374204B
:1053800050617373776F72642E000D0A546F6F2033
:105390006D616E7920696E636F72726563742061EE
:1053A0007474656D707473212053797374656D2006
:1053B0006C6F636B65642E0D0A0041646D696E004D
:1053C00031323334000D0A456E74657220796F7581
:1053D000722063686F6963652E2E2E000D0A526578
:1053E0007475726E696E6720746F204D61696E20EE
:1053F0004D656E752E2E2E000D0A496E76616C6914
:10540000642043686F6963652E20506C6561736525
:105410002054727920416761696E2E000D0A456E35
:1054200074657220332D64696769742055736572E1
:1054300020494420283096323535293A20000D0A7B
:10544000496E76616C696420557365722049442EFB
:1054500020506C6561736520656E746572206120F3
:1054600076616C7565206265747765656E203020A5
:10547000616E64203235352E000D0A456E746572FA
:1054800020332D64696769742070617373776F725C
:105490006420283096323535293A20000D0A496EAD
:1054A00076616C69642050617373776F72642E202B
:1054B000506C6561736520656E746572206120763D
:1054C000616C7565206265747765656E203020615A
:1054D0006E64203235352E000D0A557365722041F9
:1054E00064646564205375636365737366756C6C7F
:1054F0007921000D0A55736572204C696D6974201D
:10550000526561636865642E000D0A456E746572AC
:105510002055736572204E756D62657220746F2020
:1055200044656C6574652028312D38293A20000DBA
:105530000A557365722044656C6574656420537503
:10554000636365737366756C6C792E000D0A496E22
:1055500076616C696420557365722053656C656370
:1055600074696F6E2E000D0A456E74657220557356
:105570006572204E756D62657220746F2045646996
:10558000742028312D38293A20000D0A456E7465A3
:1055900072204E657720332D646967697420494411
:1055A00020283096323535293A20000D0A456E7490
:1055B0006572204E657720332D64696769742050C9
:1055C000617373776F726420283096323535293ACB
:1055D00020000D0A496E76616C69642049442E20D2
:1055E00045646974204F7065726174696F6E204103
:1055F000626F727465642E000D0A557365722044E3
:1056000061746120557064617465642053756363CF
:1056100065737366756C6C792E000D0A496E766140
:105620006C69642050617373776F72642E000D0A89
:10563000446973706C6179696E6720416C6C2055A8
:10564000736572733A000D0A3D3D3D3D3D3D3D3D64
:105650003D3D3D3D3D3D3D3D3D3D3D3D3D3D000DE7
:105660000A546F74616C2055736572733A20000D93
:105670000A54686520446F6F72204F70656E6564D0
:105680002E000D0A54686520446F6F7220436C6FC2
:105690007365642E000D0A41646D696E204D656E60
:1056A000753A000D0A312E204164642055736572ED
:1056B000000D0A322E2044656C65746520557365B3
:1056C00072000D0A332E204564697420557365728B
:1056D000000D0A342E20446973706C617920416C8E
:1056E0006C205573657273000D0A352E204F70655E
:1056F0006E2074686520446F6F72000D0A362E208C
:10570000436C6F73652074686520446F6F72000D81
:105710000A372E2052657475726E20746F204D61A9
:10572000696E204D656E75000D0A43686F6F736575
:1057300020616E206F7074696F6E3A20000D0A4907
:10574000676E6F72696E6720495352202841646DFD
:10575000696E2041637469766529000D0A494E54CB
:10576000312050696E2056616C75653A20000D0A33
:10577000526563656976696E67205573657220436B
:10578000726564656E7469616C732E2E2E000D0A4D
:105790004572726F723A204661696C656420746F5D
:1057A00020726563656976652049442048696768A9
:1057B00020427974652E000D0A526563656976652D
:1057C00064204944204869676820427974653A201A
:1057D000000D0A4572726F723A204661696C656409
:1057E00020746F2072656365697665204944204C9A
:1057F0006F7720427974652E000D0A5265636569E2
:10580000766564204944204C6F7720427974653A6C
:1058100020000D0A4572726F723A204661696C650C
:105820006420746F207265636569766520506173CA
:1058300073204869676820427974652E000D0A520A
:105840006563656976656420506173732048696794
:105850006820427974653A20000D0A4572726F72B1
:105860003A204661696C656420746F2072656365D7
:105870006976652050617373204C6F77204279748C
:10588000652E000D0A526563656976656420506176
:105890007373204C6F7720427974653A20000D0AAB
:1058A0004C6F67696E204661696C656421000D0A62
:1058B000496E76616C69642054726967676572002D
:1058C0000D0A53797374656D206861732062656594
:1058D0006E2072657365742E204E6F726D616C2040
:1058E0006F7065726174696F6E20726573756D6536
:1058F000642E0D0A000000000000000000000102FC
:10590000020303030304040404040404040505055A
:105910000505050505050505050505050506060634
:105920000606060606060606060606060606060617
:105930000606060606060606060606060607070704
:1059400007070707070707070707070707070707E7
:1059500007070707070707070707070707070707D7
:1059600007070707070707070707070707070707C7
:1059700007070707070707070707070707080808B4
:105980000808080808080808080808080808080897
:105990000808080808080808080808080808080887
:1059A0000808080808080808080808080808080877
:1059B0000808080808080808080808080808080867
:1059C0000808080808080808080808080808080857
:1059D0000808080808080808080808080808080847
:1059E0000808080808080808080808080808080837
:1059F000080808080808080808080808080D1F1300
:105A00001010101000030B0C080810000000020119
:105A10003132334134353642373839432A30234422
:00000001FF
